{"abi":[{"type":"constructor","inputs":[{"name":"admin","type":"address","internalType":"address"}],"stateMutability":"nonpayable"},{"type":"function","name":"DEFAULT_ADMIN_ROLE","inputs":[],"outputs":[{"name":"","type":"bytes32","internalType":"bytes32"}],"stateMutability":"view"},{"type":"function","name":"MARKET_REGISTRAR_ROLE","inputs":[],"outputs":[{"name":"","type":"bytes32","internalType":"bytes32"}],"stateMutability":"view"},{"type":"function","name":"feedByMarket","inputs":[{"name":"","type":"address","internalType":"address"}],"outputs":[{"name":"","type":"address","internalType":"address"}],"stateMutability":"view"},{"type":"function","name":"getMarketCountForFeed","inputs":[{"name":"priceFeed","type":"address","internalType":"address"}],"outputs":[{"name":"","type":"uint256","internalType":"uint256"}],"stateMutability":"view"},{"type":"function","name":"getMarketsForFeed","inputs":[{"name":"priceFeed","type":"address","internalType":"address"}],"outputs":[{"name":"","type":"address[]","internalType":"address[]"}],"stateMutability":"view"},{"type":"function","name":"getRoleAdmin","inputs":[{"name":"role","type":"bytes32","internalType":"bytes32"}],"outputs":[{"name":"","type":"bytes32","internalType":"bytes32"}],"stateMutability":"view"},{"type":"function","name":"grantMarketRegistrar","inputs":[{"name":"account","type":"address","internalType":"address"}],"outputs":[],"stateMutability":"nonpayable"},{"type":"function","name":"grantRole","inputs":[{"name":"role","type":"bytes32","internalType":"bytes32"},{"name":"account","type":"address","internalType":"address"}],"outputs":[],"stateMutability":"nonpayable"},{"type":"function","name":"hasRole","inputs":[{"name":"role","type":"bytes32","internalType":"bytes32"},{"name":"account","type":"address","internalType":"address"}],"outputs":[{"name":"","type":"bool","internalType":"bool"}],"stateMutability":"view"},{"type":"function","name":"registerMarket","inputs":[{"name":"priceFeed","type":"address","internalType":"address"},{"name":"market","type":"address","internalType":"address"}],"outputs":[],"stateMutability":"nonpayable"},{"type":"function","name":"renounceRole","inputs":[{"name":"role","type":"bytes32","internalType":"bytes32"},{"name":"callerConfirmation","type":"address","internalType":"address"}],"outputs":[],"stateMutability":"nonpayable"},{"type":"function","name":"revokeMarketRegistrar","inputs":[{"name":"account","type":"address","internalType":"address"}],"outputs":[],"stateMutability":"nonpayable"},{"type":"function","name":"revokeRole","inputs":[{"name":"role","type":"bytes32","internalType":"bytes32"},{"name":"account","type":"address","internalType":"address"}],"outputs":[],"stateMutability":"nonpayable"},{"type":"function","name":"supportsInterface","inputs":[{"name":"interfaceId","type":"bytes4","internalType":"bytes4"}],"outputs":[{"name":"","type":"bool","internalType":"bool"}],"stateMutability":"view"},{"type":"function","name":"unregisterMarket","inputs":[{"name":"market","type":"address","internalType":"address"}],"outputs":[],"stateMutability":"nonpayable"},{"type":"event","name":"MarketRegistered","inputs":[{"name":"priceFeed","type":"address","indexed":true,"internalType":"address"},{"name":"market","type":"address","indexed":true,"internalType":"address"}],"anonymous":false},{"type":"event","name":"MarketUnregistered","inputs":[{"name":"priceFeed","type":"address","indexed":true,"internalType":"address"},{"name":"market","type":"address","indexed":true,"internalType":"address"}],"anonymous":false},{"type":"event","name":"RoleAdminChanged","inputs":[{"name":"role","type":"bytes32","indexed":true,"internalType":"bytes32"},{"name":"previousAdminRole","type":"bytes32","indexed":true,"internalType":"bytes32"},{"name":"newAdminRole","type":"bytes32","indexed":true,"internalType":"bytes32"}],"anonymous":false},{"type":"event","name":"RoleGranted","inputs":[{"name":"role","type":"bytes32","indexed":true,"internalType":"bytes32"},{"name":"account","type":"address","indexed":true,"internalType":"address"},{"name":"sender","type":"address","indexed":true,"internalType":"address"}],"anonymous":false},{"type":"event","name":"RoleRevoked","inputs":[{"name":"role","type":"bytes32","indexed":true,"internalType":"bytes32"},{"name":"account","type":"address","indexed":true,"internalType":"address"},{"name":"sender","type":"address","indexed":true,"internalType":"address"}],"anonymous":false},{"type":"error","name":"AccessControlBadConfirmation","inputs":[]},{"type":"error","name":"AccessControlUnauthorizedAccount","inputs":[{"name":"account","type":"address","internalType":"address"},{"name":"neededRole","type":"bytes32","internalType":"bytes32"}]},{"type":"error","name":"InvalidMarket","inputs":[]},{"type":"error","name":"InvalidPriceFeed","inputs":[]},{"type":"error","name":"MarketAlreadyRegistered","inputs":[]},{"type":"error","name":"UnknownMarket","inputs":[]}],"bytecode":{"object":"0x608060405234801561001057600080fd5b50604051610bb4380380610bb483398101604081905261002f91610120565b61003a600033610074565b506001600160a01b0381161580159061005c57506001600160a01b0381163314155b1561006e5761006c600082610074565b505b50610150565b6000828152602081815260408083206001600160a01b038516845290915281205460ff16610116576000838152602081815260408083206001600160a01b03861684529091529020805460ff191660011790556100ce3390565b6001600160a01b0316826001600160a01b0316847f2f8788117e7eff1d82e926ec794901d17c78024a50270940304540a733656f0d60405160405180910390a450600161011a565b5060005b92915050565b60006020828403121561013257600080fd5b81516001600160a01b038116811461014957600080fd5b9392505050565b610a558061015f6000396000f3fe608060405234801561001057600080fd5b50600436106100f55760003560e01c8063a217fddf11610097578063ecb7788511610066578063ecb778851461020b578063f13a6c6c1461022b578063f94bc1de1461023e578063fa3572d71461025357600080fd5b8063a217fddf146101ca578063ab5ab930146101d2578063b4359143146101e5578063d547741f146101f857600080fd5b806336568abe116100d357806336568abe1461016857806339874d311461017b5780636b8516a51461018e57806391d14854146101b757600080fd5b806301ffc9a7146100fa578063248a9ca3146101225780632f2ff15d14610153575b600080fd5b61010d61010836600461088e565b610294565b60405190151581526020015b60405180910390f35b6101456101303660046108bf565b60009081526020819052604090206001015490565b604051908152602001610119565b6101666101613660046108f4565b6102cb565b005b6101666101763660046108f4565b6102f6565b610166610189366004610920565b61032e565b61014561019c366004610920565b6001600160a01b031660009081526001602052604090205490565b61010d6101c53660046108f4565b610351565b610145600081565b6101666101e0366004610920565b61037a565b6101666101f336600461093b565b610559565b6101666102063660046108f4565b610685565b61021e610219366004610920565b6106aa565b6040516101199190610965565b610166610239366004610920565b610720565b610145600080516020610a0083398151915281565b61027c610261366004610920565b6002602052600090815260409020546001600160a01b031681565b6040516001600160a01b039091168152602001610119565b60006001600160e01b03198216637965db0b60e01b14806102c557506301ffc9a760e01b6001600160e01b03198316145b92915050565b6000828152602081905260409020600101546102e681610743565b6102f08383610750565b50505050565b6001600160a01b038116331461031f5760405163334bd91960e11b815260040160405180910390fd5b61032982826107e2565b505050565b600061033981610743565b610329600080516020610a0083398151915283610750565b6000918252602082815260408084206001600160a01b0393909316845291905290205460ff1690565b600080516020610a0083398151915261039281610743565b6001600160a01b0380831660009081526002602052604090205416806103cb5760405163d8ac932560e01b815260040160405180910390fd5b6001600160a01b03808416600090815260036020908152604080832054938516835260019182905282205461040091906109b2565b90508082146104ae576001600160a01b0383166000908152600160205260408120805483908110610433576104336109d3565b60009182526020808320909101546001600160a01b03878116845260019092526040909220805491909216925082919085908110610473576104736109d3565b600091825260208083209190910180546001600160a01b0319166001600160a01b039485161790559290911681526003909152604090208290555b6001600160a01b03831660009081526001602052604090208054806104d5576104d56109e9565b60008281526020808220830160001990810180546001600160a01b031990811690915593019093556001600160a01b0388811680835260038552604080842084905560029095528483208054909416909355925191928616917f6df62620374138bd7156b67cb674351d5ce5c51312c3060a72e5016b60c7bb049190a35050505050565b600080516020610a0083398151915261057181610743565b6001600160a01b038316610598576040516352cc3f7d60e01b815260040160405180910390fd5b6001600160a01b0382166105bf57604051639db8d5b160e01b815260040160405180910390fd5b6001600160a01b0382811660009081526002602052604090205416156105f85760405163043bf2f760e51b815260040160405180910390fd5b6001600160a01b0380841660008181526001602081815260408084208054968916808652600384528286208890559387018155845281842090950180546001600160a01b03199081168417909155828452600290915284832080549091168417905592517f85809204e50772a47432493e370a554da587e4798b21fc144cf382946a05abcf9190a3505050565b6000828152602081905260409020600101546106a081610743565b6102f083836107e2565b6001600160a01b03811660009081526001602090815260409182902080548351818402810184019094528084526060939283018282801561071457602002820191906000526020600020905b81546001600160a01b031681526001909101906020018083116106f6575b50505050509050919050565b600061072b81610743565b610329600080516020610a00833981519152836107e2565b61074d813361084d565b50565b600061075c8383610351565b6107da576000838152602081815260408083206001600160a01b03861684529091529020805460ff191660011790556107923390565b6001600160a01b0316826001600160a01b0316847f2f8788117e7eff1d82e926ec794901d17c78024a50270940304540a733656f0d60405160405180910390a45060016102c5565b5060006102c5565b60006107ee8383610351565b156107da576000838152602081815260408083206001600160a01b0386168085529252808320805460ff1916905551339286917ff6391f5c32d9c69d2a47ea670b442974b53935d1edc7fd64eb21e047a839171b9190a45060016102c5565b6108578282610351565b61088a5760405163e2517d3f60e01b81526001600160a01b03821660048201526024810183905260440160405180910390fd5b5050565b6000602082840312156108a057600080fd5b81356001600160e01b0319811681146108b857600080fd5b9392505050565b6000602082840312156108d157600080fd5b5035919050565b80356001600160a01b03811681146108ef57600080fd5b919050565b6000806040838503121561090757600080fd5b82359150610917602084016108d8565b90509250929050565b60006020828403121561093257600080fd5b6108b8826108d8565b6000806040838503121561094e57600080fd5b610957836108d8565b9150610917602084016108d8565b6020808252825182820181905260009190848201906040850190845b818110156109a65783516001600160a01b031683529284019291840191600101610981565b50909695505050505050565b818103818111156102c557634e487b7160e01b600052601160045260246000fd5b634e487b7160e01b600052603260045260246000fd5b634e487b7160e01b600052603160045260246000fdfea169d31af9eca5c47a201f7b4eabfd604e8070b9260eddd8220435b351cc08cca2646970667358221220024ee0a2adcb02be43248611497b9953167133df22b0cf94b4369a0374c0691f64736f6c63430008140033","linkReferences":{}},"methodIdentifiers":{"DEFAULT_ADMIN_ROLE()":"a217fddf","MARKET_REGISTRAR_ROLE()":"f94bc1de","feedByMarket(address)":"fa3572d7","getMarketCountForFeed(address)":"6b8516a5","getMarketsForFeed(address)":"ecb77885","getRoleAdmin(bytes32)":"248a9ca3","grantMarketRegistrar(address)":"39874d31","grantRole(bytes32,address)":"2f2ff15d","hasRole(bytes32,address)":"91d14854","registerMarket(address,address)":"b4359143","renounceRole(bytes32,address)":"36568abe","revokeMarketRegistrar(address)":"f13a6c6c","revokeRole(bytes32,address)":"d547741f","supportsInterface(bytes4)":"01ffc9a7","unregisterMarket(address)":"ab5ab930"},"id":24}