{"abi":[{"type":"constructor","inputs":[{"name":"_usdc","type":"address","internalType":"address"},{"name":"_priceRouter","type":"address","internalType":"address"}],"stateMutability":"nonpayable"},{"type":"function","name":"DEFAULT_ADMIN_ROLE","inputs":[],"outputs":[{"name":"","type":"bytes32","internalType":"bytes32"}],"stateMutability":"view"},{"type":"function","name":"MARKET_CREATOR_ROLE","inputs":[],"outputs":[{"name":"","type":"bytes32","internalType":"bytes32"}],"stateMutability":"view"},{"type":"function","name":"allMarkets","inputs":[{"name":"","type":"uint256","internalType":"uint256"}],"outputs":[{"name":"","type":"address","internalType":"address"}],"stateMutability":"view"},{"type":"function","name":"createMarket","inputs":[{"name":"question","type":"string","internalType":"string"},{"name":"category","type":"string","internalType":"string"},{"name":"resolutionDeadline","type":"uint256","internalType":"uint256"},{"name":"initialLiquidityUsdc","type":"uint256","internalType":"uint256"},{"name":"priceFeed","type":"address","internalType":"address"}],"outputs":[{"name":"market","type":"address","internalType":"address"}],"stateMutability":"nonpayable"},{"type":"function","name":"deleteMarket","inputs":[{"name":"market","type":"address","internalType":"address"}],"outputs":[],"stateMutability":"nonpayable"},{"type":"function","name":"getMarketCount","inputs":[],"outputs":[{"name":"","type":"uint256","internalType":"uint256"}],"stateMutability":"view"},{"type":"function","name":"getMarketInfo","inputs":[{"name":"market","type":"address","internalType":"address"}],"outputs":[{"name":"","type":"tuple","internalType":"struct MarketFactory.MarketInfo","components":[{"name":"question","type":"string","internalType":"string"},{"name":"category","type":"string","internalType":"string"},{"name":"createdAt","type":"uint256","internalType":"uint256"},{"name":"resolutionDeadline","type":"uint256","internalType":"uint256"},{"name":"priceFeed","type":"address","internalType":"address"}]}],"stateMutability":"view"},{"type":"function","name":"getMarkets","inputs":[{"name":"offset","type":"uint256","internalType":"uint256"},{"name":"limit","type":"uint256","internalType":"uint256"}],"outputs":[{"name":"markets","type":"address[]","internalType":"address[]"}],"stateMutability":"view"},{"type":"function","name":"getRoleAdmin","inputs":[{"name":"role","type":"bytes32","internalType":"bytes32"}],"outputs":[{"name":"","type":"bytes32","internalType":"bytes32"}],"stateMutability":"view"},{"type":"function","name":"grantMarketCreator","inputs":[{"name":"user","type":"address","internalType":"address"}],"outputs":[],"stateMutability":"nonpayable"},{"type":"function","name":"grantRole","inputs":[{"name":"role","type":"bytes32","internalType":"bytes32"},{"name":"account","type":"address","internalType":"address"}],"outputs":[],"stateMutability":"nonpayable"},{"type":"function","name":"hasRole","inputs":[{"name":"role","type":"bytes32","internalType":"bytes32"},{"name":"account","type":"address","internalType":"address"}],"outputs":[{"name":"","type":"bool","internalType":"bool"}],"stateMutability":"view"},{"type":"function","name":"isMarket","inputs":[{"name":"","type":"address","internalType":"address"}],"outputs":[{"name":"","type":"bool","internalType":"bool"}],"stateMutability":"view"},{"type":"function","name":"marketInfo","inputs":[{"name":"","type":"address","internalType":"address"}],"outputs":[{"name":"question","type":"string","internalType":"string"},{"name":"category","type":"string","internalType":"string"},{"name":"createdAt","type":"uint256","internalType":"uint256"},{"name":"resolutionDeadline","type":"uint256","internalType":"uint256"},{"name":"priceFeed","type":"address","internalType":"address"}],"stateMutability":"view"},{"type":"function","name":"priceRouter","inputs":[],"outputs":[{"name":"","type":"address","internalType":"contract PriceRouter"}],"stateMutability":"view"},{"type":"function","name":"removeMarket","inputs":[{"name":"market","type":"address","internalType":"address"}],"outputs":[],"stateMutability":"nonpayable"},{"type":"function","name":"renounceRole","inputs":[{"name":"role","type":"bytes32","internalType":"bytes32"},{"name":"callerConfirmation","type":"address","internalType":"address"}],"outputs":[],"stateMutability":"nonpayable"},{"type":"function","name":"revokeMarketCreator","inputs":[{"name":"user","type":"address","internalType":"address"}],"outputs":[],"stateMutability":"nonpayable"},{"type":"function","name":"revokeRole","inputs":[{"name":"role","type":"bytes32","internalType":"bytes32"},{"name":"account","type":"address","internalType":"address"}],"outputs":[],"stateMutability":"nonpayable"},{"type":"function","name":"setPriceRouter","inputs":[{"name":"newRouter","type":"address","internalType":"address"}],"outputs":[],"stateMutability":"nonpayable"},{"type":"function","name":"supportsInterface","inputs":[{"name":"interfaceId","type":"bytes4","internalType":"bytes4"}],"outputs":[{"name":"","type":"bool","internalType":"bool"}],"stateMutability":"view"},{"type":"function","name":"usdc","inputs":[],"outputs":[{"name":"","type":"address","internalType":"contract IERC20"}],"stateMutability":"view"},{"type":"event","name":"MarketCreated","inputs":[{"name":"market","type":"address","indexed":true,"internalType":"address"},{"name":"question","type":"string","indexed":false,"internalType":"string"},{"name":"category","type":"string","indexed":false,"internalType":"string"},{"name":"resolutionDeadline","type":"uint256","indexed":false,"internalType":"uint256"},{"name":"priceFeed","type":"address","indexed":true,"internalType":"address"},{"name":"creator","type":"address","indexed":true,"internalType":"address"}],"anonymous":false},{"type":"event","name":"MarketDeleted","inputs":[{"name":"market","type":"address","indexed":true,"internalType":"address"},{"name":"deletedBy","type":"address","indexed":true,"internalType":"address"},{"name":"usdcRefunded","type":"uint256","indexed":false,"internalType":"uint256"}],"anonymous":false},{"type":"event","name":"MarketRemoved","inputs":[{"name":"market","type":"address","indexed":true,"internalType":"address"},{"name":"removedBy","type":"address","indexed":true,"internalType":"address"}],"anonymous":false},{"type":"event","name":"RoleAdminChanged","inputs":[{"name":"role","type":"bytes32","indexed":true,"internalType":"bytes32"},{"name":"previousAdminRole","type":"bytes32","indexed":true,"internalType":"bytes32"},{"name":"newAdminRole","type":"bytes32","indexed":true,"internalType":"bytes32"}],"anonymous":false},{"type":"event","name":"RoleGranted","inputs":[{"name":"role","type":"bytes32","indexed":true,"internalType":"bytes32"},{"name":"account","type":"address","indexed":true,"internalType":"address"},{"name":"sender","type":"address","indexed":true,"internalType":"address"}],"anonymous":false},{"type":"event","name":"RoleRevoked","inputs":[{"name":"role","type":"bytes32","indexed":true,"internalType":"bytes32"},{"name":"account","type":"address","indexed":true,"internalType":"address"},{"name":"sender","type":"address","indexed":true,"internalType":"address"}],"anonymous":false},{"type":"event","name":"RouterUpdated","inputs":[{"name":"oldRouter","type":"address","indexed":true,"internalType":"address"},{"name":"newRouter","type":"address","indexed":true,"internalType":"address"}],"anonymous":false},{"type":"error","name":"AccessControlBadConfirmation","inputs":[]},{"type":"error","name":"AccessControlUnauthorizedAccount","inputs":[{"name":"account","type":"address","internalType":"address"},{"name":"neededRole","type":"bytes32","internalType":"bytes32"}]},{"type":"error","name":"ERC20TransferFailed","inputs":[]},{"type":"error","name":"InvalidDeadline","inputs":[]},{"type":"error","name":"UnknownMarket","inputs":[]},{"type":"error","name":"ZeroLiquidity","inputs":[]}],"bytecode":{"object":"0x60a06040523480156200001157600080fd5b5060405162003c3f38038062003c3f833981016040819052620000349162000168565b6001600160a01b03828116608052600180546001600160a01b031916918316919091179055620000666000336200009c565b50620000937fd3065a24ad9e7725d223007135762d2902038999e3e5829146654498a58d9795336200009c565b505050620001a0565b6000828152602081815260408083206001600160a01b038516845290915281205460ff1662000141576000838152602081815260408083206001600160a01b03861684529091529020805460ff19166001179055620000f83390565b6001600160a01b0316826001600160a01b0316847f2f8788117e7eff1d82e926ec794901d17c78024a50270940304540a733656f0d60405160405180910390a450600162000145565b5060005b92915050565b80516001600160a01b03811681146200016357600080fd5b919050565b600080604083850312156200017c57600080fd5b62000187836200014b565b915062000197602084016200014b565b90509250929050565b608051613a6e620001d16000396000818161024f01528181610656015281816106f101526107810152613a6e6000f3fe60806040523480156200001157600080fd5b50600436106200015d5760003560e01c806391d1485411620000c7578063d547741f1162000086578063d547741f1462000363578063d7d4bf45146200037a578063d960e94a146200038e578063db91323614620003a5578063fc16390114620003bc578063fd69f3c214620003d357600080fd5b806391d1485414620002eb578063a217fddf1462000302578063ae42820c146200030b578063b06ea2eb1462000322578063c4351386146200033957600080fd5b806336568abe116200012057806336568abe14620002325780633e413bee146200024957806352d84d1e14620002715780636ec934da146200028857806380968d4814620002ae57806388005bdc14620002d457600080fd5b806301ffc9a714620001625780630cf85bcc146200018e578063248a9ca314620001b45780632db0521f14620001e95780632f2ff15d1462000219575b600080fd5b62000179620001733660046200141e565b620003dc565b60405190151581526020015b60405180910390f35b620001a56200019f3660046200146e565b62000414565b604051620001859190620014d4565b620001da620001c536600462001544565b60009081526020819052604090206001015490565b60405190815260200162000185565b62000200620001fa366004620015aa565b620005d4565b6040516001600160a01b03909116815260200162000185565b620002306200022a36600462001646565b62000a9a565b005b620002306200024336600462001646565b62000ac9565b620002007f000000000000000000000000000000000000000000000000000000000000000081565b620002006200028236600462001544565b62000b04565b62000179620002993660046200146e565b60046020526000908152604090205460ff1681565b620002c5620002bf36600462001675565b62000b2f565b60405162000185919062001698565b62000230620002e53660046200146e565b62000c60565b62000179620002fc36600462001646565b62000cca565b620001da600081565b620001da60008051602062003a1983398151915281565b62000230620003333660046200146e565b62000cf3565b620003506200034a3660046200146e565b62000d1b565b60405162000185959493929190620016e7565b620002306200037436600462001646565b62000e74565b60015462000200906001600160a01b031681565b620002306200039f3660046200146e565b62000e9d565b62000230620003b63660046200146e565b62000f9f565b62000230620003cd3660046200146e565b62000ff1565b600254620001da565b60006001600160e01b03198216637965db0b60e01b14806200040e57506301ffc9a760e01b6001600160e01b03198316145b92915050565b620004506040518060a001604052806060815260200160608152602001600081526020016000815260200160006001600160a01b031681525090565b6001600160a01b03821660009081526003602052604090819020815160a08101909252805482908290620004849062001737565b80601f0160208091040260200160405190810160405280929190818152602001828054620004b29062001737565b8015620005035780601f10620004d75761010080835404028352916020019162000503565b820191906000526020600020905b815481529060010190602001808311620004e557829003601f168201915b505050505081526020016001820180546200051e9062001737565b80601f01602080910402602001604051908101604052809291908181526020018280546200054c9062001737565b80156200059d5780601f1062000571576101008083540402835291602001916200059d565b820191906000526020600020905b8154815290600101906020018083116200057f57829003601f168201915b505050918352505060028201546020820152600382015460408201526004909101546001600160a01b031660609091015292915050565b600060008051602062003a19833981519152620005f18162001019565b836000036200061357604051630200e8a960e31b815260040160405180910390fd5b4285116200063457604051631da7447960e21b815260040160405180910390fd5b6040516323b872dd60e01b8152336004820152306024820152604481018590527f00000000000000000000000000000000000000000000000000000000000000006001600160a01b0316906323b872dd906064016020604051808303816000875af1158015620006a8573d6000803e3d6000fd5b505050506040513d601f19601f82011682018060405250810190620006ce919062001773565b620006ec57604051633c9fd93960e21b815260040160405180910390fd5b6000337f00000000000000000000000000000000000000000000000000000000000000008b8b8b8b8b8b6040516200072490620013bc565b62000737989796959493929190620017c0565b604051809103906000f08015801562000754573d6000803e3d6000fd5b5060405163a9059cbb60e01b81526001600160a01b038083166004830152602482018890529194508492507f00000000000000000000000000000000000000000000000000000000000000009091169063a9059cbb906044016020604051808303816000875af1158015620007cd573d6000803e3d6000fd5b505050506040513d601f19601f82011682018060405250810190620007f3919062001773565b6200081157604051633c9fd93960e21b815260040160405180910390fd5b60028054600180820183557f405787fa12a823e0f2b7631cc41b3ba8828b3321ca811111fa75cd3aa3bb5ace90910180546001600160a01b0319166001600160a01b0387169081179091556000908152600460205260409020805460ff191682179055905462000882919062001832565b6001600160a01b038416600090815260056020908152604091829020929092558051601f8c01839004909202820160c090810190915260a082018b815282918d908d9081908501838280828437600092019190915250505090825250604080516020601f8c018190048102820181019092528a815291810191908b908b9081908401838280828437600092018290525093855250504260208085019190915260408085018c90526001600160a01b03808b16606090960195909552938816835260039052502081518190620009589082620018b0565b50602082015160018201906200096f9082620018b0565b506040820151600282015560608201516003820155608090910151600490910180546001600160a01b0319166001600160a01b03928316179055841615801590620009c457506001546001600160a01b031615155b1562000a2e5760015460405163b435914360e01b81526001600160a01b03868116600483015285811660248301529091169063b435914390604401600060405180830381600087803b15801562000a1a57600080fd5b505af192505050801562000a2c575060015b505b336001600160a01b0316846001600160a01b0316846001600160a01b03167f27c1a8b2ec56a95bb35012e62c5277991b7ce6956a2e36e176a6600451cf6d018d8d8d8d8d60405162000a859594939291906200197d565b60405180910390a45050979650505050505050565b60008281526020819052604090206001015462000ab78162001019565b62000ac3838362001028565b50505050565b6001600160a01b038116331462000af35760405163334bd91960e11b815260040160405180910390fd5b62000aff8282620010c0565b505050565b6002818154811062000b1557600080fd5b6000918252602090912001546001600160a01b0316905081565b60025460609080841062000b545750506040805160008152602081019091526200040e565b600062000b628486620019bb565b90508181111562000b705750805b600062000b7e868362001832565b90508067ffffffffffffffff81111562000b9c5762000b9c62001848565b60405190808252806020026020018201604052801562000bc6578160200160208202803683370190505b50935060005b8181101562000c5657600262000be38289620019bb565b8154811062000bf65762000bf6620019d1565b9060005260206000200160009054906101000a90046001600160a01b031685828151811062000c295762000c29620019d1565b6001600160a01b03909216602092830291909101909101528062000c4d81620019e7565b91505062000bcc565b5050505092915050565b600062000c6d8162001019565b6001546040516001600160a01b038085169216907f02dc5c233404867c793b749c6d644beb2277536d18a7e7974d3f238e4c6f168490600090a350600180546001600160a01b0319166001600160a01b0392909216919091179055565b6000918252602082815260408084206001600160a01b0393909316845291905290205460ff1690565b600062000d008162001019565b62000aff60008051602062003a198339815191528362001028565b60036020526000908152604090208054819062000d389062001737565b80601f016020809104026020016040519081016040528092919081815260200182805462000d669062001737565b801562000db75780601f1062000d8b5761010080835404028352916020019162000db7565b820191906000526020600020905b81548152906001019060200180831162000d9957829003601f168201915b50505050509080600101805462000dce9062001737565b80601f016020809104026020016040519081016040528092919081815260200182805462000dfc9062001737565b801562000e4d5780601f1062000e215761010080835404028352916020019162000e4d565b820191906000526020600020905b81548152906001019060200180831162000e2f57829003601f168201915b5050505060028301546003840154600490940154929390929091506001600160a01b031685565b60008281526020819052604090206001015462000e918162001019565b62000ac38383620010c0565b600062000eaa8162001019565b6001600160a01b03821660009081526004602052604090205460ff1662000ee45760405163d8ac932560e01b815260040160405180910390fd5b6000826001600160a01b031663fbddfa586040518163ffffffff1660e01b81526004016020604051808303816000875af115801562000f27573d6000803e3d6000fd5b505050506040513d601f19601f8201168201806040525081019062000f4d919062001a03565b905062000f5a836200112f565b60405181815233906001600160a01b038516907f798d9741f9d017197ec8990f632da4053d3e58fd80c06127c3b97ce0d0666e979060200160405180910390a3505050565b600062000fac8162001019565b62000fb7826200112f565b60405133906001600160a01b038416907fe53458cf1e128fd9dd751ec85180c9b93f69b6b6add116d5238cb46f90268d6790600090a35050565b600062000ffe8162001019565b62000aff60008051602062003a1983398151915283620010c0565b62001025813362001378565b50565b600062001036838362000cca565b620010b7576000838152602081815260408083206001600160a01b03861684529091529020805460ff191660011790556200106e3390565b6001600160a01b0316826001600160a01b0316847f2f8788117e7eff1d82e926ec794901d17c78024a50270940304540a733656f0d60405160405180910390a45060016200040e565b5060006200040e565b6000620010ce838362000cca565b15620010b7576000838152602081815260408083206001600160a01b0386168085529252808320805460ff1916905551339286917ff6391f5c32d9c69d2a47ea670b442974b53935d1edc7fd64eb21e047a839171b9190a45060016200040e565b6001600160a01b03811660009081526004602052604090205460ff16620011695760405163d8ac932560e01b815260040160405180910390fd5b6001600160a01b03808216600090815260036020908152604080832060040154600590925282205460025491909316929190620011a99060019062001832565b90508082146200123857600060028281548110620011cb57620011cb620019d1565b600091825260209091200154600280546001600160a01b039092169250829185908110620011fd57620011fd620019d1565b600091825260208083209190910180546001600160a01b0319166001600160a01b039485161790559290911681526005909152604090208290555b60028054806200124c576200124c62001a1d565b60008281526020808220830160001990810180546001600160a01b03191690559092019092556001600160a01b038616825260058152604080832083905560039091528120906200129e8282620013ca565b620012ae600183016000620013ca565b5060006002820181905560038201819055600491820180546001600160a01b03191690556001600160a01b03868116825260209290925260409020805460ff191690558316158015906200130c57506001546001600160a01b031615155b1562000ac357600154604051630ab5ab9360e41b81526001600160a01b0386811660048301529091169063ab5ab93090602401600060405180830381600087803b1580156200135a57600080fd5b505af19250505080156200136c575060015b1562000ac35750505050565b62001384828262000cca565b620013b85760405163e2517d3f60e01b81526001600160a01b03821660048201526024810183905260440160405180910390fd5b5050565b611fe58062001a3483390190565b508054620013d89062001737565b6000825580601f10620013e9575050565b601f0160209004906000526020600020908101906200102591905b808211156200141a576000815560010162001404565b5090565b6000602082840312156200143157600080fd5b81356001600160e01b0319811681146200144a57600080fd5b9392505050565b80356001600160a01b03811681146200146957600080fd5b919050565b6000602082840312156200148157600080fd5b6200144a8262001451565b6000815180845260005b81811015620014b45760208185018101518683018201520162001496565b506000602082860101526020601f19601f83011685010191505092915050565b602081526000825160a06020840152620014f260c08401826200148c565b90506020840151601f198483030160408501526200151182826200148c565b915050604084015160608401526060840151608084015260018060a01b0360808501511660a08401528091505092915050565b6000602082840312156200155757600080fd5b5035919050565b60008083601f8401126200157157600080fd5b50813567ffffffffffffffff8111156200158a57600080fd5b602083019150836020828501011115620015a357600080fd5b9250929050565b600080600080600080600060a0888a031215620015c657600080fd5b873567ffffffffffffffff80821115620015df57600080fd5b620015ed8b838c016200155e565b909950975060208a01359150808211156200160757600080fd5b50620016168a828b016200155e565b9096509450506040880135925060608801359150620016386080890162001451565b905092959891949750929550565b600080604083850312156200165a57600080fd5b823591506200166c6020840162001451565b90509250929050565b600080604083850312156200168957600080fd5b50508035926020909101359150565b6020808252825182820181905260009190848201906040850190845b81811015620016db5783516001600160a01b031683529284019291840191600101620016b4565b50909695505050505050565b60a081526000620016fc60a08301886200148c565b82810360208401526200171081886200148c565b6040840196909652505060608101929092526001600160a01b031660809091015292915050565b600181811c908216806200174c57607f821691505b6020821081036200176d57634e487b7160e01b600052602260045260246000fd5b50919050565b6000602082840312156200178657600080fd5b815180151581146200144a57600080fd5b81835281816020850137506000828201602090810191909152601f909101601f19169091010190565b6001600160a01b0389811682528816602082015260c060408201819052600090620017ef908301888a62001797565b82810360608401526200180481878962001797565b6080840195909552505060a001529695505050505050565b634e487b7160e01b600052601160045260246000fd5b818103818111156200040e576200040e6200181c565b634e487b7160e01b600052604160045260246000fd5b601f82111562000aff57600081815260208120601f850160051c81016020861015620018875750805b601f850160051c820191505b81811015620018a85782815560010162001893565b505050505050565b815167ffffffffffffffff811115620018cd57620018cd62001848565b620018e581620018de845462001737565b846200185e565b602080601f8311600181146200191d5760008415620019045750858301515b600019600386901b1c1916600185901b178555620018a8565b600085815260208120601f198616915b828110156200194e578886015182559484019460019091019084016200192d565b50858210156200196d5787850151600019600388901b60f8161c191681555b5050505050600190811b01905550565b6060815260006200199360608301878962001797565b8281036020840152620019a881868862001797565b9150508260408301529695505050505050565b808201808211156200040e576200040e6200181c565b634e487b7160e01b600052603260045260246000fd5b600060018201620019fc57620019fc6200181c565b5060010190565b60006020828403121562001a1657600080fd5b5051919050565b634e487b7160e01b600052603160045260246000fdfe60e06040523480156200001157600080fd5b5060405162001fe538038062001fe583398101604081905262000034916200022a565b60028110156200007d5760405162461bcd60e51b815260206004820152601060248201526f4d696e2032205553444320756e69747360801b604482015260640160405180910390fd5b6001600160a01b0380871660a0523360c05285166080526000620000a285826200035b565b506001620000b184826200035b565b506002828155600090620000c6908362000427565b60038190559050620000d981836200044a565b60045560098290556001600160a01b038716600081815260076020908152604091829020859055600885905581518581529081018590527fac1d76749e5447b7b16f5ab61447e1bd502f3bb4807af3b28e620d1700a6ee45910160405180910390a25050505050505062000472565b80516001600160a01b03811681146200016057600080fd5b919050565b634e487b7160e01b600052604160045260246000fd5b600082601f8301126200018d57600080fd5b81516001600160401b0380821115620001aa57620001aa62000165565b604051601f8301601f19908116603f01168101908282118183101715620001d557620001d562000165565b81604052838152602092508683858801011115620001f257600080fd5b600091505b83821015620002165785820183015181830184015290820190620001f7565b600093810190920192909252949350505050565b60008060008060008060c087890312156200024457600080fd5b6200024f8762000148565b95506200025f6020880162000148565b60408801519095506001600160401b03808211156200027d57600080fd5b6200028b8a838b016200017b565b95506060890151915080821115620002a257600080fd5b50620002b189828a016200017b565b9350506080870151915060a087015190509295509295509295565b600181811c90821680620002e157607f821691505b6020821081036200030257634e487b7160e01b600052602260045260246000fd5b50919050565b601f8211156200035657600081815260208120601f850160051c81016020861015620003315750805b601f850160051c820191505b8181101562000352578281556001016200033d565b5050505b505050565b81516001600160401b0381111562000377576200037762000165565b6200038f81620003888454620002cc565b8462000308565b602080601f831160018114620003c75760008415620003ae5750858301515b600019600386901b1c1916600185901b17855562000352565b600085815260208120601f198616915b82811015620003f857888601518255948401946001909101908401620003d7565b5085821015620004175787850151600019600388901b60f8161c191681555b5050505050600190811b01905550565b6000826200044557634e487b7160e01b600052601260045260246000fd5b500490565b818103818111156200046c57634e487b7160e01b600052601160045260246000fd5b92915050565b60805160a05160c051611ae8620004fd6000396000818161039c01526113fb0152600081816102ec0152818161044d0152818161149601528181611518015281816115660152818161161b015261166a01526000818161023f0152818161056d01528181610ac601528181610db801528181610fa80152818161132001526115950152611ae86000f3fe608060405234801561001057600080fd5b50600436106101cf5760003560e01c8063aa0e6bc411610104578063d789760e116100a2578063e245b5af11610071578063e245b5af1461040c578063e88b997b1461041f578063ef430aa614610432578063fbddfa581461043a57600080fd5b8063d789760e146103de578063da1bcbbf146103e7578063da3003a4146103f0578063e124015b1461040357600080fd5b8063be040fb0116100de578063be040fb01461036f578063c109a6dc14610377578063c45a015514610397578063cd2013e2146103be57600080fd5b8063aa0e6bc414610334578063b2670d7414610354578063b44f77c11461035d57600080fd5b80634ac8eb5f1161017157806372a9fa6e1161014b57806372a9fa6e146102de5780638da5cb5b146102e75780639c8f9f231461030e578063a89628b51461032157600080fd5b80634ac8eb5f146102ab57806351c6590a146102c2578063528f734f146102d557600080fd5b806323341a05116101ad57806323341a051461021c5780633e413bee1461023a5780633f6fa655146102795780633fad9ae01461029657600080fd5b80630902f1ac146101d45780630bede3f8146101f4578063193099a814610209575b600080fd5b600354600454604080519283526020830191909152015b60405180910390f35b610207610202366004611869565b610442565b005b610207610217366004611886565b610506565b61022461075b565b6040516101eb9a99989796959493929190611901565b6102617f000000000000000000000000000000000000000000000000000000000000000081565b6040516001600160a01b0390911681526020016101eb565b600c546102869060ff1681565b60405190151581526020016101eb565b61029e6109d1565b6040516101eb919061196b565b6102b460095481565b6040519081526020016101eb565b6102076102d036600461197e565b610a5f565b6102b460025481565b6102b460045481565b6102617f000000000000000000000000000000000000000000000000000000000000000081565b61020761031c36600461197e565b610c6a565b6102b461032f366004611997565b610e6d565b6102b46103423660046119c3565b60066020526000908152604090205481565b6102b460035481565b600c5461028690610100900460ff1681565b610207610e82565b6102b46103853660046119c3565b60076020526000908152604090205481565b6102617f000000000000000000000000000000000000000000000000000000000000000081565b6102b46103cc3660046119c3565b60056020526000908152604090205481565b6102b460085481565b6102b4600a5481565b6102b46103fe366004611997565b61105c565b6102b4600b5481565b6102b461041a366004611869565b611068565b61020761042d366004611886565b61112c565b61029e6113e1565b6102b46113ee565b336001600160a01b037f0000000000000000000000000000000000000000000000000000000000000000161461048b576040516330cd747160e01b815260040160405180910390fd5b600c5460ff16156104af5760405163aa43cb2d60e01b815260040160405180910390fd5b600c80548215156101000261ffff199091161760011790556040517ff528f3b02f5c2503827fc677c9d0cb54ffbf11ed32cb659f73243b70dea7cf0e906104fb90831515815260200190565b60405180910390a150565b600c5460ff161561052a5760405163aa43cb2d60e01b815260040160405180910390fd5b8160000361054b57604051631f2a200560e01b815260040160405180910390fd5b6040516323b872dd60e01b8152336004820152306024820152604481018390527f00000000000000000000000000000000000000000000000000000000000000006001600160a01b0316906323b872dd906064016020604051808303816000875af11580156105be573d6000803e3d6000fd5b505050506040513d601f19601f820116820180604052508101906105e291906119ec565b5060006105ef84846116cf565b90508181101561061257604051638199f5f360e01b815260040160405180910390fd5b60006004546003546106249190611a1f565b905084156106945760008460045461063c9190611a36565b90506106488183611a49565b6003556004819055336000908152600560205260408120805485929061066f908490611a36565b9250508190555082600a60008282546106889190611a36565b909155506106f7915050565b6000846003546106a49190611a36565b90506106b08183611a49565b600455600381905533600090815260066020526040812080548592906106d7908490611a36565b9250508190555082600b60008282546106f09190611a36565b9091555050505b83600960008282546107099190611a36565b90915550506040805186151581526020810186905290810183905233907f07bad9821f7e23256f9909e371407caf7d0d7b38fa659f7158d8c72f4b6316c3906060015b60405180910390a25050505050565b606080600080600080600080600080600c60009054906101000a900460ff16156107e157600c54610100900460ff1661079557600061079f565b670de0b6b3a76400005b67ffffffffffffffff169150600c60019054906101000a900460ff166107cd57670de0b6b3a76400006107d0565b60005b67ffffffffffffffff169050610867565b60006004546003546107f39190611a36565b905080156108215780600454670de0b6b3a76400006108129190611a1f565b61081c9190611a49565b61082b565b6706f05b59d3b200005b925080156108595780600354670de0b6b3a764000061084a9190611a1f565b6108549190611a49565b610863565b6706f05b59d3b200005b9150505b60006001600254600c60009054906101000a900460ff16600c60019054906101000a900460ff1660035460045460095489898980546108a590611a6b565b80601f01602080910402602001604051908101604052809291908181526020018280546108d190611a6b565b801561091e5780601f106108f35761010080835404028352916020019161091e565b820191906000526020600020905b81548152906001019060200180831161090157829003601f168201915b5050505050995088805461093190611a6b565b80601f016020809104026020016040519081016040528092919081815260200182805461095d90611a6b565b80156109aa5780601f1061097f576101008083540402835291602001916109aa565b820191906000526020600020905b81548152906001019060200180831161098d57829003601f168201915b50505050509850995099509950995099509950995099509950995090919293949596979899565b600080546109de90611a6b565b80601f0160208091040260200160405190810160405280929190818152602001828054610a0a90611a6b565b8015610a575780601f10610a2c57610100808354040283529160200191610a57565b820191906000526020600020905b815481529060010190602001808311610a3a57829003601f168201915b505050505081565b600c5460ff1615610a835760405163aa43cb2d60e01b815260040160405180910390fd5b80600003610aa457604051631f2a200560e01b815260040160405180910390fd5b6040516323b872dd60e01b8152336004820152306024820152604481018290527f00000000000000000000000000000000000000000000000000000000000000006001600160a01b0316906323b872dd906064016020604051808303816000875af1158015610b17573d6000803e3d6000fd5b505050506040513d601f19601f82011682018060405250810190610b3b91906119ec565b506000600454600354610b4e9190611a36565b905060008160035484610b619190611a1f565b610b6b9190611a49565b90506000610b798285611a9f565b90508160036000828254610b8d9190611a36565b925050819055508060046000828254610ba69190611a36565b909155505060085460009015610bd557600954600854610bc69087611a1f565b610bd09190611a49565b610bd7565b845b33600090815260076020526040812080549293508392909190610bfb908490611a36565b925050819055508060086000828254610c149190611a36565b925050819055508460096000828254610c2d9190611a36565b9091555050604080518681526020810183905233917fac1d76749e5447b7b16f5ab61447e1bd502f3bb4807af3b28e620d1700a6ee45910161074c565b80600003610c8b57604051631f2a200560e01b815260040160405180910390fd5b33600090815260076020526040902054811115610cbb57604051631e9acf1760e31b815260040160405180910390fd5b600060085460095483610cce9190611a1f565b610cd89190611a49565b600c5490915060ff16610d4657600854600354610cf59084611a1f565b610cff9190611a49565b60036000828254610d109190611a9f565b9091555050600854600454610d259084611a1f565b610d2f9190611a49565b60046000828254610d409190611a9f565b90915550505b3360009081526007602052604081208054849290610d65908490611a9f565b925050819055508160086000828254610d7e9190611a9f565b925050819055508060096000828254610d979190611a9f565b909155505060405163a9059cbb60e01b8152336004820152602481018290527f00000000000000000000000000000000000000000000000000000000000000006001600160a01b03169063a9059cbb906044016020604051808303816000875af1158015610e09573d6000803e3d6000fd5b505050506040513d601f19601f82011682018060405250810190610e2d91906119ec565b50604080518381526020810183905233917f96cd817c6329656790ef8fba7675405193677d39619571282f5e21f3a98cd059910160405180910390a25050565b6000610e7983836116cf565b90505b92915050565b600c5460ff16610ea55760405163174b639360e11b815260040160405180910390fd5b600c54600090610100900460ff1615610f1957503360009081526005602052604081205490819003610eea576040516304c4857b60e51b815260040160405180910390fd5b336000908152600560205260408120819055600a8054839290610f0e908490611a9f565b90915550610f759050565b503360009081526006602052604081205490819003610f4b576040516304c4857b60e51b815260040160405180910390fd5b336000908152600660205260408120819055600b8054839290610f6f908490611a9f565b90915550505b8060096000828254610f879190611a9f565b909155505060405163a9059cbb60e01b8152336004820152602481018290527f00000000000000000000000000000000000000000000000000000000000000006001600160a01b03169063a9059cbb906044016020604051808303816000875af1158015610ff9573d6000803e3d6000fd5b505050506040513d601f19601f8201168201806040525081019061101d91906119ec565b50604080518281526020810183905233917ff3a670cd3af7d64b488926880889d08a8585a138ff455227af6737339a1ec262910160405180910390a250565b6000610e798383611748565b600c5460009060ff16156110ad57600c5460ff6101009091041615158215151461109357600061109d565b670de0b6b3a76400005b67ffffffffffffffff1692915050565b60006004546003546110bf9190611a36565b9050806000036110d957506706f05b59d3b2000092915050565b826111045780600354670de0b6b3a76400006110f59190611a1f565b6110ff9190611a49565b611125565b80600454670de0b6b3a764000061111b9190611a1f565b6111259190611a49565b9392505050565b600c5460ff16156111505760405163aa43cb2d60e01b815260040160405180910390fd5b8160000361117157604051631f2a200560e01b815260040160405180910390fd5b82156111ac57336000908152600560205260409020548211156111a757604051631e9acf1760e31b815260040160405180910390fd5b6111dc565b336000908152600660205260409020548211156111dc57604051631e9acf1760e31b815260040160405180910390fd5b60006111e88484611748565b90508181101561120b57604051638199f5f360e01b815260040160405180910390fd5b83156112815780836003546112209190611a36565b61122a9190611a9f565b60035560045461123b908290611a9f565b600455336000908152600560205260408120805485929061125d908490611a9f565b9250508190555082600a60008282546112769190611a9f565b909155506112ed9050565b8060035461128f9190611a9f565b60035560045481906112a2908590611a36565b6112ac9190611a9f565b60045533600090815260066020526040812080548592906112ce908490611a9f565b9250508190555082600b60008282546112e79190611a9f565b90915550505b80600960008282546112ff9190611a9f565b909155505060405163a9059cbb60e01b8152336004820152602481018290527f00000000000000000000000000000000000000000000000000000000000000006001600160a01b03169063a9059cbb906044016020604051808303816000875af1158015611371573d6000803e3d6000fd5b505050506040513d601f19601f8201168201806040525081019061139591906119ec565b506040805185151581526020810185905290810182905233907ff79805601154c41acb99b86b2052e73eacc44e0f3ebfbf0d895995084be183d09060600160405180910390a250505050565b600180546109de90611a6b565b6000336001600160a01b037f0000000000000000000000000000000000000000000000000000000000000000161461143957604051631966391b60e11b815260040160405180910390fd5b600c5460ff161561145d5760405163aa43cb2d60e01b815260040160405180910390fd5b600a5415158061146e5750600b5415155b1561148c5760405163ce76116760e01b815260040160405180910390fd5b6001600160a01b037f00000000000000000000000000000000000000000000000000000000000000001660009081526007602052604090205460085481146114e757604051631370be6360e11b815260040160405180910390fd5b60098054600c805461ffff191660011790556000600381905560048190559182905560088290556001600160a01b037f000000000000000000000000000000000000000000000000000000000000000016825260076020526040822091909155915081156116685760405163a9059cbb60e01b81526001600160a01b037f000000000000000000000000000000000000000000000000000000000000000081166004830152602482018490527f0000000000000000000000000000000000000000000000000000000000000000169063a9059cbb906044016020604051808303816000875af11580156115de573d6000803e3d6000fd5b505050506040513d601f19601f8201168201806040525081019061160291906119ec565b5060408051828152602081018490526001600160a01b037f000000000000000000000000000000000000000000000000000000000000000016917f96cd817c6329656790ef8fba7675405193677d39619571282f5e21f3a98cd059910160405180910390a25b7f00000000000000000000000000000000000000000000000000000000000000006001600160a01b03167f202e187e90a2396d8616dbc4f163bb1d06668b732d5f9858f5589db0f9985edb836040516116c391815260200190565b60405180910390a25090565b6000806004546003546116e29190611a1f565b9050831561172257826004546116f89190611a36565b6117029082611a49565b836003546117109190611a36565b61171a9190611a9f565b915050610e7c565b826003546117309190611a36565b61173a9082611a49565b836004546117109190611a36565b600080836117585760045461175c565b6003545b905060008461176d57600354611771565b6004545b90506000816117808685611a36565b61178a9190611a36565b905060008561179a846004611a1f565b6117a49190611a1f565b90506000816117b38480611a1f565b6117bd9190611a9f565b905060006117ca826117ef565b905060026117d88286611a9f565b6117e29190611a49565b9998505050505050505050565b60008160000361180157506000919050565b508060006002611812836001611a36565b61181c9190611a49565b90505b81811015611852579050806002816118378186611a49565b6118419190611a36565b61184b9190611a49565b905061181f565b50919050565b801515811461186657600080fd5b50565b60006020828403121561187b57600080fd5b813561112581611858565b60008060006060848603121561189b57600080fd5b83356118a681611858565b95602085013595506040909401359392505050565b6000815180845260005b818110156118e1576020818501810151868301820152016118c5565b506000602082860101526020601f19601f83011685010191505092915050565b60006101408083526119158184018e6118bb565b90508281036020840152611929818d6118bb565b604084019b909b5250509615156060880152941515608087015260a086019390935260c085019190915260e08401526101008301526101209091015292915050565b602081526000610e7960208301846118bb565b60006020828403121561199057600080fd5b5035919050565b600080604083850312156119aa57600080fd5b82356119b581611858565b946020939093013593505050565b6000602082840312156119d557600080fd5b81356001600160a01b038116811461112557600080fd5b6000602082840312156119fe57600080fd5b815161112581611858565b634e487b7160e01b600052601160045260246000fd5b8082028115828204841417610e7c57610e7c611a09565b80820180821115610e7c57610e7c611a09565b600082611a6657634e487b7160e01b600052601260045260246000fd5b500490565b600181811c90821680611a7f57607f821691505b60208210810361185257634e487b7160e01b600052602260045260246000fd5b81810381811115610e7c57610e7c611a0956fea2646970667358221220beaa4a92e7b3300fcd7de68b5cba7777a810373f323deb1b36a7822657cae5c664736f6c63430008140033d3065a24ad9e7725d223007135762d2902038999e3e5829146654498a58d9795a2646970667358221220340fef449595a67f01a18fbf466cf1eaa02a741aeecc7d00822d6d18f085eea964736f6c63430008140033","linkReferences":{}},"methodIdentifiers":{"DEFAULT_ADMIN_ROLE()":"a217fddf","MARKET_CREATOR_ROLE()":"ae42820c","allMarkets(uint256)":"52d84d1e","createMarket(string,string,uint256,uint256,address)":"2db0521f","deleteMarket(address)":"d960e94a","getMarketCount()":"fd69f3c2","getMarketInfo(address)":"0cf85bcc","getMarkets(uint256,uint256)":"80968d48","getRoleAdmin(bytes32)":"248a9ca3","grantMarketCreator(address)":"b06ea2eb","grantRole(bytes32,address)":"2f2ff15d","hasRole(bytes32,address)":"91d14854","isMarket(address)":"6ec934da","marketInfo(address)":"c4351386","priceRouter()":"d7d4bf45","removeMarket(address)":"db913236","renounceRole(bytes32,address)":"36568abe","revokeMarketCreator(address)":"fc163901","revokeRole(bytes32,address)":"d547741f","setPriceRouter(address)":"88005bdc","supportsInterface(bytes4)":"01ffc9a7","usdc()":"3e413bee"},"id":26}