{"abi":[{"type":"constructor","inputs":[{"name":"_collateral","type":"address","internalType":"address"},{"name":"_priceRouter","type":"address","internalType":"address"}],"stateMutability":"nonpayable"},{"type":"function","name":"DEFAULT_ADMIN_ROLE","inputs":[],"outputs":[{"name":"","type":"bytes32","internalType":"bytes32"}],"stateMutability":"view"},{"type":"function","name":"MARKET_CREATOR_ROLE","inputs":[],"outputs":[{"name":"","type":"bytes32","internalType":"bytes32"}],"stateMutability":"view"},{"type":"function","name":"allMarkets","inputs":[{"name":"","type":"uint256","internalType":"uint256"}],"outputs":[{"name":"","type":"address","internalType":"address"}],"stateMutability":"view"},{"type":"function","name":"collateral","inputs":[],"outputs":[{"name":"","type":"address","internalType":"contract IERC20"}],"stateMutability":"view"},{"type":"function","name":"createMarket","inputs":[{"name":"question","type":"string","internalType":"string"},{"name":"category","type":"string","internalType":"string"},{"name":"resolutionDeadline","type":"uint256","internalType":"uint256"},{"name":"initialLiquidity","type":"uint256","internalType":"uint256"},{"name":"priceFeed","type":"address","internalType":"address"}],"outputs":[{"name":"market","type":"address","internalType":"address"}],"stateMutability":"nonpayable"},{"type":"function","name":"deleteMarket","inputs":[{"name":"market","type":"address","internalType":"address"}],"outputs":[],"stateMutability":"nonpayable"},{"type":"function","name":"getMarketCount","inputs":[],"outputs":[{"name":"","type":"uint256","internalType":"uint256"}],"stateMutability":"view"},{"type":"function","name":"getMarketInfo","inputs":[{"name":"market","type":"address","internalType":"address"}],"outputs":[{"name":"","type":"tuple","internalType":"struct MarketFactory.MarketInfo","components":[{"name":"question","type":"string","internalType":"string"},{"name":"category","type":"string","internalType":"string"},{"name":"createdAt","type":"uint256","internalType":"uint256"},{"name":"resolutionDeadline","type":"uint256","internalType":"uint256"},{"name":"priceFeed","type":"address","internalType":"address"}]}],"stateMutability":"view"},{"type":"function","name":"getMarkets","inputs":[{"name":"offset","type":"uint256","internalType":"uint256"},{"name":"limit","type":"uint256","internalType":"uint256"}],"outputs":[{"name":"markets","type":"address[]","internalType":"address[]"}],"stateMutability":"view"},{"type":"function","name":"getRoleAdmin","inputs":[{"name":"role","type":"bytes32","internalType":"bytes32"}],"outputs":[{"name":"","type":"bytes32","internalType":"bytes32"}],"stateMutability":"view"},{"type":"function","name":"grantMarketCreator","inputs":[{"name":"user","type":"address","internalType":"address"}],"outputs":[],"stateMutability":"nonpayable"},{"type":"function","name":"grantRole","inputs":[{"name":"role","type":"bytes32","internalType":"bytes32"},{"name":"account","type":"address","internalType":"address"}],"outputs":[],"stateMutability":"nonpayable"},{"type":"function","name":"hasRole","inputs":[{"name":"role","type":"bytes32","internalType":"bytes32"},{"name":"account","type":"address","internalType":"address"}],"outputs":[{"name":"","type":"bool","internalType":"bool"}],"stateMutability":"view"},{"type":"function","name":"isMarket","inputs":[{"name":"","type":"address","internalType":"address"}],"outputs":[{"name":"","type":"bool","internalType":"bool"}],"stateMutability":"view"},{"type":"function","name":"marketInfo","inputs":[{"name":"","type":"address","internalType":"address"}],"outputs":[{"name":"question","type":"string","internalType":"string"},{"name":"category","type":"string","internalType":"string"},{"name":"createdAt","type":"uint256","internalType":"uint256"},{"name":"resolutionDeadline","type":"uint256","internalType":"uint256"},{"name":"priceFeed","type":"address","internalType":"address"}],"stateMutability":"view"},{"type":"function","name":"priceRouter","inputs":[],"outputs":[{"name":"","type":"address","internalType":"contract PriceRouter"}],"stateMutability":"view"},{"type":"function","name":"removeMarket","inputs":[{"name":"market","type":"address","internalType":"address"}],"outputs":[],"stateMutability":"nonpayable"},{"type":"function","name":"renounceRole","inputs":[{"name":"role","type":"bytes32","internalType":"bytes32"},{"name":"callerConfirmation","type":"address","internalType":"address"}],"outputs":[],"stateMutability":"nonpayable"},{"type":"function","name":"revokeMarketCreator","inputs":[{"name":"user","type":"address","internalType":"address"}],"outputs":[],"stateMutability":"nonpayable"},{"type":"function","name":"revokeRole","inputs":[{"name":"role","type":"bytes32","internalType":"bytes32"},{"name":"account","type":"address","internalType":"address"}],"outputs":[],"stateMutability":"nonpayable"},{"type":"function","name":"setPriceRouter","inputs":[{"name":"newRouter","type":"address","internalType":"address"}],"outputs":[],"stateMutability":"nonpayable"},{"type":"function","name":"supportsInterface","inputs":[{"name":"interfaceId","type":"bytes4","internalType":"bytes4"}],"outputs":[{"name":"","type":"bool","internalType":"bool"}],"stateMutability":"view"},{"type":"event","name":"MarketCreated","inputs":[{"name":"market","type":"address","indexed":true,"internalType":"address"},{"name":"question","type":"string","indexed":false,"internalType":"string"},{"name":"category","type":"string","indexed":false,"internalType":"string"},{"name":"resolutionDeadline","type":"uint256","indexed":false,"internalType":"uint256"},{"name":"priceFeed","type":"address","indexed":true,"internalType":"address"},{"name":"creator","type":"address","indexed":true,"internalType":"address"}],"anonymous":false},{"type":"event","name":"MarketDeleted","inputs":[{"name":"market","type":"address","indexed":true,"internalType":"address"},{"name":"deletedBy","type":"address","indexed":true,"internalType":"address"},{"name":"collateralRefunded","type":"uint256","indexed":false,"internalType":"uint256"}],"anonymous":false},{"type":"event","name":"MarketRemoved","inputs":[{"name":"market","type":"address","indexed":true,"internalType":"address"},{"name":"removedBy","type":"address","indexed":true,"internalType":"address"}],"anonymous":false},{"type":"event","name":"RoleAdminChanged","inputs":[{"name":"role","type":"bytes32","indexed":true,"internalType":"bytes32"},{"name":"previousAdminRole","type":"bytes32","indexed":true,"internalType":"bytes32"},{"name":"newAdminRole","type":"bytes32","indexed":true,"internalType":"bytes32"}],"anonymous":false},{"type":"event","name":"RoleGranted","inputs":[{"name":"role","type":"bytes32","indexed":true,"internalType":"bytes32"},{"name":"account","type":"address","indexed":true,"internalType":"address"},{"name":"sender","type":"address","indexed":true,"internalType":"address"}],"anonymous":false},{"type":"event","name":"RoleRevoked","inputs":[{"name":"role","type":"bytes32","indexed":true,"internalType":"bytes32"},{"name":"account","type":"address","indexed":true,"internalType":"address"},{"name":"sender","type":"address","indexed":true,"internalType":"address"}],"anonymous":false},{"type":"event","name":"RouterUpdated","inputs":[{"name":"oldRouter","type":"address","indexed":true,"internalType":"address"},{"name":"newRouter","type":"address","indexed":true,"internalType":"address"}],"anonymous":false},{"type":"error","name":"AccessControlBadConfirmation","inputs":[]},{"type":"error","name":"AccessControlUnauthorizedAccount","inputs":[{"name":"account","type":"address","internalType":"address"},{"name":"neededRole","type":"bytes32","internalType":"bytes32"}]},{"type":"error","name":"ERC20TransferFailed","inputs":[]},{"type":"error","name":"InvalidDeadline","inputs":[]},{"type":"error","name":"UnknownMarket","inputs":[]},{"type":"error","name":"ZeroLiquidity","inputs":[]}],"bytecode":{"object":"0x60a06040523480156200001157600080fd5b5060405162003c3438038062003c34833981016040819052620000349162000168565b6001600160a01b03828116608052600180546001600160a01b031916918316919091179055620000666000336200009c565b50620000937fd3065a24ad9e7725d223007135762d2902038999e3e5829146654498a58d9795336200009c565b505050620001a0565b6000828152602081815260408083206001600160a01b038516845290915281205460ff1662000141576000838152602081815260408083206001600160a01b03861684529091529020805460ff19166001179055620000f83390565b6001600160a01b0316826001600160a01b0316847f2f8788117e7eff1d82e926ec794901d17c78024a50270940304540a733656f0d60405160405180910390a450600162000145565b5060005b92915050565b80516001600160a01b03811681146200016357600080fd5b919050565b600080604083850312156200017c57600080fd5b62000187836200014b565b915062000197602084016200014b565b90509250929050565b608051613a63620001d16000396000818161036c01528181610656015281816106f101526107810152613a636000f3fe60806040523480156200001157600080fd5b50600436106200015d5760003560e01c8063a217fddf11620000c7578063d7d4bf451162000086578063d7d4bf451462000352578063d8dfeb451462000366578063d960e94a146200038e578063db91323614620003a5578063fc16390114620003bc578063fd69f3c214620003d357600080fd5b8063a217fddf14620002da578063ae42820c14620002e3578063b06ea2eb14620002fa578063c43513861462000311578063d547741f146200033b57600080fd5b806336568abe116200012057806336568abe146200023257806352d84d1e14620002495780636ec934da146200026057806380968d48146200028657806388005bdc14620002ac57806391d1485414620002c357600080fd5b806301ffc9a714620001625780630cf85bcc146200018e578063248a9ca314620001b45780632db0521f14620001e95780632f2ff15d1462000219575b600080fd5b62000179620001733660046200141e565b620003dc565b60405190151581526020015b60405180910390f35b620001a56200019f3660046200146e565b62000414565b604051620001859190620014d4565b620001da620001c536600462001544565b60009081526020819052604090206001015490565b60405190815260200162000185565b62000200620001fa366004620015aa565b620005d4565b6040516001600160a01b03909116815260200162000185565b620002306200022a36600462001646565b62000a9a565b005b620002306200024336600462001646565b62000ac9565b620002006200025a36600462001544565b62000b04565b62000179620002713660046200146e565b60046020526000908152604090205460ff1681565b6200029d6200029736600462001675565b62000b2f565b60405162000185919062001698565b62000230620002bd3660046200146e565b62000c60565b62000179620002d436600462001646565b62000cca565b620001da600081565b620001da60008051602062003a0e83398151915281565b620002306200030b3660046200146e565b62000cf3565b62000328620003223660046200146e565b62000d1b565b60405162000185959493929190620016e7565b620002306200034c36600462001646565b62000e74565b60015462000200906001600160a01b031681565b620002007f000000000000000000000000000000000000000000000000000000000000000081565b620002306200039f3660046200146e565b62000e9d565b62000230620003b63660046200146e565b62000f9f565b62000230620003cd3660046200146e565b62000ff1565b600254620001da565b60006001600160e01b03198216637965db0b60e01b14806200040e57506301ffc9a760e01b6001600160e01b03198316145b92915050565b620004506040518060a001604052806060815260200160608152602001600081526020016000815260200160006001600160a01b031681525090565b6001600160a01b03821660009081526003602052604090819020815160a08101909252805482908290620004849062001737565b80601f0160208091040260200160405190810160405280929190818152602001828054620004b29062001737565b8015620005035780601f10620004d75761010080835404028352916020019162000503565b820191906000526020600020905b815481529060010190602001808311620004e557829003601f168201915b505050505081526020016001820180546200051e9062001737565b80601f01602080910402602001604051908101604052809291908181526020018280546200054c9062001737565b80156200059d5780601f1062000571576101008083540402835291602001916200059d565b820191906000526020600020905b8154815290600101906020018083116200057f57829003601f168201915b505050918352505060028201546020820152600382015460408201526004909101546001600160a01b031660609091015292915050565b600060008051602062003a0e833981519152620005f18162001019565b836000036200061357604051630200e8a960e31b815260040160405180910390fd5b4285116200063457604051631da7447960e21b815260040160405180910390fd5b6040516323b872dd60e01b8152336004820152306024820152604481018590527f00000000000000000000000000000000000000000000000000000000000000006001600160a01b0316906323b872dd906064016020604051808303816000875af1158015620006a8573d6000803e3d6000fd5b505050506040513d601f19601f82011682018060405250810190620006ce919062001773565b620006ec57604051633c9fd93960e21b815260040160405180910390fd5b6000337f00000000000000000000000000000000000000000000000000000000000000008b8b8b8b8b8b6040516200072490620013bc565b62000737989796959493929190620017c0565b604051809103906000f08015801562000754573d6000803e3d6000fd5b5060405163a9059cbb60e01b81526001600160a01b038083166004830152602482018890529194508492507f00000000000000000000000000000000000000000000000000000000000000009091169063a9059cbb906044016020604051808303816000875af1158015620007cd573d6000803e3d6000fd5b505050506040513d601f19601f82011682018060405250810190620007f3919062001773565b6200081157604051633c9fd93960e21b815260040160405180910390fd5b60028054600180820183557f405787fa12a823e0f2b7631cc41b3ba8828b3321ca811111fa75cd3aa3bb5ace90910180546001600160a01b0319166001600160a01b0387169081179091556000908152600460205260409020805460ff191682179055905462000882919062001832565b6001600160a01b038416600090815260056020908152604091829020929092558051601f8c01839004909202820160c090810190915260a082018b815282918d908d9081908501838280828437600092019190915250505090825250604080516020601f8c018190048102820181019092528a815291810191908b908b9081908401838280828437600092018290525093855250504260208085019190915260408085018c90526001600160a01b03808b16606090960195909552938816835260039052502081518190620009589082620018b0565b50602082015160018201906200096f9082620018b0565b506040820151600282015560608201516003820155608090910151600490910180546001600160a01b0319166001600160a01b03928316179055841615801590620009c457506001546001600160a01b031615155b1562000a2e5760015460405163b435914360e01b81526001600160a01b03868116600483015285811660248301529091169063b435914390604401600060405180830381600087803b15801562000a1a57600080fd5b505af192505050801562000a2c575060015b505b336001600160a01b0316846001600160a01b0316846001600160a01b03167f27c1a8b2ec56a95bb35012e62c5277991b7ce6956a2e36e176a6600451cf6d018d8d8d8d8d60405162000a859594939291906200197d565b60405180910390a45050979650505050505050565b60008281526020819052604090206001015462000ab78162001019565b62000ac3838362001028565b50505050565b6001600160a01b038116331462000af35760405163334bd91960e11b815260040160405180910390fd5b62000aff8282620010c0565b505050565b6002818154811062000b1557600080fd5b6000918252602090912001546001600160a01b0316905081565b60025460609080841062000b545750506040805160008152602081019091526200040e565b600062000b628486620019bb565b90508181111562000b705750805b600062000b7e868362001832565b90508067ffffffffffffffff81111562000b9c5762000b9c62001848565b60405190808252806020026020018201604052801562000bc6578160200160208202803683370190505b50935060005b8181101562000c5657600262000be38289620019bb565b8154811062000bf65762000bf6620019d1565b9060005260206000200160009054906101000a90046001600160a01b031685828151811062000c295762000c29620019d1565b6001600160a01b03909216602092830291909101909101528062000c4d81620019e7565b91505062000bcc565b5050505092915050565b600062000c6d8162001019565b6001546040516001600160a01b038085169216907f02dc5c233404867c793b749c6d644beb2277536d18a7e7974d3f238e4c6f168490600090a350600180546001600160a01b0319166001600160a01b0392909216919091179055565b6000918252602082815260408084206001600160a01b0393909316845291905290205460ff1690565b600062000d008162001019565b62000aff60008051602062003a0e8339815191528362001028565b60036020526000908152604090208054819062000d389062001737565b80601f016020809104026020016040519081016040528092919081815260200182805462000d669062001737565b801562000db75780601f1062000d8b5761010080835404028352916020019162000db7565b820191906000526020600020905b81548152906001019060200180831162000d9957829003601f168201915b50505050509080600101805462000dce9062001737565b80601f016020809104026020016040519081016040528092919081815260200182805462000dfc9062001737565b801562000e4d5780601f1062000e215761010080835404028352916020019162000e4d565b820191906000526020600020905b81548152906001019060200180831162000e2f57829003601f168201915b5050505060028301546003840154600490940154929390929091506001600160a01b031685565b60008281526020819052604090206001015462000e918162001019565b62000ac38383620010c0565b600062000eaa8162001019565b6001600160a01b03821660009081526004602052604090205460ff1662000ee45760405163d8ac932560e01b815260040160405180910390fd5b6000826001600160a01b031663fbddfa586040518163ffffffff1660e01b81526004016020604051808303816000875af115801562000f27573d6000803e3d6000fd5b505050506040513d601f19601f8201168201806040525081019062000f4d919062001a03565b905062000f5a836200112f565b60405181815233906001600160a01b038516907f798d9741f9d017197ec8990f632da4053d3e58fd80c06127c3b97ce0d0666e979060200160405180910390a3505050565b600062000fac8162001019565b62000fb7826200112f565b60405133906001600160a01b038416907fe53458cf1e128fd9dd751ec85180c9b93f69b6b6add116d5238cb46f90268d6790600090a35050565b600062000ffe8162001019565b62000aff60008051602062003a0e83398151915283620010c0565b62001025813362001378565b50565b600062001036838362000cca565b620010b7576000838152602081815260408083206001600160a01b03861684529091529020805460ff191660011790556200106e3390565b6001600160a01b0316826001600160a01b0316847f2f8788117e7eff1d82e926ec794901d17c78024a50270940304540a733656f0d60405160405180910390a45060016200040e565b5060006200040e565b6000620010ce838362000cca565b15620010b7576000838152602081815260408083206001600160a01b0386168085529252808320805460ff1916905551339286917ff6391f5c32d9c69d2a47ea670b442974b53935d1edc7fd64eb21e047a839171b9190a45060016200040e565b6001600160a01b03811660009081526004602052604090205460ff16620011695760405163d8ac932560e01b815260040160405180910390fd5b6001600160a01b03808216600090815260036020908152604080832060040154600590925282205460025491909316929190620011a99060019062001832565b90508082146200123857600060028281548110620011cb57620011cb620019d1565b600091825260209091200154600280546001600160a01b039092169250829185908110620011fd57620011fd620019d1565b600091825260208083209190910180546001600160a01b0319166001600160a01b039485161790559290911681526005909152604090208290555b60028054806200124c576200124c62001a1d565b60008281526020808220830160001990810180546001600160a01b03191690559092019092556001600160a01b038616825260058152604080832083905560039091528120906200129e8282620013ca565b620012ae600183016000620013ca565b5060006002820181905560038201819055600491820180546001600160a01b03191690556001600160a01b03868116825260209290925260409020805460ff191690558316158015906200130c57506001546001600160a01b031615155b1562000ac357600154604051630ab5ab9360e41b81526001600160a01b0386811660048301529091169063ab5ab93090602401600060405180830381600087803b1580156200135a57600080fd5b505af19250505080156200136c575060015b1562000ac35750505050565b62001384828262000cca565b620013b85760405163e2517d3f60e01b81526001600160a01b03821660048201526024810183905260440160405180910390fd5b5050565b611fda8062001a3483390190565b508054620013d89062001737565b6000825580601f10620013e9575050565b601f0160209004906000526020600020908101906200102591905b808211156200141a576000815560010162001404565b5090565b6000602082840312156200143157600080fd5b81356001600160e01b0319811681146200144a57600080fd5b9392505050565b80356001600160a01b03811681146200146957600080fd5b919050565b6000602082840312156200148157600080fd5b6200144a8262001451565b6000815180845260005b81811015620014b45760208185018101518683018201520162001496565b506000602082860101526020601f19601f83011685010191505092915050565b602081526000825160a06020840152620014f260c08401826200148c565b90506020840151601f198483030160408501526200151182826200148c565b915050604084015160608401526060840151608084015260018060a01b0360808501511660a08401528091505092915050565b6000602082840312156200155757600080fd5b5035919050565b60008083601f8401126200157157600080fd5b50813567ffffffffffffffff8111156200158a57600080fd5b602083019150836020828501011115620015a357600080fd5b9250929050565b600080600080600080600060a0888a031215620015c657600080fd5b873567ffffffffffffffff80821115620015df57600080fd5b620015ed8b838c016200155e565b909950975060208a01359150808211156200160757600080fd5b50620016168a828b016200155e565b9096509450506040880135925060608801359150620016386080890162001451565b905092959891949750929550565b600080604083850312156200165a57600080fd5b823591506200166c6020840162001451565b90509250929050565b600080604083850312156200168957600080fd5b50508035926020909101359150565b6020808252825182820181905260009190848201906040850190845b81811015620016db5783516001600160a01b031683529284019291840191600101620016b4565b50909695505050505050565b60a081526000620016fc60a08301886200148c565b82810360208401526200171081886200148c565b6040840196909652505060608101929092526001600160a01b031660809091015292915050565b600181811c908216806200174c57607f821691505b6020821081036200176d57634e487b7160e01b600052602260045260246000fd5b50919050565b6000602082840312156200178657600080fd5b815180151581146200144a57600080fd5b81835281816020850137506000828201602090810191909152601f909101601f19169091010190565b6001600160a01b0389811682528816602082015260c060408201819052600090620017ef908301888a62001797565b82810360608401526200180481878962001797565b6080840195909552505060a001529695505050505050565b634e487b7160e01b600052601160045260246000fd5b818103818111156200040e576200040e6200181c565b634e487b7160e01b600052604160045260246000fd5b601f82111562000aff57600081815260208120601f850160051c81016020861015620018875750805b601f850160051c820191505b81811015620018a85782815560010162001893565b505050505050565b815167ffffffffffffffff811115620018cd57620018cd62001848565b620018e581620018de845462001737565b846200185e565b602080601f8311600181146200191d5760008415620019045750858301515b600019600386901b1c1916600185901b178555620018a8565b600085815260208120601f198616915b828110156200194e578886015182559484019460019091019084016200192d565b50858210156200196d5787850151600019600388901b60f8161c191681555b5050505050600190811b01905550565b6060815260006200199360608301878962001797565b8281036020840152620019a881868862001797565b9150508260408301529695505050505050565b808201808211156200040e576200040e6200181c565b634e487b7160e01b600052603260045260246000fd5b600060018201620019fc57620019fc6200181c565b5060010190565b60006020828403121562001a1657600080fd5b5051919050565b634e487b7160e01b600052603160045260246000fdfe60e06040523480156200001157600080fd5b5060405162001fda38038062001fda833981016040819052620000349162000237565b60028110156200008a5760405162461bcd60e51b815260206004820152601660248201527f4d696e203220636f6c6c61746572616c20756e69747300000000000000000000604482015260640160405180910390fd5b6001600160a01b0380871660a0523360c05285166080526000620000af858262000368565b506001620000be848262000368565b506002828155600090620000d3908362000434565b60038190559050620000e6818362000457565b60045560098290556001600160a01b038716600081815260076020908152604091829020859055600885905581518581529081018590527fac1d76749e5447b7b16f5ab61447e1bd502f3bb4807af3b28e620d1700a6ee45910160405180910390a2505050505050506200047f565b80516001600160a01b03811681146200016d57600080fd5b919050565b634e487b7160e01b600052604160045260246000fd5b600082601f8301126200019a57600080fd5b81516001600160401b0380821115620001b757620001b762000172565b604051601f8301601f19908116603f01168101908282118183101715620001e257620001e262000172565b81604052838152602092508683858801011115620001ff57600080fd5b600091505b8382101562000223578582018301518183018401529082019062000204565b600093810190920192909252949350505050565b60008060008060008060c087890312156200025157600080fd5b6200025c8762000155565b95506200026c6020880162000155565b60408801519095506001600160401b03808211156200028a57600080fd5b620002988a838b0162000188565b95506060890151915080821115620002af57600080fd5b50620002be89828a0162000188565b9350506080870151915060a087015190509295509295509295565b600181811c90821680620002ee57607f821691505b6020821081036200030f57634e487b7160e01b600052602260045260246000fd5b50919050565b601f8211156200036357600081815260208120601f850160051c810160208610156200033e5750805b601f850160051c820191505b818110156200035f578281556001016200034a565b5050505b505050565b81516001600160401b0381111562000384576200038462000172565b6200039c81620003958454620002d9565b8462000315565b602080601f831160018114620003d45760008415620003bb5750858301515b600019600386901b1c1916600185901b1785556200035f565b600085815260208120601f198616915b828110156200040557888601518255948401946001909101908401620003e4565b5085821015620004245787850151600019600388901b60f8161c191681555b5050505050600190811b01905550565b6000826200045257634e487b7160e01b600052601260045260246000fd5b500490565b818103818111156200047957634e487b7160e01b600052601160045260246000fd5b92915050565b60805160a05160c051611ac962000511600039600081816103a201526113e20152600081816102f20152818161047a0152818161147d015281816114ff0152818161154d015281816116020152611651015260008181610247015281816103f20152818161059a01528181610af301528181610d9f01528181610f8f01528181611307015261157c0152611ac96000f3fe608060405234801561001057600080fd5b50600436106101da5760003560e01c8063b2670d7411610104578063d8dfeb45116100a2578063e245b5af11610071578063e245b5af14610439578063e88b997b1461044c578063ef430aa61461045f578063fbddfa581461046757600080fd5b8063d8dfeb45146103ed578063da1bcbbf14610414578063da3003a41461041d578063e124015b1461043057600080fd5b8063c109a6dc116100de578063c109a6dc1461037d578063c45a01551461039d578063cd2013e2146103c4578063d789760e146103e457600080fd5b8063b2670d741461035a578063b44f77c114610363578063be040fb01461037557600080fd5b80634ac8eb5f1161017c5780638da5cb5b1161014b5780638da5cb5b146102ed5780639c8f9f2314610314578063a89628b514610327578063aa0e6bc41461033a57600080fd5b80634ac8eb5f146102b157806351c6590a146102c8578063528f734f146102db57806372a9fa6e146102e457600080fd5b806323341a05116101b857806323341a05146102275780633e413bee146102455780633f6fa6551461027f5780633fad9ae01461029c57600080fd5b80630902f1ac146101df5780630bede3f8146101ff578063193099a814610214575b600080fd5b600354600454604080519283526020830191909152015b60405180910390f35b61021261020d36600461184a565b61046f565b005b610212610222366004611867565b610533565b61022f610788565b6040516101f69a999897969594939291906118e2565b7f00000000000000000000000000000000000000000000000000000000000000005b6040516001600160a01b0390911681526020016101f6565b600c5461028c9060ff1681565b60405190151581526020016101f6565b6102a46109fe565b6040516101f6919061194c565b6102ba60095481565b6040519081526020016101f6565b6102126102d636600461195f565b610a8c565b6102ba60025481565b6102ba60045481565b6102677f000000000000000000000000000000000000000000000000000000000000000081565b61021261032236600461195f565b610c97565b6102ba610335366004611978565b610e54565b6102ba6103483660046119a4565b60066020526000908152604090205481565b6102ba60035481565b600c5461028c90610100900460ff1681565b610212610e69565b6102ba61038b3660046119a4565b60076020526000908152604090205481565b6102677f000000000000000000000000000000000000000000000000000000000000000081565b6102ba6103d23660046119a4565b60056020526000908152604090205481565b6102ba60085481565b6102677f000000000000000000000000000000000000000000000000000000000000000081565b6102ba600a5481565b6102ba61042b366004611978565b611043565b6102ba600b5481565b6102ba61044736600461184a565b61104f565b61021261045a366004611867565b611113565b6102a46113c8565b6102ba6113d5565b336001600160a01b037f000000000000000000000000000000000000000000000000000000000000000016146104b8576040516330cd747160e01b815260040160405180910390fd5b600c5460ff16156104dc5760405163aa43cb2d60e01b815260040160405180910390fd5b600c80548215156101000261ffff199091161760011790556040517ff528f3b02f5c2503827fc677c9d0cb54ffbf11ed32cb659f73243b70dea7cf0e9061052890831515815260200190565b60405180910390a150565b600c5460ff16156105575760405163aa43cb2d60e01b815260040160405180910390fd5b8160000361057857604051631f2a200560e01b815260040160405180910390fd5b6040516323b872dd60e01b8152336004820152306024820152604481018390527f00000000000000000000000000000000000000000000000000000000000000006001600160a01b0316906323b872dd906064016020604051808303816000875af11580156105eb573d6000803e3d6000fd5b505050506040513d601f19601f8201168201806040525081019061060f91906119cd565b50600061061c84846116b6565b90508181101561063f57604051638199f5f360e01b815260040160405180910390fd5b60006004546003546106519190611a00565b905084156106c1576000846004546106699190611a17565b90506106758183611a2a565b6003556004819055336000908152600560205260408120805485929061069c908490611a17565b9250508190555082600a60008282546106b59190611a17565b90915550610724915050565b6000846003546106d19190611a17565b90506106dd8183611a2a565b60045560038190553360009081526006602052604081208054859290610704908490611a17565b9250508190555082600b600082825461071d9190611a17565b9091555050505b83600960008282546107369190611a17565b90915550506040805186151581526020810186905290810183905233907f07bad9821f7e23256f9909e371407caf7d0d7b38fa659f7158d8c72f4b6316c3906060015b60405180910390a25050505050565b606080600080600080600080600080600c60009054906101000a900460ff161561080e57600c54610100900460ff166107c25760006107cc565b670de0b6b3a76400005b67ffffffffffffffff169150600c60019054906101000a900460ff166107fa57670de0b6b3a76400006107fd565b60005b67ffffffffffffffff169050610894565b60006004546003546108209190611a17565b9050801561084e5780600454670de0b6b3a764000061083f9190611a00565b6108499190611a2a565b610858565b6706f05b59d3b200005b925080156108865780600354670de0b6b3a76400006108779190611a00565b6108819190611a2a565b610890565b6706f05b59d3b200005b9150505b60006001600254600c60009054906101000a900460ff16600c60019054906101000a900460ff1660035460045460095489898980546108d290611a4c565b80601f01602080910402602001604051908101604052809291908181526020018280546108fe90611a4c565b801561094b5780601f106109205761010080835404028352916020019161094b565b820191906000526020600020905b81548152906001019060200180831161092e57829003601f168201915b5050505050995088805461095e90611a4c565b80601f016020809104026020016040519081016040528092919081815260200182805461098a90611a4c565b80156109d75780601f106109ac576101008083540402835291602001916109d7565b820191906000526020600020905b8154815290600101906020018083116109ba57829003601f168201915b50505050509850995099509950995099509950995099509950995090919293949596979899565b60008054610a0b90611a4c565b80601f0160208091040260200160405190810160405280929190818152602001828054610a3790611a4c565b8015610a845780601f10610a5957610100808354040283529160200191610a84565b820191906000526020600020905b815481529060010190602001808311610a6757829003601f168201915b505050505081565b600c5460ff1615610ab05760405163aa43cb2d60e01b815260040160405180910390fd5b80600003610ad157604051631f2a200560e01b815260040160405180910390fd5b6040516323b872dd60e01b8152336004820152306024820152604481018290527f00000000000000000000000000000000000000000000000000000000000000006001600160a01b0316906323b872dd906064016020604051808303816000875af1158015610b44573d6000803e3d6000fd5b505050506040513d601f19601f82011682018060405250810190610b6891906119cd565b506000600454600354610b7b9190611a17565b905060008160035484610b8e9190611a00565b610b989190611a2a565b90506000610ba68285611a80565b90508160036000828254610bba9190611a17565b925050819055508060046000828254610bd39190611a17565b909155505060085460009015610c0257600954600854610bf39087611a00565b610bfd9190611a2a565b610c04565b845b33600090815260076020526040812080549293508392909190610c28908490611a17565b925050819055508060086000828254610c419190611a17565b925050819055508460096000828254610c5a9190611a17565b9091555050604080518681526020810183905233917fac1d76749e5447b7b16f5ab61447e1bd502f3bb4807af3b28e620d1700a6ee459101610779565b600c5460ff16610cba576040516347a73ad960e11b815260040160405180910390fd5b80600003610cdb57604051631f2a200560e01b815260040160405180910390fd5b33600090815260076020526040902054811115610d0b57604051631e9acf1760e31b815260040160405180910390fd5b600060085460095483610d1e9190611a00565b610d289190611a2a565b33600090815260076020526040812080549293508492909190610d4c908490611a80565b925050819055508160086000828254610d659190611a80565b925050819055508060096000828254610d7e9190611a80565b909155505060405163a9059cbb60e01b8152336004820152602481018290527f00000000000000000000000000000000000000000000000000000000000000006001600160a01b03169063a9059cbb906044016020604051808303816000875af1158015610df0573d6000803e3d6000fd5b505050506040513d601f19601f82011682018060405250810190610e1491906119cd565b50604080518381526020810183905233917f96cd817c6329656790ef8fba7675405193677d39619571282f5e21f3a98cd059910160405180910390a25050565b6000610e6083836116b6565b90505b92915050565b600c5460ff16610e8c5760405163174b639360e11b815260040160405180910390fd5b600c54600090610100900460ff1615610f0057503360009081526005602052604081205490819003610ed1576040516304c4857b60e51b815260040160405180910390fd5b336000908152600560205260408120819055600a8054839290610ef5908490611a80565b90915550610f5c9050565b503360009081526006602052604081205490819003610f32576040516304c4857b60e51b815260040160405180910390fd5b336000908152600660205260408120819055600b8054839290610f56908490611a80565b90915550505b8060096000828254610f6e9190611a80565b909155505060405163a9059cbb60e01b8152336004820152602481018290527f00000000000000000000000000000000000000000000000000000000000000006001600160a01b03169063a9059cbb906044016020604051808303816000875af1158015610fe0573d6000803e3d6000fd5b505050506040513d601f19601f8201168201806040525081019061100491906119cd565b50604080518281526020810183905233917ff3a670cd3af7d64b488926880889d08a8585a138ff455227af6737339a1ec262910160405180910390a250565b6000610e60838361172f565b600c5460009060ff161561109457600c5460ff6101009091041615158215151461107a576000611084565b670de0b6b3a76400005b67ffffffffffffffff1692915050565b60006004546003546110a69190611a17565b9050806000036110c057506706f05b59d3b2000092915050565b826110eb5780600354670de0b6b3a76400006110dc9190611a00565b6110e69190611a2a565b61110c565b80600454670de0b6b3a76400006111029190611a00565b61110c9190611a2a565b9392505050565b600c5460ff16156111375760405163aa43cb2d60e01b815260040160405180910390fd5b8160000361115857604051631f2a200560e01b815260040160405180910390fd5b8215611193573360009081526005602052604090205482111561118e57604051631e9acf1760e31b815260040160405180910390fd5b6111c3565b336000908152600660205260409020548211156111c357604051631e9acf1760e31b815260040160405180910390fd5b60006111cf848461172f565b9050818110156111f257604051638199f5f360e01b815260040160405180910390fd5b83156112685780836003546112079190611a17565b6112119190611a80565b600355600454611222908290611a80565b6004553360009081526005602052604081208054859290611244908490611a80565b9250508190555082600a600082825461125d9190611a80565b909155506112d49050565b806003546112769190611a80565b6003556004548190611289908590611a17565b6112939190611a80565b60045533600090815260066020526040812080548592906112b5908490611a80565b9250508190555082600b60008282546112ce9190611a80565b90915550505b80600960008282546112e69190611a80565b909155505060405163a9059cbb60e01b8152336004820152602481018290527f00000000000000000000000000000000000000000000000000000000000000006001600160a01b03169063a9059cbb906044016020604051808303816000875af1158015611358573d6000803e3d6000fd5b505050506040513d601f19601f8201168201806040525081019061137c91906119cd565b506040805185151581526020810185905290810182905233907ff79805601154c41acb99b86b2052e73eacc44e0f3ebfbf0d895995084be183d09060600160405180910390a250505050565b60018054610a0b90611a4c565b6000336001600160a01b037f0000000000000000000000000000000000000000000000000000000000000000161461142057604051631966391b60e11b815260040160405180910390fd5b600c5460ff16156114445760405163aa43cb2d60e01b815260040160405180910390fd5b600a541515806114555750600b5415155b156114735760405163ce76116760e01b815260040160405180910390fd5b6001600160a01b037f00000000000000000000000000000000000000000000000000000000000000001660009081526007602052604090205460085481146114ce57604051631370be6360e11b815260040160405180910390fd5b60098054600c805461ffff191660011790556000600381905560048190559182905560088290556001600160a01b037f0000000000000000000000000000000000000000000000000000000000000000168252600760205260408220919091559150811561164f5760405163a9059cbb60e01b81526001600160a01b037f000000000000000000000000000000000000000000000000000000000000000081166004830152602482018490527f0000000000000000000000000000000000000000000000000000000000000000169063a9059cbb906044016020604051808303816000875af11580156115c5573d6000803e3d6000fd5b505050506040513d601f19601f820116820180604052508101906115e991906119cd565b5060408051828152602081018490526001600160a01b037f000000000000000000000000000000000000000000000000000000000000000016917f96cd817c6329656790ef8fba7675405193677d39619571282f5e21f3a98cd059910160405180910390a25b7f00000000000000000000000000000000000000000000000000000000000000006001600160a01b03167f202e187e90a2396d8616dbc4f163bb1d06668b732d5f9858f5589db0f9985edb836040516116aa91815260200190565b60405180910390a25090565b6000806004546003546116c99190611a00565b9050831561170957826004546116df9190611a17565b6116e99082611a2a565b836003546116f79190611a17565b6117019190611a80565b915050610e63565b826003546117179190611a17565b6117219082611a2a565b836004546116f79190611a17565b6000808361173f57600454611743565b6003545b905060008461175457600354611758565b6004545b90506000816117678685611a17565b6117719190611a17565b9050600085611781846004611a00565b61178b9190611a00565b905060006117ac8261179d8580611a00565b6117a79190611a80565b6117d0565b905060026117ba8285611a80565b6117c49190611a2a565b98975050505050505050565b6000816000036117e257506000919050565b5080600060026117f3836001611a17565b6117fd9190611a2a565b90505b81811015611833579050806002816118188186611a2a565b6118229190611a17565b61182c9190611a2a565b9050611800565b50919050565b801515811461184757600080fd5b50565b60006020828403121561185c57600080fd5b813561110c81611839565b60008060006060848603121561187c57600080fd5b833561188781611839565b95602085013595506040909401359392505050565b6000815180845260005b818110156118c2576020818501810151868301820152016118a6565b506000602082860101526020601f19601f83011685010191505092915050565b60006101408083526118f68184018e61189c565b9050828103602084015261190a818d61189c565b604084019b909b5250509615156060880152941515608087015260a086019390935260c085019190915260e08401526101008301526101209091015292915050565b602081526000610e60602083018461189c565b60006020828403121561197157600080fd5b5035919050565b6000806040838503121561198b57600080fd5b823561199681611839565b946020939093013593505050565b6000602082840312156119b657600080fd5b81356001600160a01b038116811461110c57600080fd5b6000602082840312156119df57600080fd5b815161110c81611839565b634e487b7160e01b600052601160045260246000fd5b8082028115828204841417610e6357610e636119ea565b80820180821115610e6357610e636119ea565b600082611a4757634e487b7160e01b600052601260045260246000fd5b500490565b600181811c90821680611a6057607f821691505b60208210810361183357634e487b7160e01b600052602260045260246000fd5b81810381811115610e6357610e636119ea56fea2646970667358221220d6d0026bb5b39ef9f203087f101ad1cda845f263051b6d85dbea0fbcc63b77fe64736f6c63430008140033d3065a24ad9e7725d223007135762d2902038999e3e5829146654498a58d9795a2646970667358221220e3be298becbf200b2b067acd91d0307fd2a9171beb14d30f1539f26930f6eef564736f6c63430008140033","linkReferences":{}},"methodIdentifiers":{"DEFAULT_ADMIN_ROLE()":"a217fddf","MARKET_CREATOR_ROLE()":"ae42820c","allMarkets(uint256)":"52d84d1e","collateral()":"d8dfeb45","createMarket(string,string,uint256,uint256,address)":"2db0521f","deleteMarket(address)":"d960e94a","getMarketCount()":"fd69f3c2","getMarketInfo(address)":"0cf85bcc","getMarkets(uint256,uint256)":"80968d48","getRoleAdmin(bytes32)":"248a9ca3","grantMarketCreator(address)":"b06ea2eb","grantRole(bytes32,address)":"2f2ff15d","hasRole(bytes32,address)":"91d14854","isMarket(address)":"6ec934da","marketInfo(address)":"c4351386","priceRouter()":"d7d4bf45","removeMarket(address)":"db913236","renounceRole(bytes32,address)":"36568abe","revokeMarketCreator(address)":"fc163901","revokeRole(bytes32,address)":"d547741f","setPriceRouter(address)":"88005bdc","supportsInterface(bytes4)":"01ffc9a7"},"id":31}