{"abi":[{"type":"constructor","inputs":[{"name":"admin","type":"address","internalType":"address"}],"stateMutability":"nonpayable"},{"type":"function","name":"DEFAULT_ADMIN_ROLE","inputs":[],"outputs":[{"name":"","type":"bytes32","internalType":"bytes32"}],"stateMutability":"view"},{"type":"function","name":"MARKET_CREATOR_ROLE","inputs":[],"outputs":[{"name":"","type":"bytes32","internalType":"bytes32"}],"stateMutability":"view"},{"type":"function","name":"createMarket","inputs":[{"name":"question","type":"string","internalType":"string"}],"outputs":[{"name":"id","type":"uint256","internalType":"uint256"}],"stateMutability":"nonpayable"},{"type":"function","name":"getMarket","inputs":[{"name":"id","type":"uint256","internalType":"uint256"}],"outputs":[{"name":"","type":"tuple","internalType":"struct PermissionedMarketFactory.Market","components":[{"name":"id","type":"uint256","internalType":"uint256"},{"name":"question","type":"string","internalType":"string"},{"name":"creator","type":"address","internalType":"address"},{"name":"createdAt","type":"uint256","internalType":"uint256"}]}],"stateMutability":"view"},{"type":"function","name":"getMarketCount","inputs":[],"outputs":[{"name":"","type":"uint256","internalType":"uint256"}],"stateMutability":"view"},{"type":"function","name":"getRoleAdmin","inputs":[{"name":"role","type":"bytes32","internalType":"bytes32"}],"outputs":[{"name":"","type":"bytes32","internalType":"bytes32"}],"stateMutability":"view"},{"type":"function","name":"grantMarketCreator","inputs":[{"name":"user","type":"address","internalType":"address"}],"outputs":[],"stateMutability":"nonpayable"},{"type":"function","name":"grantRole","inputs":[{"name":"role","type":"bytes32","internalType":"bytes32"},{"name":"account","type":"address","internalType":"address"}],"outputs":[],"stateMutability":"nonpayable"},{"type":"function","name":"hasRole","inputs":[{"name":"role","type":"bytes32","internalType":"bytes32"},{"name":"account","type":"address","internalType":"address"}],"outputs":[{"name":"","type":"bool","internalType":"bool"}],"stateMutability":"view"},{"type":"function","name":"markets","inputs":[{"name":"","type":"uint256","internalType":"uint256"}],"outputs":[{"name":"id","type":"uint256","internalType":"uint256"},{"name":"question","type":"string","internalType":"string"},{"name":"creator","type":"address","internalType":"address"},{"name":"createdAt","type":"uint256","internalType":"uint256"}],"stateMutability":"view"},{"type":"function","name":"renounceRole","inputs":[{"name":"role","type":"bytes32","internalType":"bytes32"},{"name":"callerConfirmation","type":"address","internalType":"address"}],"outputs":[],"stateMutability":"nonpayable"},{"type":"function","name":"revokeMarketCreator","inputs":[{"name":"user","type":"address","internalType":"address"}],"outputs":[],"stateMutability":"nonpayable"},{"type":"function","name":"revokeRole","inputs":[{"name":"role","type":"bytes32","internalType":"bytes32"},{"name":"account","type":"address","internalType":"address"}],"outputs":[],"stateMutability":"nonpayable"},{"type":"function","name":"supportsInterface","inputs":[{"name":"interfaceId","type":"bytes4","internalType":"bytes4"}],"outputs":[{"name":"","type":"bool","internalType":"bool"}],"stateMutability":"view"},{"type":"event","name":"MarketCreated","inputs":[{"name":"id","type":"uint256","indexed":true,"internalType":"uint256"},{"name":"question","type":"string","indexed":false,"internalType":"string"},{"name":"creator","type":"address","indexed":true,"internalType":"address"}],"anonymous":false},{"type":"event","name":"RoleAdminChanged","inputs":[{"name":"role","type":"bytes32","indexed":true,"internalType":"bytes32"},{"name":"previousAdminRole","type":"bytes32","indexed":true,"internalType":"bytes32"},{"name":"newAdminRole","type":"bytes32","indexed":true,"internalType":"bytes32"}],"anonymous":false},{"type":"event","name":"RoleGranted","inputs":[{"name":"role","type":"bytes32","indexed":true,"internalType":"bytes32"},{"name":"account","type":"address","indexed":true,"internalType":"address"},{"name":"sender","type":"address","indexed":true,"internalType":"address"}],"anonymous":false},{"type":"event","name":"RoleRevoked","inputs":[{"name":"role","type":"bytes32","indexed":true,"internalType":"bytes32"},{"name":"account","type":"address","indexed":true,"internalType":"address"},{"name":"sender","type":"address","indexed":true,"internalType":"address"}],"anonymous":false},{"type":"error","name":"AccessControlBadConfirmation","inputs":[]},{"type":"error","name":"AccessControlUnauthorizedAccount","inputs":[{"name":"account","type":"address","internalType":"address"},{"name":"neededRole","type":"bytes32","internalType":"bytes32"}]}],"bytecode":{"object":"0x608060405234801561001057600080fd5b50604051610cd7380380610cd783398101604081905261002f916100ed565b61003a600082610041565b505061011d565b6000828152602081815260408083206001600160a01b038516845290915281205460ff166100e3576000838152602081815260408083206001600160a01b03861684529091529020805460ff1916600117905561009b3390565b6001600160a01b0316826001600160a01b0316847f2f8788117e7eff1d82e926ec794901d17c78024a50270940304540a733656f0d60405160405180910390a45060016100e7565b5060005b92915050565b6000602082840312156100ff57600080fd5b81516001600160a01b038116811461011657600080fd5b9392505050565b610bab8061012c6000396000f3fe608060405234801561001057600080fd5b50600436106100ea5760003560e01c8063ae42820c1161008c578063d547741f11610066578063d547741f146101e9578063eb44fdd3146101fc578063fc1639011461021c578063fd69f3c21461022f57600080fd5b8063ae42820c1461019e578063b06ea2eb146101b3578063b1283e77146101c657600080fd5b806336568abe116100c857806336568abe1461015d57806354888f551461017057806391d1485414610183578063a217fddf1461019657600080fd5b806301ffc9a7146100ef578063248a9ca3146101175780632f2ff15d14610148575b600080fd5b6101026100fd3660046107c7565b610237565b60405190151581526020015b60405180910390f35b61013a6101253660046107f8565b60009081526020819052604090206001015490565b60405190815260200161010e565b61015b61015636600461082d565b61026e565b005b61015b61016b36600461082d565b610299565b61013a61017e366004610859565b6102d1565b61010261019136600461082d565b6103fa565b61013a600081565b61013a600080516020610b5683398151915281565b61015b6101c13660046108cb565b610423565b6101d96101d43660046107f8565b610446565b60405161010e949392919061092c565b61015b6101f736600461082d565b610514565b61020f61020a3660046107f8565b610539565b60405161010e9190610961565b61015b61022a3660046108cb565b610659565b60015461013a565b60006001600160e01b03198216637965db0b60e01b148061026857506301ffc9a760e01b6001600160e01b03198316145b92915050565b6000828152602081905260409020600101546102898161067c565b6102938383610689565b50505050565b6001600160a01b03811633146102c25760405163334bd91960e11b815260040160405180910390fd5b6102cc828261071b565b505050565b6000600080516020610b568339815191526102eb8161067c565b60018054905091506001604051806080016040528084815260200186868080601f016020809104026020016040519081016040528093929190818152602001838380828437600092018290525093855250503360208085019190915242604090940193909352508354600181810186559482529082902083516004909202019081559082015191929091908201906103839082610a50565b506040828101516002830180546001600160a01b0319166001600160a01b0390921691909117905560609092015160039091015551339083907f6bfe994aa671108bc4fcb31c2a97ab16ddb967720121010032b2e834bf5eacf6906103eb9088908890610b10565b60405180910390a35092915050565b6000918252602082815260408084206001600160a01b0393909316845291905290205460ff1690565b600061042e8161067c565b6102cc600080516020610b5683398151915283610689565b6001818154811061045657600080fd5b6000918252602090912060049091020180546001820180549193509061047b906109c8565b80601f01602080910402602001604051908101604052809291908181526020018280546104a7906109c8565b80156104f45780601f106104c9576101008083540402835291602001916104f4565b820191906000526020600020905b8154815290600101906020018083116104d757829003601f168201915b50505050600283015460039093015491926001600160a01b031691905084565b60008281526020819052604090206001015461052f8161067c565b610293838361071b565b61056d6040518060800160405280600081526020016060815260200160006001600160a01b03168152602001600081525090565b6001828154811061058057610580610b3f565b9060005260206000209060040201604051806080016040529081600082015481526020016001820180546105b3906109c8565b80601f01602080910402602001604051908101604052809291908181526020018280546105df906109c8565b801561062c5780601f106106015761010080835404028352916020019161062c565b820191906000526020600020905b81548152906001019060200180831161060f57829003601f168201915b505050918352505060028201546001600160a01b0316602082015260039091015460409091015292915050565b60006106648161067c565b6102cc600080516020610b568339815191528361071b565b6106868133610786565b50565b600061069583836103fa565b610713576000838152602081815260408083206001600160a01b03861684529091529020805460ff191660011790556106cb3390565b6001600160a01b0316826001600160a01b0316847f2f8788117e7eff1d82e926ec794901d17c78024a50270940304540a733656f0d60405160405180910390a4506001610268565b506000610268565b600061072783836103fa565b15610713576000838152602081815260408083206001600160a01b0386168085529252808320805460ff1916905551339286917ff6391f5c32d9c69d2a47ea670b442974b53935d1edc7fd64eb21e047a839171b9190a4506001610268565b61079082826103fa565b6107c35760405163e2517d3f60e01b81526001600160a01b03821660048201526024810183905260440160405180910390fd5b5050565b6000602082840312156107d957600080fd5b81356001600160e01b0319811681146107f157600080fd5b9392505050565b60006020828403121561080a57600080fd5b5035919050565b80356001600160a01b038116811461082857600080fd5b919050565b6000806040838503121561084057600080fd5b8235915061085060208401610811565b90509250929050565b6000806020838503121561086c57600080fd5b823567ffffffffffffffff8082111561088457600080fd5b818501915085601f83011261089857600080fd5b8135818111156108a757600080fd5b8660208285010111156108b957600080fd5b60209290920196919550909350505050565b6000602082840312156108dd57600080fd5b6107f182610811565b6000815180845260005b8181101561090c576020818501810151868301820152016108f0565b506000602082860101526020601f19601f83011685010191505092915050565b84815260806020820152600061094560808301866108e6565b6001600160a01b03949094166040830152506060015292915050565b6020815281516020820152600060208301516080604084015261098760a08401826108e6565b60408501516001600160a01b0316606085810191909152909401516080909301929092525090919050565b634e487b7160e01b600052604160045260246000fd5b600181811c908216806109dc57607f821691505b6020821081036109fc57634e487b7160e01b600052602260045260246000fd5b50919050565b601f8211156102cc57600081815260208120601f850160051c81016020861015610a295750805b601f850160051c820191505b81811015610a4857828155600101610a35565b505050505050565b815167ffffffffffffffff811115610a6a57610a6a6109b2565b610a7e81610a7884546109c8565b84610a02565b602080601f831160018114610ab35760008415610a9b5750858301515b600019600386901b1c1916600185901b178555610a48565b600085815260208120601f198616915b82811015610ae257888601518255948401946001909101908401610ac3565b5085821015610b005787850151600019600388901b60f8161c191681555b5050505050600190811b01905550565b60208152816020820152818360408301376000818301604090810191909152601f909201601f19160101919050565b634e487b7160e01b600052603260045260246000fdfed3065a24ad9e7725d223007135762d2902038999e3e5829146654498a58d9795a264697066735822122014aa6ff283ce59fa4564b751ca5a552f6934cc3b4ac8cb05b480665efe68b49864736f6c63430008140033","linkReferences":{}},"methodIdentifiers":{"DEFAULT_ADMIN_ROLE()":"a217fddf","MARKET_CREATOR_ROLE()":"ae42820c","createMarket(string)":"54888f55","getMarket(uint256)":"eb44fdd3","getMarketCount()":"fd69f3c2","getRoleAdmin(bytes32)":"248a9ca3","grantMarketCreator(address)":"b06ea2eb","grantRole(bytes32,address)":"2f2ff15d","hasRole(bytes32,address)":"91d14854","markets(uint256)":"b1283e77","renounceRole(bytes32,address)":"36568abe","revokeMarketCreator(address)":"fc163901","revokeRole(bytes32,address)":"d547741f","supportsInterface(bytes4)":"01ffc9a7"},"id":22}