{"abi":[{"type":"constructor","inputs":[{"name":"_factory","type":"address","internalType":"address"},{"name":"_router","type":"address","internalType":"address"},{"name":"_usdc","type":"address","internalType":"address"}],"stateMutability":"nonpayable"},{"type":"function","name":"RECOVERY_THRESHOLD","inputs":[],"outputs":[{"name":"","type":"uint256","internalType":"uint256"}],"stateMutability":"view"},{"type":"function","name":"claimLiquidity","inputs":[{"name":"market","type":"address","internalType":"address"}],"outputs":[],"stateMutability":"nonpayable"},{"type":"function","name":"createMarket","inputs":[{"name":"question","type":"string","internalType":"string"},{"name":"category","type":"string","internalType":"string"},{"name":"resolutionDeadline","type":"uint256","internalType":"uint256"},{"name":"initialLiquidity","type":"uint256","internalType":"uint256"},{"name":"priceFeed","type":"address","internalType":"address"}],"outputs":[{"name":"market","type":"address","internalType":"address"}],"stateMutability":"nonpayable"},{"type":"function","name":"depegStates","inputs":[{"name":"","type":"address","internalType":"address"}],"outputs":[{"name":"level","type":"uint8","internalType":"uint8"},{"name":"startBlock","type":"uint64","internalType":"uint64"},{"name":"active","type":"bool","internalType":"bool"}],"stateMutability":"view"},{"type":"function","name":"evaluate","inputs":[{"name":"feed","type":"address","internalType":"address"},{"name":"price","type":"int256","internalType":"int256"}],"outputs":[],"stateMutability":"nonpayable"},{"type":"function","name":"factory","inputs":[],"outputs":[{"name":"","type":"address","internalType":"contract IMarketFactory"}],"stateMutability":"view"},{"type":"function","name":"forceResolve","inputs":[{"name":"market","type":"address","internalType":"address"},{"name":"yesWins","type":"bool","internalType":"bool"}],"outputs":[],"stateMutability":"nonpayable"},{"type":"function","name":"lastMarketPrice","inputs":[{"name":"","type":"address","internalType":"address"}],"outputs":[{"name":"","type":"uint256","internalType":"uint256"}],"stateMutability":"view"},{"type":"function","name":"levels","inputs":[{"name":"","type":"uint256","internalType":"uint256"}],"outputs":[{"name":"threshold","type":"uint256","internalType":"uint256"},{"name":"requiredBlocks","type":"uint64","internalType":"uint64"}],"stateMutability":"view"},{"type":"function","name":"onReport","inputs":[{"name":"","type":"bytes","internalType":"bytes"},{"name":"report","type":"bytes","internalType":"bytes"}],"outputs":[],"stateMutability":"nonpayable"},{"type":"function","name":"owner","inputs":[],"outputs":[{"name":"","type":"address","internalType":"address"}],"stateMutability":"view"},{"type":"function","name":"renounceOwnership","inputs":[],"outputs":[],"stateMutability":"nonpayable"},{"type":"function","name":"router","inputs":[],"outputs":[{"name":"","type":"address","internalType":"contract IPriceRouter"}],"stateMutability":"view"},{"type":"function","name":"setLevelConfig","inputs":[{"name":"levelIdx","type":"uint8","internalType":"uint8"},{"name":"threshold","type":"uint256","internalType":"uint256"},{"name":"requiredBlocks","type":"uint64","internalType":"uint64"}],"outputs":[],"stateMutability":"nonpayable"},{"type":"function","name":"transferOwnership","inputs":[{"name":"newOwner","type":"address","internalType":"address"}],"outputs":[],"stateMutability":"nonpayable"},{"type":"function","name":"usdc","inputs":[],"outputs":[{"name":"","type":"address","internalType":"contract IERC20"}],"stateMutability":"view"},{"type":"event","name":"DepegCleared","inputs":[{"name":"market","type":"address","indexed":true,"internalType":"address"},{"name":"price","type":"uint256","indexed":false,"internalType":"uint256"}],"anonymous":false},{"type":"event","name":"DepegDetected","inputs":[{"name":"market","type":"address","indexed":true,"internalType":"address"},{"name":"level","type":"uint8","indexed":false,"internalType":"uint8"},{"name":"price","type":"uint256","indexed":false,"internalType":"uint256"},{"name":"blockNumber","type":"uint256","indexed":false,"internalType":"uint256"}],"anonymous":false},{"type":"event","name":"DepegEscalated","inputs":[{"name":"market","type":"address","indexed":true,"internalType":"address"},{"name":"newLevel","type":"uint8","indexed":false,"internalType":"uint8"},{"name":"price","type":"uint256","indexed":false,"internalType":"uint256"},{"name":"blockNumber","type":"uint256","indexed":false,"internalType":"uint256"}],"anonymous":false},{"type":"event","name":"LevelConfigUpdated","inputs":[{"name":"levelIdx","type":"uint8","indexed":true,"internalType":"uint8"},{"name":"threshold","type":"uint256","indexed":false,"internalType":"uint256"},{"name":"requiredBlocks","type":"uint64","indexed":false,"internalType":"uint64"}],"anonymous":false},{"type":"event","name":"MarketResolved","inputs":[{"name":"market","type":"address","indexed":true,"internalType":"address"},{"name":"yesWins","type":"bool","indexed":false,"internalType":"bool"},{"name":"blockNumber","type":"uint256","indexed":false,"internalType":"uint256"}],"anonymous":false},{"type":"event","name":"OwnershipTransferred","inputs":[{"name":"previousOwner","type":"address","indexed":true,"internalType":"address"},{"name":"newOwner","type":"address","indexed":true,"internalType":"address"}],"anonymous":false},{"type":"error","name":"InvalidLevelIndex","inputs":[]},{"type":"error","name":"InvalidPrice","inputs":[]},{"type":"error","name":"NoLiquidityToWithdraw","inputs":[]},{"type":"error","name":"OwnableInvalidOwner","inputs":[{"name":"owner","type":"address","internalType":"address"}]},{"type":"error","name":"OwnableUnauthorizedAccount","inputs":[{"name":"account","type":"address","internalType":"address"}]}],"bytecode":{"object":"0x60e06040523480156200001157600080fd5b50604051620017413803806200174183398101604081905262000034916200019b565b33806200005b57604051631e4fbdf760e01b81526000600482015260240160405180910390fd5b62000066816200012e565b506001600160a01b0392831660805290821660a0521660c0526040805180820182526305c81a40808252601460209283018190526001918255600280546001600160401b03199081169092179055835180850185526305a995c0808252600a91850182905260039081556004805484169092179091558451808601865263055d4a80808252908501829052600555600680548316909117905583518085019094526304c4b40080855293909201819052600792909255600880549091169091179055620001e5565b600080546001600160a01b038381166001600160a01b0319831681178455604051919092169283917f8be0079c531659141344cd1fd0a4f28419497f9722a3daafe3b4186f6b6457e09190a35050565b80516001600160a01b03811681146200019657600080fd5b919050565b600080600060608486031215620001b157600080fd5b620001bc846200017e565b9250620001cc602085016200017e565b9150620001dc604085016200017e565b90509250925092565b60805160a05160c0516114fb620002466000396000818161014f01528181610333015281816103ef015281816106d701526107550152600081816102e50152610a6a0152600081816102ab015281816103c0015261047401526114fb6000f3fe608060405234801561001057600080fd5b50600436106101005760003560e01c80638da5cb5b11610097578063bdeeb05311610066578063bdeeb05314610293578063c45a0155146102a6578063f2fde38b146102cd578063f887ea40146102e057600080fd5b80638da5cb5b146101d8578063949fcc41146101e9578063ab922ccd14610250578063b2596a671461026357600080fd5b80634504cf46116100d35780634504cf461461019f5780634a3bbc09146101aa578063715018a6146101bd578063805f2132146101c557600080fd5b80632db0521f146101055780633c1eb30c146101355780633e413bee1461014a5780634189290714610171575b600080fd5b6101186101133660046110aa565b610307565b6040516001600160a01b0390911681526020015b60405180910390f35b61014861014336600461114e565b610504565b005b6101187f000000000000000000000000000000000000000000000000000000000000000081565b61019161017f366004611187565b600a6020526000908152604090205481565b60405190815260200161012c565b6101916305c81a4081565b6101486101b8366004611187565b6105d0565b61014861080c565b6101486101d33660046111ab565b610820565b6000546001600160a01b0316610118565b6102276101f7366004611187565b60096020526000908152604090205460ff808216916001600160401b0361010082041691600160481b9091041683565b6040805160ff90941684526001600160401b03909216602084015215159082015260600161012c565b61014861025e366004611216565b610854565b61027661027136600461126a565b61092f565b604080519283526001600160401b0390911660208301520161012c565b6101486102a1366004611283565b61095a565b6101187f000000000000000000000000000000000000000000000000000000000000000081565b6101486102db366004611187565b610988565b6101187f000000000000000000000000000000000000000000000000000000000000000081565b60006103116109cb565b6040516323b872dd60e01b8152336004820152306024820152604481018490527f00000000000000000000000000000000000000000000000000000000000000006001600160a01b0316906323b872dd906064016020604051808303816000875af1158015610384573d6000803e3d6000fd5b505050506040513d601f19601f820116820180604052508101906103a891906112af565b5060405163095ea7b360e01b81526001600160a01b037f000000000000000000000000000000000000000000000000000000000000000081166004830152602482018590527f0000000000000000000000000000000000000000000000000000000000000000169063095ea7b3906044016020604051808303816000875af1158015610438573d6000803e3d6000fd5b505050506040513d601f19601f8201168201806040525081019061045c91906112af565b50604051632db0521f60e01b81526001600160a01b037f00000000000000000000000000000000000000000000000000000000000000001690632db0521f906104b5908b908b908b908b908b908b908b906004016112f5565b6020604051808303816000875af11580156104d4573d6000803e3d6000fd5b505050506040513d601f19601f820116820180604052508101906104f89190611355565b98975050505050505050565b61050c6109cb565b60405163017dbc7f60e31b815281151560048201526001600160a01b03831690630bede3f890602401600060405180830381600087803b15801561054f57600080fd5b505af1158015610563573d6000803e3d6000fd5b505050506001600160a01b03821660008181526009602090815260409182902080546001600160501b03191690558151841515815243918101919091527f38be47bc9c598fe28084330f8f1ecf0f7afa63512fdc8dd453fc7144d22e5fec91015b60405180910390a25050565b6105d86109cb565b60405163304269b760e21b81523060048201526000906001600160a01b0383169063c109a6dc90602401602060405180830381865afa15801561061f573d6000803e3d6000fd5b505050506040513d601f19601f820116820180604052508101906106439190611372565b905080600003610666576040516318c0f41760e11b815260040160405180910390fd5b604051639c8f9f2360e01b8152600481018290526001600160a01b03831690639c8f9f2390602401600060405180830381600087803b1580156106a857600080fd5b505af11580156106bc573d6000803e3d6000fd5b50506040516370a0823160e01b8152306004820152600092507f00000000000000000000000000000000000000000000000000000000000000006001600160a01b031691506370a0823190602401602060405180830381865afa158015610727573d6000803e3d6000fd5b505050506040513d601f19601f8201168201806040525081019061074b9190611372565b90508015610807577f00000000000000000000000000000000000000000000000000000000000000006001600160a01b031663a9059cbb6107946000546001600160a01b031690565b6040516001600160e01b031960e084901b1681526001600160a01b039091166004820152602481018490526044016020604051808303816000875af11580156107e1573d6000803e3d6000fd5b505050506040513d601f19601f8201168201806040525081019061080591906112af565b505b505050565b6108146109cb565b61081e60006109f8565b565b60008061082f83850185611283565b9150915060008113610842575050610805565b61084c8282610a48565b505050505050565b61085c6109cb565b60048360ff16106108805760405163cc3dcf7160e01b815260040160405180910390fd5b6040518060400160405280838152602001826001600160401b031681525060018460ff16600481106108b4576108b461138b565b8251600291909102919091019081556020918201516001909101805467ffffffffffffffff19166001600160401b03928316179055604080518581529184169282019290925260ff8516917f36261b0dd592e2bf2d4ac2a6833f00af1e1e8d6e9736a26fe898f6c466868397910160405180910390a2505050565b6001816004811061093f57600080fd5b6002020180546001909101549091506001600160401b031682565b6000811361097a5760405162bfc92160e01b815260040160405180910390fd5b6109848282610a48565b5050565b6109906109cb565b6001600160a01b0381166109bf57604051631e4fbdf760e01b8152600060048201526024015b60405180910390fd5b6109c8816109f8565b50565b6000546001600160a01b0316331461081e5760405163118cdaa760e01b81523360048201526024016109b6565b600080546001600160a01b038381166001600160a01b0319831681178455604051919092169283917f8be0079c531659141344cd1fd0a4f28419497f9722a3daafe3b4186f6b6457e09190a35050565b60405163ecb7788560e01b81526001600160a01b0383811660048301526000917f00000000000000000000000000000000000000000000000000000000000000009091169063ecb7788590602401600060405180830381865afa158015610ab3573d6000803e3d6000fd5b505050506040513d6000823e601f3d908101601f19168201604052610adb91908101906113b7565b805190915060005b81811015610b1e57610b0e838281518110610b0057610b0061138b565b602002602001015185610b25565b610b1781611485565b9050610ae3565b5050505050565b6001600160a01b0382166000818152600a60209081526040918290208490558151633f6fa65560e01b81529151633f6fa6559260048082019392918290030181865afa158015610b79573d6000803e3d6000fd5b505050506040513d601f19601f82011682018060405250810190610b9d91906112af565b15610bf2576001600160a01b038216600090815260096020526040902054600160481b900460ff161561098457506001600160a01b0316600090815260096020526040902080546001600160501b0319169055565b816001600160a01b031663528f734f6040518163ffffffff1660e01b8152600401602060405180830381865afa158015610c30573d6000803e3d6000fd5b505050506040513d601f19601f82011682018060405250810190610c549190611372565b421115610c645761098482610e8c565b6305c81a408110610cef576001600160a01b038216600090815260096020526040902054600160481b900460ff1615610984576001600160a01b0382166000818152600960205260409081902080546001600160501b0319169055517f9b5c79714b0a775ed54acdaf84d934fee2d0f0ac2cb1034962cd0e834418c167906105c49084815260200190565b6000610cfa82610f4b565b6001600160a01b0384166000908152600960205260409020805491925090600160481b900460ff16610db05780546001600160401b03439081166101000268ffffffffffffffff001960ff861669ff0000000000000000ff199094168417600160481b171617835560408051928352602083018690528201526001600160a01b038516907f34ea258f8c0f2c498d6431314458a6541b8ed5a9976b22b11299fc70d36828989060600160405180910390a2610e37565b805460ff9081169083161115610e375780546001600160401b03439081166101000268ffffffffffffffffff1990921660ff851690811792909217835560408051928352602083018690528201526001600160a01b038516907f4b433c488688723fde460574535a4ed4944effb06abdea767f66e84d7196ee2f9060600160405180910390a25b805460019060ff1660048110610e4f57610e4f61138b565b600202016001015481546001600160401b0391821691610e75916101009004164361149e565b6001600160401b0316106108055761080584610f93565b60405163017dbc7f60e31b8152600060048201526001600160a01b03821690630bede3f890602401600060405180830381600087803b158015610ece57600080fd5b505af1158015610ee2573d6000803e3d6000fd5b505050506001600160a01b038116600081815260096020908152604080832080546001600160501b0319169055805192835243918301919091527f38be47bc9c598fe28084330f8f1ecf0f7afa63512fdc8dd453fc7144d22e5fec91015b60405180910390a250565b600060035b60ff811615610f8a5760018160ff1660048110610f6f57610f6f61138b565b6002020154831015610f815792915050565b60001901610f50565b50600092915050565b60405163017dbc7f60e31b8152600160048201526001600160a01b03821690630bede3f890602401600060405180830381600087803b158015610fd557600080fd5b505af1158015610fe9573d6000803e3d6000fd5b505050506001600160a01b03811660008181526009602090815260409182902080546001600160501b031916905581516001815243918101919091527f38be47bc9c598fe28084330f8f1ecf0f7afa63512fdc8dd453fc7144d22e5fec9101610f40565b60008083601f84011261105f57600080fd5b5081356001600160401b0381111561107657600080fd5b60208301915083602082850101111561108e57600080fd5b9250929050565b6001600160a01b03811681146109c857600080fd5b600080600080600080600060a0888a0312156110c557600080fd5b87356001600160401b03808211156110dc57600080fd5b6110e88b838c0161104d565b909950975060208a013591508082111561110157600080fd5b5061110e8a828b0161104d565b9096509450506040880135925060608801359150608088013561113081611095565b8091505092959891949750929550565b80151581146109c857600080fd5b6000806040838503121561116157600080fd5b823561116c81611095565b9150602083013561117c81611140565b809150509250929050565b60006020828403121561119957600080fd5b81356111a481611095565b9392505050565b600080600080604085870312156111c157600080fd5b84356001600160401b03808211156111d857600080fd5b6111e48883890161104d565b909650945060208701359150808211156111fd57600080fd5b5061120a8782880161104d565b95989497509550505050565b60008060006060848603121561122b57600080fd5b833560ff8116811461123c57600080fd5b92506020840135915060408401356001600160401b038116811461125f57600080fd5b809150509250925092565b60006020828403121561127c57600080fd5b5035919050565b6000806040838503121561129657600080fd5b82356112a181611095565b946020939093013593505050565b6000602082840312156112c157600080fd5b81516111a481611140565b81835281816020850137506000828201602090810191909152601f909101601f19169091010190565b60a08152600061130960a08301898b6112cc565b828103602084015261131c81888a6112cc565b6040840196909652505060608101929092526001600160a01b0316608090910152949350505050565b805161135081611095565b919050565b60006020828403121561136757600080fd5b81516111a481611095565b60006020828403121561138457600080fd5b5051919050565b634e487b7160e01b600052603260045260246000fd5b634e487b7160e01b600052604160045260246000fd5b600060208083850312156113ca57600080fd5b82516001600160401b03808211156113e157600080fd5b818501915085601f8301126113f557600080fd5b815181811115611407576114076113a1565b8060051b604051601f19603f8301168101818110858211171561142c5761142c6113a1565b60405291825284820192508381018501918883111561144a57600080fd5b938501935b828510156104f85761146085611345565b8452938501939285019261144f565b634e487b7160e01b600052601160045260246000fd5b6000600182016114975761149761146f565b5060010190565b6001600160401b038281168282160390808211156114be576114be61146f565b509291505056fea2646970667358221220fa5682891413f002ceb31d4ba323b099601105e77896d4c607610a423d15686064736f6c63430008140033","linkReferences":{}},"methodIdentifiers":{"RECOVERY_THRESHOLD()":"4504cf46","claimLiquidity(address)":"4a3bbc09","createMarket(string,string,uint256,uint256,address)":"2db0521f","depegStates(address)":"949fcc41","evaluate(address,int256)":"bdeeb053","factory()":"c45a0155","forceResolve(address,bool)":"3c1eb30c","lastMarketPrice(address)":"41892907","levels(uint256)":"b2596a67","onReport(bytes,bytes)":"805f2132","owner()":"8da5cb5b","renounceOwnership()":"715018a6","router()":"f887ea40","setLevelConfig(uint8,uint256,uint64)":"ab922ccd","transferOwnership(address)":"f2fde38b","usdc()":"3e413bee"},"id":22}