{"abi":[{"type":"constructor","inputs":[{"name":"_owner","type":"address","internalType":"address"},{"name":"_usdc","type":"address","internalType":"address"},{"name":"_question","type":"string","internalType":"string"},{"name":"_category","type":"string","internalType":"string"},{"name":"_deadline","type":"uint256","internalType":"uint256"},{"name":"_initLiquidity","type":"uint256","internalType":"uint256"}],"stateMutability":"nonpayable"},{"type":"function","name":"addLiquidity","inputs":[{"name":"usdcIn","type":"uint256","internalType":"uint256"}],"outputs":[],"stateMutability":"nonpayable"},{"type":"function","name":"buyOutcome","inputs":[{"name":"isYes","type":"bool","internalType":"bool"},{"name":"usdcIn","type":"uint256","internalType":"uint256"},{"name":"minTokensOut","type":"uint256","internalType":"uint256"}],"outputs":[],"stateMutability":"nonpayable"},{"type":"function","name":"calcBuy","inputs":[{"name":"isYes","type":"bool","internalType":"bool"},{"name":"usdcIn","type":"uint256","internalType":"uint256"}],"outputs":[{"name":"","type":"uint256","internalType":"uint256"}],"stateMutability":"view"},{"type":"function","name":"calcSell","inputs":[{"name":"isYes","type":"bool","internalType":"bool"},{"name":"tokensIn","type":"uint256","internalType":"uint256"}],"outputs":[{"name":"","type":"uint256","internalType":"uint256"}],"stateMutability":"view"},{"type":"function","name":"category","inputs":[],"outputs":[{"name":"","type":"string","internalType":"string"}],"stateMutability":"view"},{"type":"function","name":"deleteAndRefundOwner","inputs":[],"outputs":[{"name":"usdcOut","type":"uint256","internalType":"uint256"}],"stateMutability":"nonpayable"},{"type":"function","name":"factory","inputs":[],"outputs":[{"name":"","type":"address","internalType":"address"}],"stateMutability":"view"},{"type":"function","name":"getMarketInfo","inputs":[],"outputs":[{"name":"_question","type":"string","internalType":"string"},{"name":"_category","type":"string","internalType":"string"},{"name":"_deadline","type":"uint256","internalType":"uint256"},{"name":"_resolved","type":"bool","internalType":"bool"},{"name":"_yesWins","type":"bool","internalType":"bool"},{"name":"_yesReserve","type":"uint256","internalType":"uint256"},{"name":"_noReserve","type":"uint256","internalType":"uint256"},{"name":"_totalCollateral","type":"uint256","internalType":"uint256"},{"name":"_yesPrice","type":"uint256","internalType":"uint256"},{"name":"_noPrice","type":"uint256","internalType":"uint256"}],"stateMutability":"view"},{"type":"function","name":"getPrice","inputs":[{"name":"isYes","type":"bool","internalType":"bool"}],"outputs":[{"name":"","type":"uint256","internalType":"uint256"}],"stateMutability":"view"},{"type":"function","name":"getReserves","inputs":[],"outputs":[{"name":"","type":"uint256","internalType":"uint256"},{"name":"","type":"uint256","internalType":"uint256"}],"stateMutability":"view"},{"type":"function","name":"lpShares","inputs":[{"name":"","type":"address","internalType":"address"}],"outputs":[{"name":"","type":"uint256","internalType":"uint256"}],"stateMutability":"view"},{"type":"function","name":"noBalances","inputs":[{"name":"","type":"address","internalType":"address"}],"outputs":[{"name":"","type":"uint256","internalType":"uint256"}],"stateMutability":"view"},{"type":"function","name":"noOpenInterest","inputs":[],"outputs":[{"name":"","type":"uint256","internalType":"uint256"}],"stateMutability":"view"},{"type":"function","name":"noReserve","inputs":[],"outputs":[{"name":"","type":"uint256","internalType":"uint256"}],"stateMutability":"view"},{"type":"function","name":"owner","inputs":[],"outputs":[{"name":"","type":"address","internalType":"address"}],"stateMutability":"view"},{"type":"function","name":"question","inputs":[],"outputs":[{"name":"","type":"string","internalType":"string"}],"stateMutability":"view"},{"type":"function","name":"redeem","inputs":[],"outputs":[],"stateMutability":"nonpayable"},{"type":"function","name":"removeLiquidity","inputs":[{"name":"shares","type":"uint256","internalType":"uint256"}],"outputs":[],"stateMutability":"nonpayable"},{"type":"function","name":"resolutionDeadline","inputs":[],"outputs":[{"name":"","type":"uint256","internalType":"uint256"}],"stateMutability":"view"},{"type":"function","name":"resolve","inputs":[{"name":"_yesWins","type":"bool","internalType":"bool"}],"outputs":[],"stateMutability":"nonpayable"},{"type":"function","name":"resolved","inputs":[],"outputs":[{"name":"","type":"bool","internalType":"bool"}],"stateMutability":"view"},{"type":"function","name":"sellOutcome","inputs":[{"name":"isYes","type":"bool","internalType":"bool"},{"name":"tokensIn","type":"uint256","internalType":"uint256"},{"name":"minUsdcOut","type":"uint256","internalType":"uint256"}],"outputs":[],"stateMutability":"nonpayable"},{"type":"function","name":"totalCollateral","inputs":[],"outputs":[{"name":"","type":"uint256","internalType":"uint256"}],"stateMutability":"view"},{"type":"function","name":"totalLPShares","inputs":[],"outputs":[{"name":"","type":"uint256","internalType":"uint256"}],"stateMutability":"view"},{"type":"function","name":"usdc","inputs":[],"outputs":[{"name":"","type":"address","internalType":"contract IERC20"}],"stateMutability":"view"},{"type":"function","name":"yesBalances","inputs":[{"name":"","type":"address","internalType":"address"}],"outputs":[{"name":"","type":"uint256","internalType":"uint256"}],"stateMutability":"view"},{"type":"function","name":"yesOpenInterest","inputs":[],"outputs":[{"name":"","type":"uint256","internalType":"uint256"}],"stateMutability":"view"},{"type":"function","name":"yesReserve","inputs":[],"outputs":[{"name":"","type":"uint256","internalType":"uint256"}],"stateMutability":"view"},{"type":"function","name":"yesWins","inputs":[],"outputs":[{"name":"","type":"bool","internalType":"bool"}],"stateMutability":"view"},{"type":"event","name":"LiquidityAdded","inputs":[{"name":"provider","type":"address","indexed":true,"internalType":"address"},{"name":"usdcIn","type":"uint256","indexed":false,"internalType":"uint256"},{"name":"sharesOut","type":"uint256","indexed":false,"internalType":"uint256"}],"anonymous":false},{"type":"event","name":"LiquidityRemoved","inputs":[{"name":"provider","type":"address","indexed":true,"internalType":"address"},{"name":"sharesIn","type":"uint256","indexed":false,"internalType":"uint256"},{"name":"usdcOut","type":"uint256","indexed":false,"internalType":"uint256"}],"anonymous":false},{"type":"event","name":"MarketDeleted","inputs":[{"name":"owner","type":"address","indexed":true,"internalType":"address"},{"name":"usdcRefunded","type":"uint256","indexed":false,"internalType":"uint256"}],"anonymous":false},{"type":"event","name":"MarketResolved","inputs":[{"name":"yesWins","type":"bool","indexed":false,"internalType":"bool"}],"anonymous":false},{"type":"event","name":"OutcomeBought","inputs":[{"name":"buyer","type":"address","indexed":true,"internalType":"address"},{"name":"isYes","type":"bool","indexed":false,"internalType":"bool"},{"name":"usdcIn","type":"uint256","indexed":false,"internalType":"uint256"},{"name":"tokensOut","type":"uint256","indexed":false,"internalType":"uint256"}],"anonymous":false},{"type":"event","name":"OutcomeSold","inputs":[{"name":"seller","type":"address","indexed":true,"internalType":"address"},{"name":"isYes","type":"bool","indexed":false,"internalType":"bool"},{"name":"tokensIn","type":"uint256","indexed":false,"internalType":"uint256"},{"name":"usdcOut","type":"uint256","indexed":false,"internalType":"uint256"}],"anonymous":false},{"type":"event","name":"Redeemed","inputs":[{"name":"winner","type":"address","indexed":true,"internalType":"address"},{"name":"tokensRedeemed","type":"uint256","indexed":false,"internalType":"uint256"},{"name":"usdcOut","type":"uint256","indexed":false,"internalType":"uint256"}],"anonymous":false},{"type":"error","name":"ExternalLiquidityExists","inputs":[]},{"type":"error","name":"InsufficientBalance","inputs":[]},{"type":"error","name":"MarketAlreadyResolved","inputs":[]},{"type":"error","name":"MarketNotResolved","inputs":[]},{"type":"error","name":"NotFactory","inputs":[]},{"type":"error","name":"NotOwner","inputs":[]},{"type":"error","name":"NothingToRedeem","inputs":[]},{"type":"error","name":"OpenInterestExists","inputs":[]},{"type":"error","name":"SlippageExceeded","inputs":[]},{"type":"error","name":"ZeroAmount","inputs":[]}],"bytecode":{"object":"0x60e06040523480156200001157600080fd5b5060405162001fe538038062001fe583398101604081905262000034916200022a565b60028110156200007d5760405162461bcd60e51b815260206004820152601060248201526f4d696e2032205553444320756e69747360801b604482015260640160405180910390fd5b6001600160a01b0380871660a0523360c05285166080526000620000a285826200035b565b506001620000b184826200035b565b506002828155600090620000c6908362000427565b60038190559050620000d981836200044a565b60045560098290556001600160a01b038716600081815260076020908152604091829020859055600885905581518581529081018590527fac1d76749e5447b7b16f5ab61447e1bd502f3bb4807af3b28e620d1700a6ee45910160405180910390a25050505050505062000472565b80516001600160a01b03811681146200016057600080fd5b919050565b634e487b7160e01b600052604160045260246000fd5b600082601f8301126200018d57600080fd5b81516001600160401b0380821115620001aa57620001aa62000165565b604051601f8301601f19908116603f01168101908282118183101715620001d557620001d562000165565b81604052838152602092508683858801011115620001f257600080fd5b600091505b83821015620002165785820183015181830184015290820190620001f7565b600093810190920192909252949350505050565b60008060008060008060c087890312156200024457600080fd5b6200024f8762000148565b95506200025f6020880162000148565b60408801519095506001600160401b03808211156200027d57600080fd5b6200028b8a838b016200017b565b95506060890151915080821115620002a257600080fd5b50620002b189828a016200017b565b9350506080870151915060a087015190509295509295509295565b600181811c90821680620002e157607f821691505b6020821081036200030257634e487b7160e01b600052602260045260246000fd5b50919050565b601f8211156200035657600081815260208120601f850160051c81016020861015620003315750805b601f850160051c820191505b8181101562000352578281556001016200033d565b5050505b505050565b81516001600160401b0381111562000377576200037762000165565b6200038f81620003888454620002cc565b8462000308565b602080601f831160018114620003c75760008415620003ae5750858301515b600019600386901b1c1916600185901b17855562000352565b600085815260208120601f198616915b82811015620003f857888601518255948401946001909101908401620003d7565b5085821015620004175787850151600019600388901b60f8161c191681555b5050505050600190811b01905550565b6000826200044557634e487b7160e01b600052601260045260246000fd5b500490565b818103818111156200046c57634e487b7160e01b600052601160045260246000fd5b92915050565b60805160a05160c051611ae8620004fd6000396000818161039c01526113fb0152600081816102ec0152818161044d0152818161149601528181611518015281816115660152818161161b015261166a01526000818161023f0152818161056d01528181610ac601528181610db801528181610fa80152818161132001526115950152611ae86000f3fe608060405234801561001057600080fd5b50600436106101cf5760003560e01c8063aa0e6bc411610104578063d789760e116100a2578063e245b5af11610071578063e245b5af1461040c578063e88b997b1461041f578063ef430aa614610432578063fbddfa581461043a57600080fd5b8063d789760e146103de578063da1bcbbf146103e7578063da3003a4146103f0578063e124015b1461040357600080fd5b8063be040fb0116100de578063be040fb01461036f578063c109a6dc14610377578063c45a015514610397578063cd2013e2146103be57600080fd5b8063aa0e6bc414610334578063b2670d7414610354578063b44f77c11461035d57600080fd5b80634ac8eb5f1161017157806372a9fa6e1161014b57806372a9fa6e146102de5780638da5cb5b146102e75780639c8f9f231461030e578063a89628b51461032157600080fd5b80634ac8eb5f146102ab57806351c6590a146102c2578063528f734f146102d557600080fd5b806323341a05116101ad57806323341a051461021c5780633e413bee1461023a5780633f6fa655146102795780633fad9ae01461029657600080fd5b80630902f1ac146101d45780630bede3f8146101f4578063193099a814610209575b600080fd5b600354600454604080519283526020830191909152015b60405180910390f35b610207610202366004611869565b610442565b005b610207610217366004611886565b610506565b61022461075b565b6040516101eb9a99989796959493929190611901565b6102617f000000000000000000000000000000000000000000000000000000000000000081565b6040516001600160a01b0390911681526020016101eb565b600c546102869060ff1681565b60405190151581526020016101eb565b61029e6109d1565b6040516101eb919061196b565b6102b460095481565b6040519081526020016101eb565b6102076102d036600461197e565b610a5f565b6102b460025481565b6102b460045481565b6102617f000000000000000000000000000000000000000000000000000000000000000081565b61020761031c36600461197e565b610c6a565b6102b461032f366004611997565b610e6d565b6102b46103423660046119c3565b60066020526000908152604090205481565b6102b460035481565b600c5461028690610100900460ff1681565b610207610e82565b6102b46103853660046119c3565b60076020526000908152604090205481565b6102617f000000000000000000000000000000000000000000000000000000000000000081565b6102b46103cc3660046119c3565b60056020526000908152604090205481565b6102b460085481565b6102b4600a5481565b6102b46103fe366004611997565b61105c565b6102b4600b5481565b6102b461041a366004611869565b611068565b61020761042d366004611886565b61112c565b61029e6113e1565b6102b46113ee565b336001600160a01b037f0000000000000000000000000000000000000000000000000000000000000000161461048b576040516330cd747160e01b815260040160405180910390fd5b600c5460ff16156104af5760405163aa43cb2d60e01b815260040160405180910390fd5b600c80548215156101000261ffff199091161760011790556040517ff528f3b02f5c2503827fc677c9d0cb54ffbf11ed32cb659f73243b70dea7cf0e906104fb90831515815260200190565b60405180910390a150565b600c5460ff161561052a5760405163aa43cb2d60e01b815260040160405180910390fd5b8160000361054b57604051631f2a200560e01b815260040160405180910390fd5b6040516323b872dd60e01b8152336004820152306024820152604481018390527f00000000000000000000000000000000000000000000000000000000000000006001600160a01b0316906323b872dd906064016020604051808303816000875af11580156105be573d6000803e3d6000fd5b505050506040513d601f19601f820116820180604052508101906105e291906119ec565b5060006105ef84846116cf565b90508181101561061257604051638199f5f360e01b815260040160405180910390fd5b60006004546003546106249190611a1f565b905084156106945760008460045461063c9190611a36565b90506106488183611a49565b6003556004819055336000908152600560205260408120805485929061066f908490611a36565b9250508190555082600a60008282546106889190611a36565b909155506106f7915050565b6000846003546106a49190611a36565b90506106b08183611a49565b600455600381905533600090815260066020526040812080548592906106d7908490611a36565b9250508190555082600b60008282546106f09190611a36565b9091555050505b83600960008282546107099190611a36565b90915550506040805186151581526020810186905290810183905233907f07bad9821f7e23256f9909e371407caf7d0d7b38fa659f7158d8c72f4b6316c3906060015b60405180910390a25050505050565b606080600080600080600080600080600c60009054906101000a900460ff16156107e157600c54610100900460ff1661079557600061079f565b670de0b6b3a76400005b67ffffffffffffffff169150600c60019054906101000a900460ff166107cd57670de0b6b3a76400006107d0565b60005b67ffffffffffffffff169050610867565b60006004546003546107f39190611a36565b905080156108215780600454670de0b6b3a76400006108129190611a1f565b61081c9190611a49565b61082b565b6706f05b59d3b200005b925080156108595780600354670de0b6b3a764000061084a9190611a1f565b6108549190611a49565b610863565b6706f05b59d3b200005b9150505b60006001600254600c60009054906101000a900460ff16600c60019054906101000a900460ff1660035460045460095489898980546108a590611a6b565b80601f01602080910402602001604051908101604052809291908181526020018280546108d190611a6b565b801561091e5780601f106108f35761010080835404028352916020019161091e565b820191906000526020600020905b81548152906001019060200180831161090157829003601f168201915b5050505050995088805461093190611a6b565b80601f016020809104026020016040519081016040528092919081815260200182805461095d90611a6b565b80156109aa5780601f1061097f576101008083540402835291602001916109aa565b820191906000526020600020905b81548152906001019060200180831161098d57829003601f168201915b50505050509850995099509950995099509950995099509950995090919293949596979899565b600080546109de90611a6b565b80601f0160208091040260200160405190810160405280929190818152602001828054610a0a90611a6b565b8015610a575780601f10610a2c57610100808354040283529160200191610a57565b820191906000526020600020905b815481529060010190602001808311610a3a57829003601f168201915b505050505081565b600c5460ff1615610a835760405163aa43cb2d60e01b815260040160405180910390fd5b80600003610aa457604051631f2a200560e01b815260040160405180910390fd5b6040516323b872dd60e01b8152336004820152306024820152604481018290527f00000000000000000000000000000000000000000000000000000000000000006001600160a01b0316906323b872dd906064016020604051808303816000875af1158015610b17573d6000803e3d6000fd5b505050506040513d601f19601f82011682018060405250810190610b3b91906119ec565b506000600454600354610b4e9190611a36565b905060008160035484610b619190611a1f565b610b6b9190611a49565b90506000610b798285611a9f565b90508160036000828254610b8d9190611a36565b925050819055508060046000828254610ba69190611a36565b909155505060085460009015610bd557600954600854610bc69087611a1f565b610bd09190611a49565b610bd7565b845b33600090815260076020526040812080549293508392909190610bfb908490611a36565b925050819055508060086000828254610c149190611a36565b925050819055508460096000828254610c2d9190611a36565b9091555050604080518681526020810183905233917fac1d76749e5447b7b16f5ab61447e1bd502f3bb4807af3b28e620d1700a6ee45910161074c565b80600003610c8b57604051631f2a200560e01b815260040160405180910390fd5b33600090815260076020526040902054811115610cbb57604051631e9acf1760e31b815260040160405180910390fd5b600060085460095483610cce9190611a1f565b610cd89190611a49565b600c5490915060ff16610d4657600854600354610cf59084611a1f565b610cff9190611a49565b60036000828254610d109190611a9f565b9091555050600854600454610d259084611a1f565b610d2f9190611a49565b60046000828254610d409190611a9f565b90915550505b3360009081526007602052604081208054849290610d65908490611a9f565b925050819055508160086000828254610d7e9190611a9f565b925050819055508060096000828254610d979190611a9f565b909155505060405163a9059cbb60e01b8152336004820152602481018290527f00000000000000000000000000000000000000000000000000000000000000006001600160a01b03169063a9059cbb906044016020604051808303816000875af1158015610e09573d6000803e3d6000fd5b505050506040513d601f19601f82011682018060405250810190610e2d91906119ec565b50604080518381526020810183905233917f96cd817c6329656790ef8fba7675405193677d39619571282f5e21f3a98cd059910160405180910390a25050565b6000610e7983836116cf565b90505b92915050565b600c5460ff16610ea55760405163174b639360e11b815260040160405180910390fd5b600c54600090610100900460ff1615610f1957503360009081526005602052604081205490819003610eea576040516304c4857b60e51b815260040160405180910390fd5b336000908152600560205260408120819055600a8054839290610f0e908490611a9f565b90915550610f759050565b503360009081526006602052604081205490819003610f4b576040516304c4857b60e51b815260040160405180910390fd5b336000908152600660205260408120819055600b8054839290610f6f908490611a9f565b90915550505b8060096000828254610f879190611a9f565b909155505060405163a9059cbb60e01b8152336004820152602481018290527f00000000000000000000000000000000000000000000000000000000000000006001600160a01b03169063a9059cbb906044016020604051808303816000875af1158015610ff9573d6000803e3d6000fd5b505050506040513d601f19601f8201168201806040525081019061101d91906119ec565b50604080518281526020810183905233917ff3a670cd3af7d64b488926880889d08a8585a138ff455227af6737339a1ec262910160405180910390a250565b6000610e798383611748565b600c5460009060ff16156110ad57600c5460ff6101009091041615158215151461109357600061109d565b670de0b6b3a76400005b67ffffffffffffffff1692915050565b60006004546003546110bf9190611a36565b9050806000036110d957506706f05b59d3b2000092915050565b826111045780600354670de0b6b3a76400006110f59190611a1f565b6110ff9190611a49565b611125565b80600454670de0b6b3a764000061111b9190611a1f565b6111259190611a49565b9392505050565b600c5460ff16156111505760405163aa43cb2d60e01b815260040160405180910390fd5b8160000361117157604051631f2a200560e01b815260040160405180910390fd5b82156111ac57336000908152600560205260409020548211156111a757604051631e9acf1760e31b815260040160405180910390fd5b6111dc565b336000908152600660205260409020548211156111dc57604051631e9acf1760e31b815260040160405180910390fd5b60006111e88484611748565b90508181101561120b57604051638199f5f360e01b815260040160405180910390fd5b83156112815780836003546112209190611a36565b61122a9190611a9f565b60035560045461123b908290611a9f565b600455336000908152600560205260408120805485929061125d908490611a9f565b9250508190555082600a60008282546112769190611a9f565b909155506112ed9050565b8060035461128f9190611a9f565b60035560045481906112a2908590611a36565b6112ac9190611a9f565b60045533600090815260066020526040812080548592906112ce908490611a9f565b9250508190555082600b60008282546112e79190611a9f565b90915550505b80600960008282546112ff9190611a9f565b909155505060405163a9059cbb60e01b8152336004820152602481018290527f00000000000000000000000000000000000000000000000000000000000000006001600160a01b03169063a9059cbb906044016020604051808303816000875af1158015611371573d6000803e3d6000fd5b505050506040513d601f19601f8201168201806040525081019061139591906119ec565b506040805185151581526020810185905290810182905233907ff79805601154c41acb99b86b2052e73eacc44e0f3ebfbf0d895995084be183d09060600160405180910390a250505050565b600180546109de90611a6b565b6000336001600160a01b037f0000000000000000000000000000000000000000000000000000000000000000161461143957604051631966391b60e11b815260040160405180910390fd5b600c5460ff161561145d5760405163aa43cb2d60e01b815260040160405180910390fd5b600a5415158061146e5750600b5415155b1561148c5760405163ce76116760e01b815260040160405180910390fd5b6001600160a01b037f00000000000000000000000000000000000000000000000000000000000000001660009081526007602052604090205460085481146114e757604051631370be6360e11b815260040160405180910390fd5b60098054600c805461ffff191660011790556000600381905560048190559182905560088290556001600160a01b037f000000000000000000000000000000000000000000000000000000000000000016825260076020526040822091909155915081156116685760405163a9059cbb60e01b81526001600160a01b037f000000000000000000000000000000000000000000000000000000000000000081166004830152602482018490527f0000000000000000000000000000000000000000000000000000000000000000169063a9059cbb906044016020604051808303816000875af11580156115de573d6000803e3d6000fd5b505050506040513d601f19601f8201168201806040525081019061160291906119ec565b5060408051828152602081018490526001600160a01b037f000000000000000000000000000000000000000000000000000000000000000016917f96cd817c6329656790ef8fba7675405193677d39619571282f5e21f3a98cd059910160405180910390a25b7f00000000000000000000000000000000000000000000000000000000000000006001600160a01b03167f202e187e90a2396d8616dbc4f163bb1d06668b732d5f9858f5589db0f9985edb836040516116c391815260200190565b60405180910390a25090565b6000806004546003546116e29190611a1f565b9050831561172257826004546116f89190611a36565b6117029082611a49565b836003546117109190611a36565b61171a9190611a9f565b915050610e7c565b826003546117309190611a36565b61173a9082611a49565b836004546117109190611a36565b600080836117585760045461175c565b6003545b905060008461176d57600354611771565b6004545b90506000816117808685611a36565b61178a9190611a36565b905060008561179a846004611a1f565b6117a49190611a1f565b90506000816117b38480611a1f565b6117bd9190611a9f565b905060006117ca826117ef565b905060026117d88286611a9f565b6117e29190611a49565b9998505050505050505050565b60008160000361180157506000919050565b508060006002611812836001611a36565b61181c9190611a49565b90505b81811015611852579050806002816118378186611a49565b6118419190611a36565b61184b9190611a49565b905061181f565b50919050565b801515811461186657600080fd5b50565b60006020828403121561187b57600080fd5b813561112581611858565b60008060006060848603121561189b57600080fd5b83356118a681611858565b95602085013595506040909401359392505050565b6000815180845260005b818110156118e1576020818501810151868301820152016118c5565b506000602082860101526020601f19601f83011685010191505092915050565b60006101408083526119158184018e6118bb565b90508281036020840152611929818d6118bb565b604084019b909b5250509615156060880152941515608087015260a086019390935260c085019190915260e08401526101008301526101209091015292915050565b602081526000610e7960208301846118bb565b60006020828403121561199057600080fd5b5035919050565b600080604083850312156119aa57600080fd5b82356119b581611858565b946020939093013593505050565b6000602082840312156119d557600080fd5b81356001600160a01b038116811461112557600080fd5b6000602082840312156119fe57600080fd5b815161112581611858565b634e487b7160e01b600052601160045260246000fd5b8082028115828204841417610e7c57610e7c611a09565b80820180821115610e7c57610e7c611a09565b600082611a6657634e487b7160e01b600052601260045260246000fd5b500490565b600181811c90821680611a7f57607f821691505b60208210810361185257634e487b7160e01b600052602260045260246000fd5b81810381811115610e7c57610e7c611a0956fea2646970667358221220beaa4a92e7b3300fcd7de68b5cba7777a810373f323deb1b36a7822657cae5c664736f6c63430008140033","linkReferences":{}},"methodIdentifiers":{"addLiquidity(uint256)":"51c6590a","buyOutcome(bool,uint256,uint256)":"193099a8","calcBuy(bool,uint256)":"a89628b5","calcSell(bool,uint256)":"da3003a4","category()":"ef430aa6","deleteAndRefundOwner()":"fbddfa58","factory()":"c45a0155","getMarketInfo()":"23341a05","getPrice(bool)":"e245b5af","getReserves()":"0902f1ac","lpShares(address)":"c109a6dc","noBalances(address)":"aa0e6bc4","noOpenInterest()":"e124015b","noReserve()":"72a9fa6e","owner()":"8da5cb5b","question()":"3fad9ae0","redeem()":"be040fb0","removeLiquidity(uint256)":"9c8f9f23","resolutionDeadline()":"528f734f","resolve(bool)":"0bede3f8","resolved()":"3f6fa655","sellOutcome(bool,uint256,uint256)":"e88b997b","totalCollateral()":"4ac8eb5f","totalLPShares()":"d789760e","usdc()":"3e413bee","yesBalances(address)":"cd2013e2","yesOpenInterest()":"da1bcbbf","yesReserve()":"b2670d74","yesWins()":"b44f77c1"},"id":23}