{"abi":[{"type":"constructor","inputs":[{"name":"_owner","type":"address","internalType":"address"},{"name":"_usdc","type":"address","internalType":"address"},{"name":"_question","type":"string","internalType":"string"},{"name":"_category","type":"string","internalType":"string"},{"name":"_deadline","type":"uint256","internalType":"uint256"},{"name":"_initLiquidity","type":"uint256","internalType":"uint256"}],"stateMutability":"nonpayable"},{"type":"function","name":"addLiquidity","inputs":[{"name":"usdcIn","type":"uint256","internalType":"uint256"}],"outputs":[],"stateMutability":"nonpayable"},{"type":"function","name":"buyOutcome","inputs":[{"name":"isYes","type":"bool","internalType":"bool"},{"name":"usdcIn","type":"uint256","internalType":"uint256"},{"name":"minTokensOut","type":"uint256","internalType":"uint256"}],"outputs":[],"stateMutability":"nonpayable"},{"type":"function","name":"calcBuy","inputs":[{"name":"isYes","type":"bool","internalType":"bool"},{"name":"usdcIn","type":"uint256","internalType":"uint256"}],"outputs":[{"name":"","type":"uint256","internalType":"uint256"}],"stateMutability":"view"},{"type":"function","name":"calcSell","inputs":[{"name":"isYes","type":"bool","internalType":"bool"},{"name":"tokensIn","type":"uint256","internalType":"uint256"}],"outputs":[{"name":"","type":"uint256","internalType":"uint256"}],"stateMutability":"view"},{"type":"function","name":"category","inputs":[],"outputs":[{"name":"","type":"string","internalType":"string"}],"stateMutability":"view"},{"type":"function","name":"deleteAndRefundOwner","inputs":[],"outputs":[{"name":"usdcOut","type":"uint256","internalType":"uint256"}],"stateMutability":"nonpayable"},{"type":"function","name":"factory","inputs":[],"outputs":[{"name":"","type":"address","internalType":"address"}],"stateMutability":"view"},{"type":"function","name":"getMarketInfo","inputs":[],"outputs":[{"name":"_question","type":"string","internalType":"string"},{"name":"_category","type":"string","internalType":"string"},{"name":"_deadline","type":"uint256","internalType":"uint256"},{"name":"_resolved","type":"bool","internalType":"bool"},{"name":"_yesWins","type":"bool","internalType":"bool"},{"name":"_yesReserve","type":"uint256","internalType":"uint256"},{"name":"_noReserve","type":"uint256","internalType":"uint256"},{"name":"_totalCollateral","type":"uint256","internalType":"uint256"},{"name":"_yesPrice","type":"uint256","internalType":"uint256"},{"name":"_noPrice","type":"uint256","internalType":"uint256"}],"stateMutability":"view"},{"type":"function","name":"getPrice","inputs":[{"name":"isYes","type":"bool","internalType":"bool"}],"outputs":[{"name":"","type":"uint256","internalType":"uint256"}],"stateMutability":"view"},{"type":"function","name":"getReserves","inputs":[],"outputs":[{"name":"","type":"uint256","internalType":"uint256"},{"name":"","type":"uint256","internalType":"uint256"}],"stateMutability":"view"},{"type":"function","name":"lpShares","inputs":[{"name":"","type":"address","internalType":"address"}],"outputs":[{"name":"","type":"uint256","internalType":"uint256"}],"stateMutability":"view"},{"type":"function","name":"noBalances","inputs":[{"name":"","type":"address","internalType":"address"}],"outputs":[{"name":"","type":"uint256","internalType":"uint256"}],"stateMutability":"view"},{"type":"function","name":"noOpenInterest","inputs":[],"outputs":[{"name":"","type":"uint256","internalType":"uint256"}],"stateMutability":"view"},{"type":"function","name":"noReserve","inputs":[],"outputs":[{"name":"","type":"uint256","internalType":"uint256"}],"stateMutability":"view"},{"type":"function","name":"owner","inputs":[],"outputs":[{"name":"","type":"address","internalType":"address"}],"stateMutability":"view"},{"type":"function","name":"question","inputs":[],"outputs":[{"name":"","type":"string","internalType":"string"}],"stateMutability":"view"},{"type":"function","name":"redeem","inputs":[],"outputs":[],"stateMutability":"nonpayable"},{"type":"function","name":"removeLiquidity","inputs":[{"name":"shares","type":"uint256","internalType":"uint256"}],"outputs":[],"stateMutability":"nonpayable"},{"type":"function","name":"resolutionDeadline","inputs":[],"outputs":[{"name":"","type":"uint256","internalType":"uint256"}],"stateMutability":"view"},{"type":"function","name":"resolve","inputs":[{"name":"_yesWins","type":"bool","internalType":"bool"}],"outputs":[],"stateMutability":"nonpayable"},{"type":"function","name":"resolved","inputs":[],"outputs":[{"name":"","type":"bool","internalType":"bool"}],"stateMutability":"view"},{"type":"function","name":"sellOutcome","inputs":[{"name":"isYes","type":"bool","internalType":"bool"},{"name":"tokensIn","type":"uint256","internalType":"uint256"},{"name":"minUsdcOut","type":"uint256","internalType":"uint256"}],"outputs":[],"stateMutability":"nonpayable"},{"type":"function","name":"totalCollateral","inputs":[],"outputs":[{"name":"","type":"uint256","internalType":"uint256"}],"stateMutability":"view"},{"type":"function","name":"totalLPShares","inputs":[],"outputs":[{"name":"","type":"uint256","internalType":"uint256"}],"stateMutability":"view"},{"type":"function","name":"usdc","inputs":[],"outputs":[{"name":"","type":"address","internalType":"contract IERC20"}],"stateMutability":"view"},{"type":"function","name":"yesBalances","inputs":[{"name":"","type":"address","internalType":"address"}],"outputs":[{"name":"","type":"uint256","internalType":"uint256"}],"stateMutability":"view"},{"type":"function","name":"yesOpenInterest","inputs":[],"outputs":[{"name":"","type":"uint256","internalType":"uint256"}],"stateMutability":"view"},{"type":"function","name":"yesReserve","inputs":[],"outputs":[{"name":"","type":"uint256","internalType":"uint256"}],"stateMutability":"view"},{"type":"function","name":"yesWins","inputs":[],"outputs":[{"name":"","type":"bool","internalType":"bool"}],"stateMutability":"view"},{"type":"event","name":"LiquidityAdded","inputs":[{"name":"provider","type":"address","indexed":true,"internalType":"address"},{"name":"usdcIn","type":"uint256","indexed":false,"internalType":"uint256"},{"name":"sharesOut","type":"uint256","indexed":false,"internalType":"uint256"}],"anonymous":false},{"type":"event","name":"LiquidityRemoved","inputs":[{"name":"provider","type":"address","indexed":true,"internalType":"address"},{"name":"sharesIn","type":"uint256","indexed":false,"internalType":"uint256"},{"name":"usdcOut","type":"uint256","indexed":false,"internalType":"uint256"}],"anonymous":false},{"type":"event","name":"MarketDeleted","inputs":[{"name":"owner","type":"address","indexed":true,"internalType":"address"},{"name":"usdcRefunded","type":"uint256","indexed":false,"internalType":"uint256"}],"anonymous":false},{"type":"event","name":"MarketResolved","inputs":[{"name":"yesWins","type":"bool","indexed":false,"internalType":"bool"}],"anonymous":false},{"type":"event","name":"OutcomeBought","inputs":[{"name":"buyer","type":"address","indexed":true,"internalType":"address"},{"name":"isYes","type":"bool","indexed":false,"internalType":"bool"},{"name":"usdcIn","type":"uint256","indexed":false,"internalType":"uint256"},{"name":"tokensOut","type":"uint256","indexed":false,"internalType":"uint256"}],"anonymous":false},{"type":"event","name":"OutcomeSold","inputs":[{"name":"seller","type":"address","indexed":true,"internalType":"address"},{"name":"isYes","type":"bool","indexed":false,"internalType":"bool"},{"name":"tokensIn","type":"uint256","indexed":false,"internalType":"uint256"},{"name":"usdcOut","type":"uint256","indexed":false,"internalType":"uint256"}],"anonymous":false},{"type":"event","name":"Redeemed","inputs":[{"name":"winner","type":"address","indexed":true,"internalType":"address"},{"name":"tokensRedeemed","type":"uint256","indexed":false,"internalType":"uint256"},{"name":"usdcOut","type":"uint256","indexed":false,"internalType":"uint256"}],"anonymous":false},{"type":"error","name":"ExternalLiquidityExists","inputs":[]},{"type":"error","name":"InsufficientBalance","inputs":[]},{"type":"error","name":"MarketAlreadyResolved","inputs":[]},{"type":"error","name":"MarketNotResolved","inputs":[]},{"type":"error","name":"NotFactory","inputs":[]},{"type":"error","name":"NotOwner","inputs":[]},{"type":"error","name":"NothingToRedeem","inputs":[]},{"type":"error","name":"OpenInterestExists","inputs":[]},{"type":"error","name":"SlippageExceeded","inputs":[]},{"type":"error","name":"ZeroAmount","inputs":[]}],"bytecode":{"object":"0x60e06040523480156200001157600080fd5b5060405162001f0738038062001f0783398101604081905262000034916200022a565b60028110156200007d5760405162461bcd60e51b815260206004820152601060248201526f4d696e2032205553444320756e69747360801b604482015260640160405180910390fd5b6001600160a01b0380871660a0523360c05285166080526000620000a285826200035b565b506001620000b184826200035b565b506002828155600090620000c6908362000427565b60038190559050620000d981836200044a565b60045560098290556001600160a01b038716600081815260076020908152604091829020859055600885905581518581529081018590527fac1d76749e5447b7b16f5ab61447e1bd502f3bb4807af3b28e620d1700a6ee45910160405180910390a25050505050505062000472565b80516001600160a01b03811681146200016057600080fd5b919050565b634e487b7160e01b600052604160045260246000fd5b600082601f8301126200018d57600080fd5b81516001600160401b0380821115620001aa57620001aa62000165565b604051601f8301601f19908116603f01168101908282118183101715620001d557620001d562000165565b81604052838152602092508683858801011115620001f257600080fd5b600091505b83821015620002165785820183015181830184015290820190620001f7565b600093810190920192909252949350505050565b60008060008060008060c087890312156200024457600080fd5b6200024f8762000148565b95506200025f6020880162000148565b60408801519095506001600160401b03808211156200027d57600080fd5b6200028b8a838b016200017b565b95506060890151915080821115620002a257600080fd5b50620002b189828a016200017b565b9350506080870151915060a087015190509295509295509295565b600181811c90821680620002e157607f821691505b6020821081036200030257634e487b7160e01b600052602260045260246000fd5b50919050565b601f8211156200035657600081815260208120601f850160051c81016020861015620003315750805b601f850160051c820191505b8181101562000352578281556001016200033d565b5050505b505050565b81516001600160401b0381111562000377576200037762000165565b6200038f81620003888454620002cc565b8462000308565b602080601f831160018114620003c75760008415620003ae5750858301515b600019600386901b1c1916600185901b17855562000352565b600085815260208120601f198616915b82811015620003f857888601518255948401946001909101908401620003d7565b5085821015620004175787850151600019600388901b60f8161c191681555b5050505050600190811b01905550565b6000826200044557634e487b7160e01b600052601260045260246000fd5b500490565b818103818111156200046c57634e487b7160e01b600052601160045260246000fd5b92915050565b60805160a05160c051611a0a620004fd6000396000818161039c015261131d0152600081816102ec0152818161044d015281816113b80152818161143a015281816114880152818161153d015261158c01526000818161023f0152818161056d01528181610a4e01528181610d3501528181610f0e0152818161124201526114b70152611a0a6000f3fe608060405234801561001057600080fd5b50600436106101cf5760003560e01c8063aa0e6bc411610104578063d789760e116100a2578063e245b5af11610071578063e245b5af1461040c578063e88b997b1461041f578063ef430aa614610432578063fbddfa581461043a57600080fd5b8063d789760e146103de578063da1bcbbf146103e7578063da3003a4146103f0578063e124015b1461040357600080fd5b8063be040fb0116100de578063be040fb01461036f578063c109a6dc14610377578063c45a015514610397578063cd2013e2146103be57600080fd5b8063aa0e6bc414610334578063b2670d7414610354578063b44f77c11461035d57600080fd5b80634ac8eb5f1161017157806372a9fa6e1161014b57806372a9fa6e146102de5780638da5cb5b146102e75780639c8f9f231461030e578063a89628b51461032157600080fd5b80634ac8eb5f146102ab57806351c6590a146102c2578063528f734f146102d557600080fd5b806323341a05116101ad57806323341a051461021c5780633e413bee1461023a5780633f6fa655146102795780633fad9ae01461029657600080fd5b80630902f1ac146101d45780630bede3f8146101f4578063193099a814610209575b600080fd5b600354600454604080519283526020830191909152015b60405180910390f35b61020761020236600461178b565b610442565b005b6102076102173660046117a8565b610506565b61022461075b565b6040516101eb9a99989796959493929190611823565b6102617f000000000000000000000000000000000000000000000000000000000000000081565b6040516001600160a01b0390911681526020016101eb565b600c546102869060ff1681565b60405190151581526020016101eb565b61029e610959565b6040516101eb919061188d565b6102b460095481565b6040519081526020016101eb565b6102076102d03660046118a0565b6109e7565b6102b460025481565b6102b460045481565b6102617f000000000000000000000000000000000000000000000000000000000000000081565b61020761031c3660046118a0565b610bf2565b6102b461032f3660046118b9565b610dea565b6102b46103423660046118e5565b60066020526000908152604090205481565b6102b460035481565b600c5461028690610100900460ff1681565b610207610dff565b6102b46103853660046118e5565b60076020526000908152604090205481565b6102617f000000000000000000000000000000000000000000000000000000000000000081565b6102b46103cc3660046118e5565b60056020526000908152604090205481565b6102b460085481565b6102b4600a5481565b6102b46103fe3660046118b9565b610fc2565b6102b4600b5481565b6102b461041a36600461178b565b610fce565b61020761042d3660046117a8565b61104e565b61029e611303565b6102b4611310565b336001600160a01b037f0000000000000000000000000000000000000000000000000000000000000000161461048b576040516330cd747160e01b815260040160405180910390fd5b600c5460ff16156104af5760405163aa43cb2d60e01b815260040160405180910390fd5b600c80548215156101000261ffff199091161760011790556040517ff528f3b02f5c2503827fc677c9d0cb54ffbf11ed32cb659f73243b70dea7cf0e906104fb90831515815260200190565b60405180910390a150565b600c5460ff161561052a5760405163aa43cb2d60e01b815260040160405180910390fd5b8160000361054b57604051631f2a200560e01b815260040160405180910390fd5b6040516323b872dd60e01b8152336004820152306024820152604481018390527f00000000000000000000000000000000000000000000000000000000000000006001600160a01b0316906323b872dd906064016020604051808303816000875af11580156105be573d6000803e3d6000fd5b505050506040513d601f19601f820116820180604052508101906105e2919061190e565b5060006105ef84846115f1565b90508181101561061257604051638199f5f360e01b815260040160405180910390fd5b60006004546003546106249190611941565b905084156106945760008460045461063c9190611958565b9050610648818361196b565b6003556004819055336000908152600560205260408120805485929061066f908490611958565b9250508190555082600a60008282546106889190611958565b909155506106f7915050565b6000846003546106a49190611958565b90506106b0818361196b565b600455600381905533600090815260066020526040812080548592906106d7908490611958565b9250508190555082600b60008282546106f09190611958565b9091555050505b83600960008282546107099190611958565b90915550506040805186151581526020810186905290810183905233907f07bad9821f7e23256f9909e371407caf7d0d7b38fa659f7158d8c72f4b6316c3906060015b60405180910390a25050505050565b606080600080600080600080600080600060045460035461077c9190611958565b905080156107aa5780600454670de0b6b3a764000061079b9190611941565b6107a5919061196b565b6107b4565b6706f05b59d3b200005b925080156107e25780600354670de0b6b3a76400006107d39190611941565b6107dd919061196b565b6107ec565b6706f05b59d3b200005b915060006001600254600c60009054906101000a900460ff16600c60019054906101000a900460ff166003546004546009548a8a89805461082c9061198d565b80601f01602080910402602001604051908101604052809291908181526020018280546108589061198d565b80156108a55780601f1061087a576101008083540402835291602001916108a5565b820191906000526020600020905b81548152906001019060200180831161088857829003601f168201915b505050505099508880546108b89061198d565b80601f01602080910402602001604051908101604052809291908181526020018280546108e49061198d565b80156109315780601f1061090657610100808354040283529160200191610931565b820191906000526020600020905b81548152906001019060200180831161091457829003601f168201915b505050505098509a509a509a509a509a509a509a509a509a509a505090919293949596979899565b600080546109669061198d565b80601f01602080910402602001604051908101604052809291908181526020018280546109929061198d565b80156109df5780601f106109b4576101008083540402835291602001916109df565b820191906000526020600020905b8154815290600101906020018083116109c257829003601f168201915b505050505081565b600c5460ff1615610a0b5760405163aa43cb2d60e01b815260040160405180910390fd5b80600003610a2c57604051631f2a200560e01b815260040160405180910390fd5b6040516323b872dd60e01b8152336004820152306024820152604481018290527f00000000000000000000000000000000000000000000000000000000000000006001600160a01b0316906323b872dd906064016020604051808303816000875af1158015610a9f573d6000803e3d6000fd5b505050506040513d601f19601f82011682018060405250810190610ac3919061190e565b506000600454600354610ad69190611958565b905060008160035484610ae99190611941565b610af3919061196b565b90506000610b0182856119c1565b90508160036000828254610b159190611958565b925050819055508060046000828254610b2e9190611958565b909155505060085460009015610b5d57600954600854610b4e9087611941565b610b58919061196b565b610b5f565b845b33600090815260076020526040812080549293508392909190610b83908490611958565b925050819055508060086000828254610b9c9190611958565b925050819055508460096000828254610bb59190611958565b9091555050604080518681526020810183905233917fac1d76749e5447b7b16f5ab61447e1bd502f3bb4807af3b28e620d1700a6ee45910161074c565b80600003610c1357604051631f2a200560e01b815260040160405180910390fd5b33600090815260076020526040902054811115610c4357604051631e9acf1760e31b815260040160405180910390fd5b600060085460095483610c569190611941565b610c60919061196b565b905060085460035483610c739190611941565b610c7d919061196b565b60036000828254610c8e91906119c1565b9091555050600854600454610ca39084611941565b610cad919061196b565b60046000828254610cbe91906119c1565b90915550503360009081526007602052604081208054849290610ce29084906119c1565b925050819055508160086000828254610cfb91906119c1565b925050819055508060096000828254610d1491906119c1565b909155505060405163a9059cbb60e01b8152336004820152602481018290527f00000000000000000000000000000000000000000000000000000000000000006001600160a01b03169063a9059cbb906044016020604051808303816000875af1158015610d86573d6000803e3d6000fd5b505050506040513d601f19601f82011682018060405250810190610daa919061190e565b50604080518381526020810183905233917f96cd817c6329656790ef8fba7675405193677d39619571282f5e21f3a98cd059910160405180910390a25050565b6000610df683836115f1565b90505b92915050565b600c5460ff16610e225760405163174b639360e11b815260040160405180910390fd5b600c54600090610100900460ff1615610e9657503360009081526005602052604081205490819003610e67576040516304c4857b60e51b815260040160405180910390fd5b336000908152600560205260408120819055600a8054839290610e8b9084906119c1565b90915550610ef29050565b503360009081526006602052604081205490819003610ec8576040516304c4857b60e51b815260040160405180910390fd5b336000908152600660205260408120819055600b8054839290610eec9084906119c1565b90915550505b60405163a9059cbb60e01b8152336004820152602481018290527f00000000000000000000000000000000000000000000000000000000000000006001600160a01b03169063a9059cbb906044016020604051808303816000875af1158015610f5f573d6000803e3d6000fd5b505050506040513d601f19601f82011682018060405250810190610f83919061190e565b50604080518281526020810183905233917ff3a670cd3af7d64b488926880889d08a8585a138ff455227af6737339a1ec262910160405180910390a250565b6000610df6838361166a565b600080600454600354610fe19190611958565b905080600003610ffb57506706f05b59d3b2000092915050565b826110265780600354670de0b6b3a76400006110179190611941565b611021919061196b565b611047565b80600454670de0b6b3a764000061103d9190611941565b611047919061196b565b9392505050565b600c5460ff16156110725760405163aa43cb2d60e01b815260040160405180910390fd5b8160000361109357604051631f2a200560e01b815260040160405180910390fd5b82156110ce57336000908152600560205260409020548211156110c957604051631e9acf1760e31b815260040160405180910390fd5b6110fe565b336000908152600660205260409020548211156110fe57604051631e9acf1760e31b815260040160405180910390fd5b600061110a848461166a565b90508181101561112d57604051638199f5f360e01b815260040160405180910390fd5b83156111a35780836003546111429190611958565b61114c91906119c1565b60035560045461115d9082906119c1565b600455336000908152600560205260408120805485929061117f9084906119c1565b9250508190555082600a600082825461119891906119c1565b9091555061120f9050565b806003546111b191906119c1565b60035560045481906111c4908590611958565b6111ce91906119c1565b60045533600090815260066020526040812080548592906111f09084906119c1565b9250508190555082600b600082825461120991906119c1565b90915550505b806009600082825461122191906119c1565b909155505060405163a9059cbb60e01b8152336004820152602481018290527f00000000000000000000000000000000000000000000000000000000000000006001600160a01b03169063a9059cbb906044016020604051808303816000875af1158015611293573d6000803e3d6000fd5b505050506040513d601f19601f820116820180604052508101906112b7919061190e565b506040805185151581526020810185905290810182905233907ff79805601154c41acb99b86b2052e73eacc44e0f3ebfbf0d895995084be183d09060600160405180910390a250505050565b600180546109669061198d565b6000336001600160a01b037f0000000000000000000000000000000000000000000000000000000000000000161461135b57604051631966391b60e11b815260040160405180910390fd5b600c5460ff161561137f5760405163aa43cb2d60e01b815260040160405180910390fd5b600a541515806113905750600b5415155b156113ae5760405163ce76116760e01b815260040160405180910390fd5b6001600160a01b037f000000000000000000000000000000000000000000000000000000000000000016600090815260076020526040902054600854811461140957604051631370be6360e11b815260040160405180910390fd5b60098054600c805461ffff191660011790556000600381905560048190559182905560088290556001600160a01b037f0000000000000000000000000000000000000000000000000000000000000000168252600760205260408220919091559150811561158a5760405163a9059cbb60e01b81526001600160a01b037f000000000000000000000000000000000000000000000000000000000000000081166004830152602482018490527f0000000000000000000000000000000000000000000000000000000000000000169063a9059cbb906044016020604051808303816000875af1158015611500573d6000803e3d6000fd5b505050506040513d601f19601f82011682018060405250810190611524919061190e565b5060408051828152602081018490526001600160a01b037f000000000000000000000000000000000000000000000000000000000000000016917f96cd817c6329656790ef8fba7675405193677d39619571282f5e21f3a98cd059910160405180910390a25b7f00000000000000000000000000000000000000000000000000000000000000006001600160a01b03167f202e187e90a2396d8616dbc4f163bb1d06668b732d5f9858f5589db0f9985edb836040516115e591815260200190565b60405180910390a25090565b6000806004546003546116049190611941565b90508315611644578260045461161a9190611958565b611624908261196b565b836003546116329190611958565b61163c91906119c1565b915050610df9565b826003546116529190611958565b61165c908261196b565b836004546116329190611958565b6000808361167a5760045461167e565b6003545b905060008461168f57600354611693565b6004545b90506000816116a28685611958565b6116ac9190611958565b90506000856116bc846004611941565b6116c69190611941565b90506000816116d58480611941565b6116df91906119c1565b905060006116ec82611711565b905060026116fa82866119c1565b611704919061196b565b9998505050505050505050565b60008160000361172357506000919050565b508060006002611734836001611958565b61173e919061196b565b90505b8181101561177457905080600281611759818661196b565b6117639190611958565b61176d919061196b565b9050611741565b50919050565b801515811461178857600080fd5b50565b60006020828403121561179d57600080fd5b81356110478161177a565b6000806000606084860312156117bd57600080fd5b83356117c88161177a565b95602085013595506040909401359392505050565b6000815180845260005b81811015611803576020818501810151868301820152016117e7565b506000602082860101526020601f19601f83011685010191505092915050565b60006101408083526118378184018e6117dd565b9050828103602084015261184b818d6117dd565b604084019b909b5250509615156060880152941515608087015260a086019390935260c085019190915260e08401526101008301526101209091015292915050565b602081526000610df660208301846117dd565b6000602082840312156118b257600080fd5b5035919050565b600080604083850312156118cc57600080fd5b82356118d78161177a565b946020939093013593505050565b6000602082840312156118f757600080fd5b81356001600160a01b038116811461104757600080fd5b60006020828403121561192057600080fd5b81516110478161177a565b634e487b7160e01b600052601160045260246000fd5b8082028115828204841417610df957610df961192b565b80820180821115610df957610df961192b565b60008261198857634e487b7160e01b600052601260045260246000fd5b500490565b600181811c908216806119a157607f821691505b60208210810361177457634e487b7160e01b600052602260045260246000fd5b81810381811115610df957610df961192b56fea26469706673582212200e00ddf94daaf8f767f5e77c709355dcc6bc899a9bf1da6f40ba963ef7e7d89564736f6c63430008140033","linkReferences":{}},"methodIdentifiers":{"addLiquidity(uint256)":"51c6590a","buyOutcome(bool,uint256,uint256)":"193099a8","calcBuy(bool,uint256)":"a89628b5","calcSell(bool,uint256)":"da3003a4","category()":"ef430aa6","deleteAndRefundOwner()":"fbddfa58","factory()":"c45a0155","getMarketInfo()":"23341a05","getPrice(bool)":"e245b5af","getReserves()":"0902f1ac","lpShares(address)":"c109a6dc","noBalances(address)":"aa0e6bc4","noOpenInterest()":"e124015b","noReserve()":"72a9fa6e","owner()":"8da5cb5b","question()":"3fad9ae0","redeem()":"be040fb0","removeLiquidity(uint256)":"9c8f9f23","resolutionDeadline()":"528f734f","resolve(bool)":"0bede3f8","resolved()":"3f6fa655","sellOutcome(bool,uint256,uint256)":"e88b997b","totalCollateral()":"4ac8eb5f","totalLPShares()":"d789760e","usdc()":"3e413bee","yesBalances(address)":"cd2013e2","yesOpenInterest()":"da1bcbbf","yesReserve()":"b2670d74","yesWins()":"b44f77c1"},"id":23}