{"abi":[{"type":"constructor","inputs":[{"name":"_owner","type":"address","internalType":"address"},{"name":"_collateral","type":"address","internalType":"address"},{"name":"_question","type":"string","internalType":"string"},{"name":"_category","type":"string","internalType":"string"},{"name":"_deadline","type":"uint256","internalType":"uint256"},{"name":"_initLiquidity","type":"uint256","internalType":"uint256"}],"stateMutability":"nonpayable"},{"type":"function","name":"addLiquidity","inputs":[{"name":"collateralIn","type":"uint256","internalType":"uint256"}],"outputs":[],"stateMutability":"nonpayable"},{"type":"function","name":"buyOutcome","inputs":[{"name":"isYes","type":"bool","internalType":"bool"},{"name":"collateralIn","type":"uint256","internalType":"uint256"},{"name":"minTokensOut","type":"uint256","internalType":"uint256"}],"outputs":[],"stateMutability":"nonpayable"},{"type":"function","name":"calcBuy","inputs":[{"name":"isYes","type":"bool","internalType":"bool"},{"name":"collateralIn","type":"uint256","internalType":"uint256"}],"outputs":[{"name":"","type":"uint256","internalType":"uint256"}],"stateMutability":"view"},{"type":"function","name":"calcSell","inputs":[{"name":"isYes","type":"bool","internalType":"bool"},{"name":"tokensIn","type":"uint256","internalType":"uint256"}],"outputs":[{"name":"","type":"uint256","internalType":"uint256"}],"stateMutability":"view"},{"type":"function","name":"category","inputs":[],"outputs":[{"name":"","type":"string","internalType":"string"}],"stateMutability":"view"},{"type":"function","name":"collateral","inputs":[],"outputs":[{"name":"","type":"address","internalType":"contract IERC20"}],"stateMutability":"view"},{"type":"function","name":"deleteAndRefundOwner","inputs":[],"outputs":[{"name":"collateralOut","type":"uint256","internalType":"uint256"}],"stateMutability":"nonpayable"},{"type":"function","name":"factory","inputs":[],"outputs":[{"name":"","type":"address","internalType":"address"}],"stateMutability":"view"},{"type":"function","name":"getMarketInfo","inputs":[],"outputs":[{"name":"_question","type":"string","internalType":"string"},{"name":"_category","type":"string","internalType":"string"},{"name":"_deadline","type":"uint256","internalType":"uint256"},{"name":"_resolved","type":"bool","internalType":"bool"},{"name":"_yesWins","type":"bool","internalType":"bool"},{"name":"_yesReserve","type":"uint256","internalType":"uint256"},{"name":"_noReserve","type":"uint256","internalType":"uint256"},{"name":"_totalCollateral","type":"uint256","internalType":"uint256"},{"name":"_yesPrice","type":"uint256","internalType":"uint256"},{"name":"_noPrice","type":"uint256","internalType":"uint256"}],"stateMutability":"view"},{"type":"function","name":"getPrice","inputs":[{"name":"isYes","type":"bool","internalType":"bool"}],"outputs":[{"name":"","type":"uint256","internalType":"uint256"}],"stateMutability":"view"},{"type":"function","name":"getReserves","inputs":[],"outputs":[{"name":"","type":"uint256","internalType":"uint256"},{"name":"","type":"uint256","internalType":"uint256"}],"stateMutability":"view"},{"type":"function","name":"lpShares","inputs":[{"name":"","type":"address","internalType":"address"}],"outputs":[{"name":"","type":"uint256","internalType":"uint256"}],"stateMutability":"view"},{"type":"function","name":"noBalances","inputs":[{"name":"","type":"address","internalType":"address"}],"outputs":[{"name":"","type":"uint256","internalType":"uint256"}],"stateMutability":"view"},{"type":"function","name":"noOpenInterest","inputs":[],"outputs":[{"name":"","type":"uint256","internalType":"uint256"}],"stateMutability":"view"},{"type":"function","name":"noReserve","inputs":[],"outputs":[{"name":"","type":"uint256","internalType":"uint256"}],"stateMutability":"view"},{"type":"function","name":"owner","inputs":[],"outputs":[{"name":"","type":"address","internalType":"address"}],"stateMutability":"view"},{"type":"function","name":"question","inputs":[],"outputs":[{"name":"","type":"string","internalType":"string"}],"stateMutability":"view"},{"type":"function","name":"redeem","inputs":[],"outputs":[],"stateMutability":"nonpayable"},{"type":"function","name":"removeLiquidity","inputs":[{"name":"shares","type":"uint256","internalType":"uint256"}],"outputs":[],"stateMutability":"nonpayable"},{"type":"function","name":"resolutionDeadline","inputs":[],"outputs":[{"name":"","type":"uint256","internalType":"uint256"}],"stateMutability":"view"},{"type":"function","name":"resolve","inputs":[{"name":"_yesWins","type":"bool","internalType":"bool"}],"outputs":[],"stateMutability":"nonpayable"},{"type":"function","name":"resolved","inputs":[],"outputs":[{"name":"","type":"bool","internalType":"bool"}],"stateMutability":"view"},{"type":"function","name":"sellOutcome","inputs":[{"name":"isYes","type":"bool","internalType":"bool"},{"name":"tokensIn","type":"uint256","internalType":"uint256"},{"name":"minCollateralOut","type":"uint256","internalType":"uint256"}],"outputs":[],"stateMutability":"nonpayable"},{"type":"function","name":"totalCollateral","inputs":[],"outputs":[{"name":"","type":"uint256","internalType":"uint256"}],"stateMutability":"view"},{"type":"function","name":"totalLPShares","inputs":[],"outputs":[{"name":"","type":"uint256","internalType":"uint256"}],"stateMutability":"view"},{"type":"function","name":"usdc","inputs":[],"outputs":[{"name":"","type":"address","internalType":"address"}],"stateMutability":"view"},{"type":"function","name":"yesBalances","inputs":[{"name":"","type":"address","internalType":"address"}],"outputs":[{"name":"","type":"uint256","internalType":"uint256"}],"stateMutability":"view"},{"type":"function","name":"yesOpenInterest","inputs":[],"outputs":[{"name":"","type":"uint256","internalType":"uint256"}],"stateMutability":"view"},{"type":"function","name":"yesReserve","inputs":[],"outputs":[{"name":"","type":"uint256","internalType":"uint256"}],"stateMutability":"view"},{"type":"function","name":"yesWins","inputs":[],"outputs":[{"name":"","type":"bool","internalType":"bool"}],"stateMutability":"view"},{"type":"event","name":"LiquidityAdded","inputs":[{"name":"provider","type":"address","indexed":true,"internalType":"address"},{"name":"collateralIn","type":"uint256","indexed":false,"internalType":"uint256"},{"name":"sharesOut","type":"uint256","indexed":false,"internalType":"uint256"}],"anonymous":false},{"type":"event","name":"LiquidityRemoved","inputs":[{"name":"provider","type":"address","indexed":true,"internalType":"address"},{"name":"sharesIn","type":"uint256","indexed":false,"internalType":"uint256"},{"name":"collateralOut","type":"uint256","indexed":false,"internalType":"uint256"}],"anonymous":false},{"type":"event","name":"MarketDeleted","inputs":[{"name":"owner","type":"address","indexed":true,"internalType":"address"},{"name":"collateralRefunded","type":"uint256","indexed":false,"internalType":"uint256"}],"anonymous":false},{"type":"event","name":"MarketResolved","inputs":[{"name":"yesWins","type":"bool","indexed":false,"internalType":"bool"}],"anonymous":false},{"type":"event","name":"OutcomeBought","inputs":[{"name":"buyer","type":"address","indexed":true,"internalType":"address"},{"name":"isYes","type":"bool","indexed":false,"internalType":"bool"},{"name":"collateralIn","type":"uint256","indexed":false,"internalType":"uint256"},{"name":"tokensOut","type":"uint256","indexed":false,"internalType":"uint256"}],"anonymous":false},{"type":"event","name":"OutcomeSold","inputs":[{"name":"seller","type":"address","indexed":true,"internalType":"address"},{"name":"isYes","type":"bool","indexed":false,"internalType":"bool"},{"name":"tokensIn","type":"uint256","indexed":false,"internalType":"uint256"},{"name":"collateralOut","type":"uint256","indexed":false,"internalType":"uint256"}],"anonymous":false},{"type":"event","name":"Redeemed","inputs":[{"name":"winner","type":"address","indexed":true,"internalType":"address"},{"name":"tokensRedeemed","type":"uint256","indexed":false,"internalType":"uint256"},{"name":"collateralOut","type":"uint256","indexed":false,"internalType":"uint256"}],"anonymous":false},{"type":"error","name":"ExternalLiquidityExists","inputs":[]},{"type":"error","name":"InsufficientBalance","inputs":[]},{"type":"error","name":"MarketAlreadyResolved","inputs":[]},{"type":"error","name":"MarketNotResolved","inputs":[]},{"type":"error","name":"NotFactory","inputs":[]},{"type":"error","name":"NotOwner","inputs":[]},{"type":"error","name":"NothingToRedeem","inputs":[]},{"type":"error","name":"OpenInterestExists","inputs":[]},{"type":"error","name":"SlippageExceeded","inputs":[]},{"type":"error","name":"ZeroAmount","inputs":[]}],"bytecode":{"object":"0x60e06040523480156200001157600080fd5b506040516200202038038062002020833981016040819052620000349162000237565b60028110156200008a5760405162461bcd60e51b815260206004820152601660248201527f4d696e203220636f6c6c61746572616c20756e69747300000000000000000000604482015260640160405180910390fd5b6001600160a01b0380871660a0523360c05285166080526000620000af858262000368565b506001620000be848262000368565b506002828155600090620000d3908362000434565b60038190559050620000e6818362000457565b60045560098290556001600160a01b038716600081815260076020908152604091829020859055600885905581518581529081018590527fac1d76749e5447b7b16f5ab61447e1bd502f3bb4807af3b28e620d1700a6ee45910160405180910390a2505050505050506200047f565b80516001600160a01b03811681146200016d57600080fd5b919050565b634e487b7160e01b600052604160045260246000fd5b600082601f8301126200019a57600080fd5b81516001600160401b0380821115620001b757620001b762000172565b604051601f8301601f19908116603f01168101908282118183101715620001e257620001e262000172565b81604052838152602092508683858801011115620001ff57600080fd5b600091505b8382101562000223578582018301518183018401529082019062000204565b600093810190920192909252949350505050565b60008060008060008060c087890312156200025157600080fd5b6200025c8762000155565b95506200026c6020880162000155565b60408801519095506001600160401b03808211156200028a57600080fd5b620002988a838b0162000188565b95506060890151915080821115620002af57600080fd5b50620002be89828a0162000188565b9350506080870151915060a087015190509295509295509295565b600181811c90821680620002ee57607f821691505b6020821081036200030f57634e487b7160e01b600052602260045260246000fd5b50919050565b601f8211156200036357600081815260208120601f850160051c810160208610156200033e5750805b601f850160051c820191505b818110156200035f578281556001016200034a565b5050505b505050565b81516001600160401b0381111562000384576200038462000172565b6200039c81620003958454620002d9565b8462000315565b602080601f831160018114620003d45760008415620003bb5750858301515b600019600386901b1c1916600185901b1785556200035f565b600085815260208120601f198616915b828110156200040557888601518255948401946001909101908401620003e4565b5085821015620004245787850151600019600388901b60f8161c191681555b5050505050600190811b01905550565b6000826200045257634e487b7160e01b600052601260045260246000fd5b500490565b818103818111156200047957634e487b7160e01b600052601160045260246000fd5b92915050565b60805160a05160c051611b0f62000511600039600081816103a201526114280152600081816102f20152818161047a015281816114c30152818161154501528181611593015281816116480152611697015260008181610247015281816103f20152818161059a01528181610af301528181610de501528181610fd50152818161134d01526115c20152611b0f6000f3fe608060405234801561001057600080fd5b50600436106101da5760003560e01c8063b2670d7411610104578063d8dfeb45116100a2578063e245b5af11610071578063e245b5af14610439578063e88b997b1461044c578063ef430aa61461045f578063fbddfa581461046757600080fd5b8063d8dfeb45146103ed578063da1bcbbf14610414578063da3003a41461041d578063e124015b1461043057600080fd5b8063c109a6dc116100de578063c109a6dc1461037d578063c45a01551461039d578063cd2013e2146103c4578063d789760e146103e457600080fd5b8063b2670d741461035a578063b44f77c114610363578063be040fb01461037557600080fd5b80634ac8eb5f1161017c5780638da5cb5b1161014b5780638da5cb5b146102ed5780639c8f9f2314610314578063a89628b514610327578063aa0e6bc41461033a57600080fd5b80634ac8eb5f146102b157806351c6590a146102c8578063528f734f146102db57806372a9fa6e146102e457600080fd5b806323341a05116101b857806323341a05146102275780633e413bee146102455780633f6fa6551461027f5780633fad9ae01461029c57600080fd5b80630902f1ac146101df5780630bede3f8146101ff578063193099a814610214575b600080fd5b600354600454604080519283526020830191909152015b60405180910390f35b61021261020d366004611890565b61046f565b005b6102126102223660046118ad565b610533565b61022f610788565b6040516101f69a99989796959493929190611928565b7f00000000000000000000000000000000000000000000000000000000000000005b6040516001600160a01b0390911681526020016101f6565b600c5461028c9060ff1681565b60405190151581526020016101f6565b6102a46109fe565b6040516101f69190611992565b6102ba60095481565b6040519081526020016101f6565b6102126102d63660046119a5565b610a8c565b6102ba60025481565b6102ba60045481565b6102677f000000000000000000000000000000000000000000000000000000000000000081565b6102126103223660046119a5565b610c97565b6102ba6103353660046119be565b610e9a565b6102ba6103483660046119ea565b60066020526000908152604090205481565b6102ba60035481565b600c5461028c90610100900460ff1681565b610212610eaf565b6102ba61038b3660046119ea565b60076020526000908152604090205481565b6102677f000000000000000000000000000000000000000000000000000000000000000081565b6102ba6103d23660046119ea565b60056020526000908152604090205481565b6102ba60085481565b6102677f000000000000000000000000000000000000000000000000000000000000000081565b6102ba600a5481565b6102ba61042b3660046119be565b611089565b6102ba600b5481565b6102ba610447366004611890565b611095565b61021261045a3660046118ad565b611159565b6102a461140e565b6102ba61141b565b336001600160a01b037f000000000000000000000000000000000000000000000000000000000000000016146104b8576040516330cd747160e01b815260040160405180910390fd5b600c5460ff16156104dc5760405163aa43cb2d60e01b815260040160405180910390fd5b600c80548215156101000261ffff199091161760011790556040517ff528f3b02f5c2503827fc677c9d0cb54ffbf11ed32cb659f73243b70dea7cf0e9061052890831515815260200190565b60405180910390a150565b600c5460ff16156105575760405163aa43cb2d60e01b815260040160405180910390fd5b8160000361057857604051631f2a200560e01b815260040160405180910390fd5b6040516323b872dd60e01b8152336004820152306024820152604481018390527f00000000000000000000000000000000000000000000000000000000000000006001600160a01b0316906323b872dd906064016020604051808303816000875af11580156105eb573d6000803e3d6000fd5b505050506040513d601f19601f8201168201806040525081019061060f9190611a13565b50600061061c84846116fc565b90508181101561063f57604051638199f5f360e01b815260040160405180910390fd5b60006004546003546106519190611a46565b905084156106c1576000846004546106699190611a5d565b90506106758183611a70565b6003556004819055336000908152600560205260408120805485929061069c908490611a5d565b9250508190555082600a60008282546106b59190611a5d565b90915550610724915050565b6000846003546106d19190611a5d565b90506106dd8183611a70565b60045560038190553360009081526006602052604081208054859290610704908490611a5d565b9250508190555082600b600082825461071d9190611a5d565b9091555050505b83600960008282546107369190611a5d565b90915550506040805186151581526020810186905290810183905233907f07bad9821f7e23256f9909e371407caf7d0d7b38fa659f7158d8c72f4b6316c3906060015b60405180910390a25050505050565b606080600080600080600080600080600c60009054906101000a900460ff161561080e57600c54610100900460ff166107c25760006107cc565b670de0b6b3a76400005b67ffffffffffffffff169150600c60019054906101000a900460ff166107fa57670de0b6b3a76400006107fd565b60005b67ffffffffffffffff169050610894565b60006004546003546108209190611a5d565b9050801561084e5780600454670de0b6b3a764000061083f9190611a46565b6108499190611a70565b610858565b6706f05b59d3b200005b925080156108865780600354670de0b6b3a76400006108779190611a46565b6108819190611a70565b610890565b6706f05b59d3b200005b9150505b60006001600254600c60009054906101000a900460ff16600c60019054906101000a900460ff1660035460045460095489898980546108d290611a92565b80601f01602080910402602001604051908101604052809291908181526020018280546108fe90611a92565b801561094b5780601f106109205761010080835404028352916020019161094b565b820191906000526020600020905b81548152906001019060200180831161092e57829003601f168201915b5050505050995088805461095e90611a92565b80601f016020809104026020016040519081016040528092919081815260200182805461098a90611a92565b80156109d75780601f106109ac576101008083540402835291602001916109d7565b820191906000526020600020905b8154815290600101906020018083116109ba57829003601f168201915b50505050509850995099509950995099509950995099509950995090919293949596979899565b60008054610a0b90611a92565b80601f0160208091040260200160405190810160405280929190818152602001828054610a3790611a92565b8015610a845780601f10610a5957610100808354040283529160200191610a84565b820191906000526020600020905b815481529060010190602001808311610a6757829003601f168201915b505050505081565b600c5460ff1615610ab05760405163aa43cb2d60e01b815260040160405180910390fd5b80600003610ad157604051631f2a200560e01b815260040160405180910390fd5b6040516323b872dd60e01b8152336004820152306024820152604481018290527f00000000000000000000000000000000000000000000000000000000000000006001600160a01b0316906323b872dd906064016020604051808303816000875af1158015610b44573d6000803e3d6000fd5b505050506040513d601f19601f82011682018060405250810190610b689190611a13565b506000600454600354610b7b9190611a5d565b905060008160035484610b8e9190611a46565b610b989190611a70565b90506000610ba68285611ac6565b90508160036000828254610bba9190611a5d565b925050819055508060046000828254610bd39190611a5d565b909155505060085460009015610c0257600954600854610bf39087611a46565b610bfd9190611a70565b610c04565b845b33600090815260076020526040812080549293508392909190610c28908490611a5d565b925050819055508060086000828254610c419190611a5d565b925050819055508460096000828254610c5a9190611a5d565b9091555050604080518681526020810183905233917fac1d76749e5447b7b16f5ab61447e1bd502f3bb4807af3b28e620d1700a6ee459101610779565b80600003610cb857604051631f2a200560e01b815260040160405180910390fd5b33600090815260076020526040902054811115610ce857604051631e9acf1760e31b815260040160405180910390fd5b600060085460095483610cfb9190611a46565b610d059190611a70565b600c5490915060ff16610d7357600854600354610d229084611a46565b610d2c9190611a70565b60036000828254610d3d9190611ac6565b9091555050600854600454610d529084611a46565b610d5c9190611a70565b60046000828254610d6d9190611ac6565b90915550505b3360009081526007602052604081208054849290610d92908490611ac6565b925050819055508160086000828254610dab9190611ac6565b925050819055508060096000828254610dc49190611ac6565b909155505060405163a9059cbb60e01b8152336004820152602481018290527f00000000000000000000000000000000000000000000000000000000000000006001600160a01b03169063a9059cbb906044016020604051808303816000875af1158015610e36573d6000803e3d6000fd5b505050506040513d601f19601f82011682018060405250810190610e5a9190611a13565b50604080518381526020810183905233917f96cd817c6329656790ef8fba7675405193677d39619571282f5e21f3a98cd059910160405180910390a25050565b6000610ea683836116fc565b90505b92915050565b600c5460ff16610ed25760405163174b639360e11b815260040160405180910390fd5b600c54600090610100900460ff1615610f4657503360009081526005602052604081205490819003610f17576040516304c4857b60e51b815260040160405180910390fd5b336000908152600560205260408120819055600a8054839290610f3b908490611ac6565b90915550610fa29050565b503360009081526006602052604081205490819003610f78576040516304c4857b60e51b815260040160405180910390fd5b336000908152600660205260408120819055600b8054839290610f9c908490611ac6565b90915550505b8060096000828254610fb49190611ac6565b909155505060405163a9059cbb60e01b8152336004820152602481018290527f00000000000000000000000000000000000000000000000000000000000000006001600160a01b03169063a9059cbb906044016020604051808303816000875af1158015611026573d6000803e3d6000fd5b505050506040513d601f19601f8201168201806040525081019061104a9190611a13565b50604080518281526020810183905233917ff3a670cd3af7d64b488926880889d08a8585a138ff455227af6737339a1ec262910160405180910390a250565b6000610ea68383611775565b600c5460009060ff16156110da57600c5460ff610100909104161515821515146110c05760006110ca565b670de0b6b3a76400005b67ffffffffffffffff1692915050565b60006004546003546110ec9190611a5d565b90508060000361110657506706f05b59d3b2000092915050565b826111315780600354670de0b6b3a76400006111229190611a46565b61112c9190611a70565b611152565b80600454670de0b6b3a76400006111489190611a46565b6111529190611a70565b9392505050565b600c5460ff161561117d5760405163aa43cb2d60e01b815260040160405180910390fd5b8160000361119e57604051631f2a200560e01b815260040160405180910390fd5b82156111d957336000908152600560205260409020548211156111d457604051631e9acf1760e31b815260040160405180910390fd5b611209565b3360009081526006602052604090205482111561120957604051631e9acf1760e31b815260040160405180910390fd5b60006112158484611775565b90508181101561123857604051638199f5f360e01b815260040160405180910390fd5b83156112ae57808360035461124d9190611a5d565b6112579190611ac6565b600355600454611268908290611ac6565b600455336000908152600560205260408120805485929061128a908490611ac6565b9250508190555082600a60008282546112a39190611ac6565b9091555061131a9050565b806003546112bc9190611ac6565b60035560045481906112cf908590611a5d565b6112d99190611ac6565b60045533600090815260066020526040812080548592906112fb908490611ac6565b9250508190555082600b60008282546113149190611ac6565b90915550505b806009600082825461132c9190611ac6565b909155505060405163a9059cbb60e01b8152336004820152602481018290527f00000000000000000000000000000000000000000000000000000000000000006001600160a01b03169063a9059cbb906044016020604051808303816000875af115801561139e573d6000803e3d6000fd5b505050506040513d601f19601f820116820180604052508101906113c29190611a13565b506040805185151581526020810185905290810182905233907ff79805601154c41acb99b86b2052e73eacc44e0f3ebfbf0d895995084be183d09060600160405180910390a250505050565b60018054610a0b90611a92565b6000336001600160a01b037f0000000000000000000000000000000000000000000000000000000000000000161461146657604051631966391b60e11b815260040160405180910390fd5b600c5460ff161561148a5760405163aa43cb2d60e01b815260040160405180910390fd5b600a5415158061149b5750600b5415155b156114b95760405163ce76116760e01b815260040160405180910390fd5b6001600160a01b037f000000000000000000000000000000000000000000000000000000000000000016600090815260076020526040902054600854811461151457604051631370be6360e11b815260040160405180910390fd5b60098054600c805461ffff191660011790556000600381905560048190559182905560088290556001600160a01b037f000000000000000000000000000000000000000000000000000000000000000016825260076020526040822091909155915081156116955760405163a9059cbb60e01b81526001600160a01b037f000000000000000000000000000000000000000000000000000000000000000081166004830152602482018490527f0000000000000000000000000000000000000000000000000000000000000000169063a9059cbb906044016020604051808303816000875af115801561160b573d6000803e3d6000fd5b505050506040513d601f19601f8201168201806040525081019061162f9190611a13565b5060408051828152602081018490526001600160a01b037f000000000000000000000000000000000000000000000000000000000000000016917f96cd817c6329656790ef8fba7675405193677d39619571282f5e21f3a98cd059910160405180910390a25b7f00000000000000000000000000000000000000000000000000000000000000006001600160a01b03167f202e187e90a2396d8616dbc4f163bb1d06668b732d5f9858f5589db0f9985edb836040516116f091815260200190565b60405180910390a25090565b60008060045460035461170f9190611a46565b9050831561174f57826004546117259190611a5d565b61172f9082611a70565b8360035461173d9190611a5d565b6117479190611ac6565b915050610ea9565b8260035461175d9190611a5d565b6117679082611a70565b8360045461173d9190611a5d565b6000808361178557600454611789565b6003545b905060008461179a5760035461179e565b6004545b90506000816117ad8685611a5d565b6117b79190611a5d565b90506000856117c7846004611a46565b6117d19190611a46565b905060006117f2826117e38580611a46565b6117ed9190611ac6565b611816565b905060026118008285611ac6565b61180a9190611a70565b98975050505050505050565b60008160000361182857506000919050565b508060006002611839836001611a5d565b6118439190611a70565b90505b818110156118795790508060028161185e8186611a70565b6118689190611a5d565b6118729190611a70565b9050611846565b50919050565b801515811461188d57600080fd5b50565b6000602082840312156118a257600080fd5b81356111528161187f565b6000806000606084860312156118c257600080fd5b83356118cd8161187f565b95602085013595506040909401359392505050565b6000815180845260005b81811015611908576020818501810151868301820152016118ec565b506000602082860101526020601f19601f83011685010191505092915050565b600061014080835261193c8184018e6118e2565b90508281036020840152611950818d6118e2565b604084019b909b5250509615156060880152941515608087015260a086019390935260c085019190915260e08401526101008301526101209091015292915050565b602081526000610ea660208301846118e2565b6000602082840312156119b757600080fd5b5035919050565b600080604083850312156119d157600080fd5b82356119dc8161187f565b946020939093013593505050565b6000602082840312156119fc57600080fd5b81356001600160a01b038116811461115257600080fd5b600060208284031215611a2557600080fd5b81516111528161187f565b634e487b7160e01b600052601160045260246000fd5b8082028115828204841417610ea957610ea9611a30565b80820180821115610ea957610ea9611a30565b600082611a8d57634e487b7160e01b600052601260045260246000fd5b500490565b600181811c90821680611aa657607f821691505b60208210810361187957634e487b7160e01b600052602260045260246000fd5b81810381811115610ea957610ea9611a3056fea264697066735822122096bbb8585349dfe4ecf4d9b7765c0a73fcf15830d0af0658442065acecc4a60164736f6c63430008140033","linkReferences":{}},"methodIdentifiers":{"addLiquidity(uint256)":"51c6590a","buyOutcome(bool,uint256,uint256)":"193099a8","calcBuy(bool,uint256)":"a89628b5","calcSell(bool,uint256)":"da3003a4","category()":"ef430aa6","collateral()":"d8dfeb45","deleteAndRefundOwner()":"fbddfa58","factory()":"c45a0155","getMarketInfo()":"23341a05","getPrice(bool)":"e245b5af","getReserves()":"0902f1ac","lpShares(address)":"c109a6dc","noBalances(address)":"aa0e6bc4","noOpenInterest()":"e124015b","noReserve()":"72a9fa6e","owner()":"8da5cb5b","question()":"3fad9ae0","redeem()":"be040fb0","removeLiquidity(uint256)":"9c8f9f23","resolutionDeadline()":"528f734f","resolve(bool)":"0bede3f8","resolved()":"3f6fa655","sellOutcome(bool,uint256,uint256)":"e88b997b","totalCollateral()":"4ac8eb5f","totalLPShares()":"d789760e","usdc()":"3e413bee","yesBalances(address)":"cd2013e2","yesOpenInterest()":"da1bcbbf","yesReserve()":"b2670d74","yesWins()":"b44f77c1"},"id":23}