{"abi":[{"type":"constructor","inputs":[{"name":"_owner","type":"address","internalType":"address"},{"name":"_usdc","type":"address","internalType":"address"},{"name":"_question","type":"string","internalType":"string"},{"name":"_category","type":"string","internalType":"string"},{"name":"_deadline","type":"uint256","internalType":"uint256"},{"name":"_initLiquidity","type":"uint256","internalType":"uint256"}],"stateMutability":"nonpayable"},{"type":"function","name":"addLiquidity","inputs":[{"name":"usdcIn","type":"uint256","internalType":"uint256"}],"outputs":[],"stateMutability":"nonpayable"},{"type":"function","name":"buyOutcome","inputs":[{"name":"isYes","type":"bool","internalType":"bool"},{"name":"usdcIn","type":"uint256","internalType":"uint256"},{"name":"minTokensOut","type":"uint256","internalType":"uint256"}],"outputs":[],"stateMutability":"nonpayable"},{"type":"function","name":"calcBuy","inputs":[{"name":"isYes","type":"bool","internalType":"bool"},{"name":"usdcIn","type":"uint256","internalType":"uint256"}],"outputs":[{"name":"","type":"uint256","internalType":"uint256"}],"stateMutability":"view"},{"type":"function","name":"calcSell","inputs":[{"name":"isYes","type":"bool","internalType":"bool"},{"name":"tokensIn","type":"uint256","internalType":"uint256"}],"outputs":[{"name":"","type":"uint256","internalType":"uint256"}],"stateMutability":"view"},{"type":"function","name":"category","inputs":[],"outputs":[{"name":"","type":"string","internalType":"string"}],"stateMutability":"view"},{"type":"function","name":"factory","inputs":[],"outputs":[{"name":"","type":"address","internalType":"address"}],"stateMutability":"view"},{"type":"function","name":"getMarketInfo","inputs":[],"outputs":[{"name":"_question","type":"string","internalType":"string"},{"name":"_category","type":"string","internalType":"string"},{"name":"_deadline","type":"uint256","internalType":"uint256"},{"name":"_resolved","type":"bool","internalType":"bool"},{"name":"_yesWins","type":"bool","internalType":"bool"},{"name":"_yesReserve","type":"uint256","internalType":"uint256"},{"name":"_noReserve","type":"uint256","internalType":"uint256"},{"name":"_totalCollateral","type":"uint256","internalType":"uint256"},{"name":"_yesPrice","type":"uint256","internalType":"uint256"},{"name":"_noPrice","type":"uint256","internalType":"uint256"}],"stateMutability":"view"},{"type":"function","name":"getPrice","inputs":[{"name":"isYes","type":"bool","internalType":"bool"}],"outputs":[{"name":"","type":"uint256","internalType":"uint256"}],"stateMutability":"view"},{"type":"function","name":"getReserves","inputs":[],"outputs":[{"name":"","type":"uint256","internalType":"uint256"},{"name":"","type":"uint256","internalType":"uint256"}],"stateMutability":"view"},{"type":"function","name":"lpShares","inputs":[{"name":"","type":"address","internalType":"address"}],"outputs":[{"name":"","type":"uint256","internalType":"uint256"}],"stateMutability":"view"},{"type":"function","name":"noBalances","inputs":[{"name":"","type":"address","internalType":"address"}],"outputs":[{"name":"","type":"uint256","internalType":"uint256"}],"stateMutability":"view"},{"type":"function","name":"noReserve","inputs":[],"outputs":[{"name":"","type":"uint256","internalType":"uint256"}],"stateMutability":"view"},{"type":"function","name":"owner","inputs":[],"outputs":[{"name":"","type":"address","internalType":"address"}],"stateMutability":"view"},{"type":"function","name":"question","inputs":[],"outputs":[{"name":"","type":"string","internalType":"string"}],"stateMutability":"view"},{"type":"function","name":"redeem","inputs":[],"outputs":[],"stateMutability":"nonpayable"},{"type":"function","name":"removeLiquidity","inputs":[{"name":"shares","type":"uint256","internalType":"uint256"}],"outputs":[],"stateMutability":"nonpayable"},{"type":"function","name":"resolutionDeadline","inputs":[],"outputs":[{"name":"","type":"uint256","internalType":"uint256"}],"stateMutability":"view"},{"type":"function","name":"resolve","inputs":[{"name":"_yesWins","type":"bool","internalType":"bool"}],"outputs":[],"stateMutability":"nonpayable"},{"type":"function","name":"resolved","inputs":[],"outputs":[{"name":"","type":"bool","internalType":"bool"}],"stateMutability":"view"},{"type":"function","name":"sellOutcome","inputs":[{"name":"isYes","type":"bool","internalType":"bool"},{"name":"tokensIn","type":"uint256","internalType":"uint256"},{"name":"minUsdcOut","type":"uint256","internalType":"uint256"}],"outputs":[],"stateMutability":"nonpayable"},{"type":"function","name":"totalCollateral","inputs":[],"outputs":[{"name":"","type":"uint256","internalType":"uint256"}],"stateMutability":"view"},{"type":"function","name":"totalLPShares","inputs":[],"outputs":[{"name":"","type":"uint256","internalType":"uint256"}],"stateMutability":"view"},{"type":"function","name":"usdc","inputs":[],"outputs":[{"name":"","type":"address","internalType":"contract IERC20"}],"stateMutability":"view"},{"type":"function","name":"yesBalances","inputs":[{"name":"","type":"address","internalType":"address"}],"outputs":[{"name":"","type":"uint256","internalType":"uint256"}],"stateMutability":"view"},{"type":"function","name":"yesReserve","inputs":[],"outputs":[{"name":"","type":"uint256","internalType":"uint256"}],"stateMutability":"view"},{"type":"function","name":"yesWins","inputs":[],"outputs":[{"name":"","type":"bool","internalType":"bool"}],"stateMutability":"view"},{"type":"event","name":"LiquidityAdded","inputs":[{"name":"provider","type":"address","indexed":true,"internalType":"address"},{"name":"usdcIn","type":"uint256","indexed":false,"internalType":"uint256"},{"name":"sharesOut","type":"uint256","indexed":false,"internalType":"uint256"}],"anonymous":false},{"type":"event","name":"LiquidityRemoved","inputs":[{"name":"provider","type":"address","indexed":true,"internalType":"address"},{"name":"sharesIn","type":"uint256","indexed":false,"internalType":"uint256"},{"name":"usdcOut","type":"uint256","indexed":false,"internalType":"uint256"}],"anonymous":false},{"type":"event","name":"MarketResolved","inputs":[{"name":"yesWins","type":"bool","indexed":false,"internalType":"bool"}],"anonymous":false},{"type":"event","name":"OutcomeBought","inputs":[{"name":"buyer","type":"address","indexed":true,"internalType":"address"},{"name":"isYes","type":"bool","indexed":false,"internalType":"bool"},{"name":"usdcIn","type":"uint256","indexed":false,"internalType":"uint256"},{"name":"tokensOut","type":"uint256","indexed":false,"internalType":"uint256"}],"anonymous":false},{"type":"event","name":"OutcomeSold","inputs":[{"name":"seller","type":"address","indexed":true,"internalType":"address"},{"name":"isYes","type":"bool","indexed":false,"internalType":"bool"},{"name":"tokensIn","type":"uint256","indexed":false,"internalType":"uint256"},{"name":"usdcOut","type":"uint256","indexed":false,"internalType":"uint256"}],"anonymous":false},{"type":"event","name":"Redeemed","inputs":[{"name":"winner","type":"address","indexed":true,"internalType":"address"},{"name":"tokensRedeemed","type":"uint256","indexed":false,"internalType":"uint256"},{"name":"usdcOut","type":"uint256","indexed":false,"internalType":"uint256"}],"anonymous":false},{"type":"error","name":"InsufficientBalance","inputs":[]},{"type":"error","name":"MarketAlreadyResolved","inputs":[]},{"type":"error","name":"MarketNotResolved","inputs":[]},{"type":"error","name":"NotOwner","inputs":[]},{"type":"error","name":"NothingToRedeem","inputs":[]},{"type":"error","name":"SlippageExceeded","inputs":[]},{"type":"error","name":"ZeroAmount","inputs":[]}],"bytecode":{"object":"0x60e06040523480156200001157600080fd5b5060405162001b0338038062001b0383398101604081905262000034916200022a565b60028110156200007d5760405162461bcd60e51b815260206004820152601060248201526f4d696e2032205553444320756e69747360801b604482015260640160405180910390fd5b6001600160a01b0380871660a0523360c05285166080526000620000a285826200035b565b506001620000b184826200035b565b506002828155600090620000c6908362000427565b60038190559050620000d981836200044a565b60045560098290556001600160a01b038716600081815260076020908152604091829020859055600885905581518581529081018590527fac1d76749e5447b7b16f5ab61447e1bd502f3bb4807af3b28e620d1700a6ee45910160405180910390a25050505050505062000472565b80516001600160a01b03811681146200016057600080fd5b919050565b634e487b7160e01b600052604160045260246000fd5b600082601f8301126200018d57600080fd5b81516001600160401b0380821115620001aa57620001aa62000165565b604051601f8301601f19908116603f01168101908282118183101715620001d557620001d562000165565b81604052838152602092508683858801011115620001f257600080fd5b600091505b83821015620002165785820183015181830184015290820190620001f7565b600093810190920192909252949350505050565b60008060008060008060c087890312156200024457600080fd5b6200024f8762000148565b95506200025f6020880162000148565b60408801519095506001600160401b03808211156200027d57600080fd5b6200028b8a838b016200017b565b95506060890151915080821115620002a257600080fd5b50620002b189828a016200017b565b9350506080870151915060a087015190509295509295509295565b600181811c90821680620002e157607f821691505b6020821081036200030257634e487b7160e01b600052602260045260246000fd5b50919050565b601f8211156200035657600081815260208120601f850160051c81016020861015620003315750805b601f850160051c820191505b8181101562000352578281556001016200033d565b5050505b505050565b81516001600160401b0381111562000377576200037762000165565b6200038f81620003888454620002cc565b8462000308565b602080601f831160018114620003c75760008415620003ae5750858301515b600019600386901b1c1916600185901b17855562000352565b600085815260208120601f198616915b82811015620003f857888601518255948401946001909101908401620003d7565b5085821015620004175787850151600019600388901b60f8161c191681555b5050505050600190811b01905550565b6000826200044557634e487b7160e01b600052601260045260246000fd5b500490565b818103818111156200046c57634e487b7160e01b600052601160045260246000fd5b92915050565b60805160a05160c051611637620004cc600039600061035b0152600081816102ab01526103f20152600081816101fe01528181610512015281816109c101528181610ca801528181610e4e015261115001526116376000f3fe608060405234801561001057600080fd5b506004361061018e5760003560e01c8063a89628b5116100de578063c45a015511610097578063da3003a411610071578063da3003a4146103a6578063e245b5af146103b9578063e88b997b146103cc578063ef430aa6146103df57600080fd5b8063c45a015514610356578063cd2013e21461037d578063d789760e1461039d57600080fd5b8063a89628b5146102e0578063aa0e6bc4146102f3578063b2670d7414610313578063b44f77c11461031c578063be040fb01461032e578063c109a6dc1461033657600080fd5b80633fad9ae01161014b578063528f734f11610125578063528f734f1461029457806372a9fa6e1461029d5780638da5cb5b146102a65780639c8f9f23146102cd57600080fd5b80633fad9ae0146102555780634ac8eb5f1461026a57806351c6590a1461028157600080fd5b80630902f1ac146101935780630bede3f8146101b3578063193099a8146101c857806323341a05146101db5780633e413bee146101f95780633f6fa65514610238575b600080fd5b600354600454604080519283526020830191909152015b60405180910390f35b6101c66101c13660046113b8565b6103e7565b005b6101c66101d63660046113d5565b6104ab565b6101e36106ce565b6040516101aa9a99989796959493929190611450565b6102207f000000000000000000000000000000000000000000000000000000000000000081565b6040516001600160a01b0390911681526020016101aa565b600a546102459060ff1681565b60405190151581526020016101aa565b61025d6108cc565b6040516101aa91906114ba565b61027360095481565b6040519081526020016101aa565b6101c661028f3660046114cd565b61095a565b61027360025481565b61027360045481565b6102207f000000000000000000000000000000000000000000000000000000000000000081565b6101c66102db3660046114cd565b610b65565b6102736102ee3660046114e6565b610d5d565b610273610301366004611512565b60066020526000908152604090205481565b61027360035481565b600a5461024590610100900460ff1681565b6101c6610d72565b610273610344366004611512565b60076020526000908152604090205481565b6102207f000000000000000000000000000000000000000000000000000000000000000081565b61027361038b366004611512565b60056020526000908152604090205481565b61027360085481565b6102736103b43660046114e6565b610f02565b6102736103c73660046113b8565b610f0e565b6101c66103da3660046113d5565b610f8e565b61025d611211565b336001600160a01b037f00000000000000000000000000000000000000000000000000000000000000001614610430576040516330cd747160e01b815260040160405180910390fd5b600a5460ff16156104545760405163aa43cb2d60e01b815260040160405180910390fd5b600a80548215156101000261ffff199091161760011790556040517ff528f3b02f5c2503827fc677c9d0cb54ffbf11ed32cb659f73243b70dea7cf0e906104a090831515815260200190565b60405180910390a150565b600a5460ff16156104cf5760405163aa43cb2d60e01b815260040160405180910390fd5b816000036104f057604051631f2a200560e01b815260040160405180910390fd5b6040516323b872dd60e01b8152336004820152306024820152604481018390527f00000000000000000000000000000000000000000000000000000000000000006001600160a01b0316906323b872dd906064016020604051808303816000875af1158015610563573d6000803e3d6000fd5b505050506040513d601f19601f82011682018060405250810190610587919061153b565b506000610594848461121e565b9050818110156105b757604051638199f5f360e01b815260040160405180910390fd5b60006004546003546105c9919061156e565b90508415610620576000846004546105e19190611585565b90506105ed8183611598565b60035560048190553360009081526005602052604081208054859290610614908490611585565b9091555061066a915050565b6000846003546106309190611585565b905061063c8183611598565b60045560038190553360009081526006602052604081208054859290610663908490611585565b9091555050505b836009600082825461067c9190611585565b90915550506040805186151581526020810186905290810183905233907f07bad9821f7e23256f9909e371407caf7d0d7b38fa659f7158d8c72f4b6316c3906060015b60405180910390a25050505050565b60608060008060008060008060008060006004546003546106ef9190611585565b9050801561071d5780600454670de0b6b3a764000061070e919061156e565b6107189190611598565b610727565b6706f05b59d3b200005b925080156107555780600354670de0b6b3a7640000610746919061156e565b6107509190611598565b61075f565b6706f05b59d3b200005b915060006001600254600a60009054906101000a900460ff16600a60019054906101000a900460ff166003546004546009548a8a89805461079f906115ba565b80601f01602080910402602001604051908101604052809291908181526020018280546107cb906115ba565b80156108185780601f106107ed57610100808354040283529160200191610818565b820191906000526020600020905b8154815290600101906020018083116107fb57829003601f168201915b5050505050995088805461082b906115ba565b80601f0160208091040260200160405190810160405280929190818152602001828054610857906115ba565b80156108a45780601f10610879576101008083540402835291602001916108a4565b820191906000526020600020905b81548152906001019060200180831161088757829003601f168201915b505050505098509a509a509a509a509a509a509a509a509a509a505090919293949596979899565b600080546108d9906115ba565b80601f0160208091040260200160405190810160405280929190818152602001828054610905906115ba565b80156109525780601f1061092757610100808354040283529160200191610952565b820191906000526020600020905b81548152906001019060200180831161093557829003601f168201915b505050505081565b600a5460ff161561097e5760405163aa43cb2d60e01b815260040160405180910390fd5b8060000361099f57604051631f2a200560e01b815260040160405180910390fd5b6040516323b872dd60e01b8152336004820152306024820152604481018290527f00000000000000000000000000000000000000000000000000000000000000006001600160a01b0316906323b872dd906064016020604051808303816000875af1158015610a12573d6000803e3d6000fd5b505050506040513d601f19601f82011682018060405250810190610a36919061153b565b506000600454600354610a499190611585565b905060008160035484610a5c919061156e565b610a669190611598565b90506000610a7482856115ee565b90508160036000828254610a889190611585565b925050819055508060046000828254610aa19190611585565b909155505060085460009015610ad057600954600854610ac1908761156e565b610acb9190611598565b610ad2565b845b33600090815260076020526040812080549293508392909190610af6908490611585565b925050819055508060086000828254610b0f9190611585565b925050819055508460096000828254610b289190611585565b9091555050604080518681526020810183905233917fac1d76749e5447b7b16f5ab61447e1bd502f3bb4807af3b28e620d1700a6ee4591016106bf565b80600003610b8657604051631f2a200560e01b815260040160405180910390fd5b33600090815260076020526040902054811115610bb657604051631e9acf1760e31b815260040160405180910390fd5b600060085460095483610bc9919061156e565b610bd39190611598565b905060085460035483610be6919061156e565b610bf09190611598565b60036000828254610c0191906115ee565b9091555050600854600454610c16908461156e565b610c209190611598565b60046000828254610c3191906115ee565b90915550503360009081526007602052604081208054849290610c559084906115ee565b925050819055508160086000828254610c6e91906115ee565b925050819055508060096000828254610c8791906115ee565b909155505060405163a9059cbb60e01b8152336004820152602481018290527f00000000000000000000000000000000000000000000000000000000000000006001600160a01b03169063a9059cbb906044016020604051808303816000875af1158015610cf9573d6000803e3d6000fd5b505050506040513d601f19601f82011682018060405250810190610d1d919061153b565b50604080518381526020810183905233917f96cd817c6329656790ef8fba7675405193677d39619571282f5e21f3a98cd059910160405180910390a25050565b6000610d69838361121e565b90505b92915050565b600a5460ff16610d955760405163174b639360e11b815260040160405180910390fd5b600a54600090610100900460ff1615610def57503360009081526005602052604081205490819003610dda576040516304c4857b60e51b815260040160405180910390fd5b33600090815260056020526040812055610e32565b503360009081526006602052604081205490819003610e21576040516304c4857b60e51b815260040160405180910390fd5b336000908152600660205260408120555b60405163a9059cbb60e01b8152336004820152602481018290527f00000000000000000000000000000000000000000000000000000000000000006001600160a01b03169063a9059cbb906044016020604051808303816000875af1158015610e9f573d6000803e3d6000fd5b505050506040513d601f19601f82011682018060405250810190610ec3919061153b565b50604080518281526020810183905233917ff3a670cd3af7d64b488926880889d08a8585a138ff455227af6737339a1ec262910160405180910390a250565b6000610d698383611297565b600080600454600354610f219190611585565b905080600003610f3b57506706f05b59d3b2000092915050565b82610f665780600354670de0b6b3a7640000610f57919061156e565b610f619190611598565b610f87565b80600454670de0b6b3a7640000610f7d919061156e565b610f879190611598565b9392505050565b600a5460ff1615610fb25760405163aa43cb2d60e01b815260040160405180910390fd5b81600003610fd357604051631f2a200560e01b815260040160405180910390fd5b821561100e573360009081526005602052604090205482111561100957604051631e9acf1760e31b815260040160405180910390fd5b61103e565b3360009081526006602052604090205482111561103e57604051631e9acf1760e31b815260040160405180910390fd5b600061104a8484611297565b90508181101561106d57604051638199f5f360e01b815260040160405180910390fd5b83156110ca5780836003546110829190611585565b61108c91906115ee565b60035560045461109d9082906115ee565b60045533600090815260056020526040812080548592906110bf9084906115ee565b9091555061111d9050565b806003546110d891906115ee565b60035560045481906110eb908590611585565b6110f591906115ee565b60045533600090815260066020526040812080548592906111179084906115ee565b90915550505b806009600082825461112f91906115ee565b909155505060405163a9059cbb60e01b8152336004820152602481018290527f00000000000000000000000000000000000000000000000000000000000000006001600160a01b03169063a9059cbb906044016020604051808303816000875af11580156111a1573d6000803e3d6000fd5b505050506040513d601f19601f820116820180604052508101906111c5919061153b565b506040805185151581526020810185905290810182905233907ff79805601154c41acb99b86b2052e73eacc44e0f3ebfbf0d895995084be183d09060600160405180910390a250505050565b600180546108d9906115ba565b600080600454600354611231919061156e565b9050831561127157826004546112479190611585565b6112519082611598565b8360035461125f9190611585565b61126991906115ee565b915050610d6c565b8260035461127f9190611585565b6112899082611598565b8360045461125f9190611585565b600080836112a7576004546112ab565b6003545b90506000846112bc576003546112c0565b6004545b90506000816112cf8685611585565b6112d99190611585565b90506000856112e984600461156e565b6112f3919061156e565b9050600081611302848061156e565b61130c91906115ee565b905060006113198261133e565b9050600261132782866115ee565b6113319190611598565b9998505050505050505050565b60008160000361135057506000919050565b508060006002611361836001611585565b61136b9190611598565b90505b818110156113a1579050806002816113868186611598565b6113909190611585565b61139a9190611598565b905061136e565b50919050565b80151581146113b557600080fd5b50565b6000602082840312156113ca57600080fd5b8135610f87816113a7565b6000806000606084860312156113ea57600080fd5b83356113f5816113a7565b95602085013595506040909401359392505050565b6000815180845260005b8181101561143057602081850181015186830182015201611414565b506000602082860101526020601f19601f83011685010191505092915050565b60006101408083526114648184018e61140a565b90508281036020840152611478818d61140a565b604084019b909b5250509615156060880152941515608087015260a086019390935260c085019190915260e08401526101008301526101209091015292915050565b602081526000610d69602083018461140a565b6000602082840312156114df57600080fd5b5035919050565b600080604083850312156114f957600080fd5b8235611504816113a7565b946020939093013593505050565b60006020828403121561152457600080fd5b81356001600160a01b0381168114610f8757600080fd5b60006020828403121561154d57600080fd5b8151610f87816113a7565b634e487b7160e01b600052601160045260246000fd5b8082028115828204841417610d6c57610d6c611558565b80820180821115610d6c57610d6c611558565b6000826115b557634e487b7160e01b600052601260045260246000fd5b500490565b600181811c908216806115ce57607f821691505b6020821081036113a157634e487b7160e01b600052602260045260246000fd5b81810381811115610d6c57610d6c61155856fea26469706673582212200e26bf1217e6c48354339bbcd3bc127213995895f3cc5b1f1e63b422dc46896964736f6c63430008130033","linkReferences":{}},"methodIdentifiers":{"addLiquidity(uint256)":"51c6590a","buyOutcome(bool,uint256,uint256)":"193099a8","calcBuy(bool,uint256)":"a89628b5","calcSell(bool,uint256)":"da3003a4","category()":"ef430aa6","factory()":"c45a0155","getMarketInfo()":"23341a05","getPrice(bool)":"e245b5af","getReserves()":"0902f1ac","lpShares(address)":"c109a6dc","noBalances(address)":"aa0e6bc4","noReserve()":"72a9fa6e","owner()":"8da5cb5b","question()":"3fad9ae0","redeem()":"be040fb0","removeLiquidity(uint256)":"9c8f9f23","resolutionDeadline()":"528f734f","resolve(bool)":"0bede3f8","resolved()":"3f6fa655","sellOutcome(bool,uint256,uint256)":"e88b997b","totalCollateral()":"4ac8eb5f","totalLPShares()":"d789760e","usdc()":"3e413bee","yesBalances(address)":"cd2013e2","yesReserve()":"b2670d74","yesWins()":"b44f77c1"},"id":20}